:100000000C9445040C948C040C948C040C94131ED6
:100010000C948C040C948C040C948C040C948C0420
:100020000C948C040C948C040C9409250C94DD2500
:100030000C9494200C948C040C948C040C948C04DC
:100040000C948C040C948C040C948C040C948C04F0
:100050000C948C040C9407210C948C040C948C0448
:100060000C948C040C948C040C948C040C948C04D0
:100070000C948C040C948C040C948C040C948C04C0
:100080000C948C040C948C040C948C040C948C04B0
:100090000C948C040C948C040C948C040C948C04A0
:1000A0000C948C040C948C040C948C0429001E0079
:1000B0001F002000210022002B0014001A0008005D
:1000C00015001700E10004001600070009000A00EF
:1000D000E0001D001B000600190005000000E20002
:1000E000015168002C002F002A002700260025005F
:1000F000240023003400130012000C0018001C0020
:10010000280033000F000E000D000B00E500380042
:10011000370036001000110000004C00E7000251CB
:10012000280001543A003B003C003D003E003F00E7
:1001300035022A005200280001000100E1005000B1
:1001400051004F002D002D023900BC00AE00BB0055
:100150000000000000000100010001000100690032
:100160002E0030002F004200410040002D005700BB
:1001700001000100010001003502270226022502CC
:1001800000002302310230022F020000000024028E
:100190000000010001002D0201000100010001002A
:1001A000010001000100010035001E001F002000B9
:1001B000210022003A003B003C003D003E003F0091
:1001C000400041004200430044004500000001009F
:1001D00001000351010001000100010001000100C4
:1001E0000100010001002700260025002400230053
:1001F00000004F005200510050000000310030005C
:100200002F002E002D002E02000001000100010031
:100210000100010000001E021F0220022102220232
:1002200000000000000000000000000000000000CE
:1002300000000000000000000000000000000000BE
:1002400000000000000001000100010001000000AA
:1002500000002702260225022402230200000000DB
:10026000000000000000000000000000000000008E
:10027000000000000000000000000000000000007E
:1002800000000100010001000100010000AE00AF0C
:1002900000DA0281FFD9F1DB20A4A62EAF00A0C0B6
:1002A00000A1C800AED580A81FD300408D14200047
:1002B0000000000000003E5B4F5B3E003E6B4F6B5A
:1002C0003E001C3E7C3E1C00183C7E3C18001C5727
:1002D0007D571C001C5E7F5E1C0000183C1800004F
:1002E000FFE7C3E7FF00001824180000FFE7DBE783
:1002F000FF0030483A060E00262979292600407F63
:1003000005050700407F05253F005A3CE73C5A00A1
:100310007F3E1C1C0800081C1C3E7F0014227F220C
:1003200014005F5F005F5F0006097F017F000066C9
:1003300089956A0060606060600094A2FFA29400EA
:1003400008047E04080010207E20100008082A1CE3
:100350000800081C2A0808001E10101010000C1EAF
:100360000C1E0C0030383E383000060E3E0E0600E3
:1003700000000000000000005F0000000007000710
:100380000000147F147F1400242A7F2A12002313F4
:100390000864620036495620500000080703000038
:1003A000001C224100000041221C00002A1C7F1C6E
:1003B0002A0008083E080800008070300000080885
:1003C0000808080000006060000020100804020017
:1003D0003E5149453E0000427F4000007249494974
:1003E00046002141494D33001814127F1000274563
:1003F000454539003C4A494931004121110907006E
:10040000364949493600464949291E000000140072
:1004100000000040340000000008142241001414C1
:1004200014141400004122140800020159090600A6
:100430003E415D594E007C1211127C007F494949B2
:1004400036003E41414122007F4141413E007F490B
:10045000494941007F09090901003E4141517300AA
:100460007F0808087F0000417F4100002040413F95
:1004700001007F08142241007F40404040007F027D
:100480001C027F007F0408107F003E4141413E0076
:100490007F09090906003E4151215E007F091929A3
:1004A000460026494949320003017F0103003F40CD
:1004B00040403F001F2040201F003F4038403F0089
:1004C0006314081463000304780403006159494D60
:1004D0004300007F41414100020408102000004118
:1004E00041417F00040201020400404040404000BE
:1004F0000003070800002054547840007F2844443B
:100500003800384444442800384444287F00385494
:100510005454180000087E0902001824241C780096
:100520007F080404780000447D4000002040403DE6
:1005300000007F102844000000417F4000007C0440
:10054000780478007C080404780038444444380077
:100550007C1824241800182424187C007C08040427
:10056000080048545454240004043F4424003C40F0
:1005700040207C001C2040201C003C4030403C00BF
:100580004428102844004C9090907C004464544CC3
:1005900044000008364100000000770000000041E0
:1005A000360800000201020402003C2623263C001B
:1005B000000000000080808080000000000080E0DB
:1005C00070180C1830E080000010F890103078306F
:1005D00010B8FC3810000000000000F8FCF8000023
:1005E00000000000000000000000001C9C1C000037
:1005F0000000F8FCF80000000000001CFCF8C0003F
:10060000000000000080E0F87C1C000000F0FCFC12
:10061000FC1C1C1C1C1C1C1C1C000000000000C03E
:10062000F0F8381C1C1C1C1C1C3CF8F0E000E0F02E
:10063000F0F0E0ECEEF7F37020007C7C7C7E007E36
:100640007E7E7F7F7F000080C0E07E5B4F5BFEC0D0
:100650000000C000DCD7DEDEDED7DC00C00000001A
:10066000000000000000000000000000000000008A
:1006700000000000000FBCE0818181838382870C31
:10068000183060C000001FFE90B9FFBB91983C1865
:1006900011133F1100000000000000FFFFFF0000E9
:1006A0000000000000000000000000FFFFFF00004D
:1006B0000000FFFFFF0000000000000000030F7FAC
:1006C000F8E080F0FC3F0F0100000000003F3F3FDA
:1006D0001C1C1C1C1C3C78F8F0E08000000000C3CF
:1006E000E7FF7E3C3878787070F8FFDF87000F1FD7
:1006F0003F7F7F7F7F7F3F1E0C001F1F1F3F003FFC
:100700003F3F7F7F7F00307B7F7830202030787FB5
:100710003B0003000F7F0F0F0F7F0F00030000004F
:1007200000000000000000000000000000000000C9
:10073000183C24666341C18180808080808081C1B3
:100740004162386C4CC68181808080808081C14349
:1007500062361C1800000000000000FFFFFFC0C050
:10076000C0C0C0C0C0C0C0800000007FFF7F0000CC
:1007700000007FFFFFC080000000E0E0C0C0C0E0DC
:10078000F97F1F0700000000000000000070F0E08B
:10079000E0C0C0C0C0E0F0F87F3F0F0000000F3F96
:1007A0007FF9E0E0C0C0C0C0C0E0F97F3F1F00009B
:1007B0000000000000000000000000000000000039
:1007C0000000000000000000000000000000000029
:1007D0000000000000000000000000000000000019
:1007E0000000000000000000000000000000000009
:1007F0000E034C0069006C007900350038000000E1
:1008000010036C0069006C00690075006D007300D6
:1008100000000403090409022200010100A0FA09F2
:10082000040000010301010009211101000122401F
:10083000000705810308000A1201000200000008F9
:10084000D8042DEB00010102000105010906A101F8
:10085000050719E029E715002501950875018102B2
:100860009501750881010507190029FF150026FF6C
:10087000009506750881000508190129059505757B
:10088000019102950175039101C011241FBECFEFA4
:10089000DAE0DEBFCDBF04B603FE27C08091960527
:1008A00090919705A0919805B09199058730904B4C
:1008B000A740B04BD1F41092960510929705109274
:1008C00098051092990514BE84B7877F84BF0FB630
:1008D000F894A895809160008861809360001092E0
:1008E00060000FBEE0E0F8E3099512E0A0E0B1E09F
:1008F000E6E5F6E502C005900D92A632B107D9F7FC
:1009000025E0A6E2B2E001C01D92A639B207E1F7E8
:100910000E9428170C94052B0C94000080918002F3
:1009200090918102A0918202B0918302843091055E
:10093000A105B105E1F128F50097A105B10571F117
:1009400063E971E082309105A105B10549F1BF93DA
:10095000AF939F938F938EEA91E09F938F931F9213
:1009600088E18F9388E493E09F938F930E94ED2713
:100970008DB79EB70A960FB6F8949EBF0FBE8DBF77
:1009800013C088309105A105B10529F08E3091057D
:10099000A105B105E1F660EA71E002C067E771E028
:1009A00088E493E00E94E62788E493E0089566E8EF
:1009B00071E0F6CF80E091E00895CF93C0E28C33F0
:1009C000910520F4FC01E053FE4FC0811F92CF93AC
:1009D0009F938F93FB0180811F928F9381811F9240
:1009E0008F938FEB91E09F938F931F9288E18F936A
:1009F0008FE392E09F938F930E94ED278DB79EB770
:100A00000E960FB6F8949EBF0FBE8DBF8091280240
:100A100090912902449761F41092290210922802C1
:100A2000EAE2F2E080E2819392E0EE33F907D9F74F
:100A30008091280290912902FC01E65DFD4FC08360
:100A400001969093290280932802CF9108958FE315
:100A500092E008958AE292E008950F9303E022E085
:100A600041E00E94B1050F910895CF93C82F0E94D5
:100A7000F014811101C0C2E08C2FCF9108950E9423
:100A8000F014882389F00E948E0460E00E94DA1836
:100A90000E94270560E00E94DA180E942A0560E0A3
:100AA0000E94DA1880E008950E94DA0460E00E9453
:100AB000BE18F8CFFB01228121110E94DD0481E0E4
:100AC000089581E008950C945A0508950C946505E5
:100AD0001F93CF93DF9300D000D00F92CDB7DEB736
:100AE00049835A836B833091570289819A813111EE
:100AF0001DC06623B9F02223A9F00E94480B182FCD
:100B0000682F89819A810E94F10A69817A81812FF7
:100B10000F900F900F900F900F90DF91CF911F913A
:100B20000C94CF110E941F0B182FEFCF0E94480B7F
:100B300069817A81EDCFFC01262F4081518162814C
:100B4000738184810C94680581E00895CF93DF93CD
:100B5000EC0160E00E949B05BE01DF91CF910C94F7
:100B600066058F929F92AF92BF92CF92DF92EF92E3
:100B7000FF920F931F936B017C0181E090E0A0E056
:100B8000B0E04C015D0104C0880C991CAA1CBB1C80
:100B90004A95D2F7B501A4014C015D0104C0880C4F
:100BA000991CAA1CBB1C2A95D2F7482959296A29E5
:100BB0007B2904C0880F991FAA1FBB1F0A95D2F773
:100BC0008A019B010C211D212E213F2104171507AD
:100BD0002607370789F48C299D29AE29BF29BC0136
:100BE000CD011F910F91FF90EF90DF90CF90BF90BC
:100BF000AF909F908F90089580959095A095B09517
:100C00008C219D21AE21BF21EACF0E9405130E94B5
:100C100084060C942A130C942D1380E00E94850600
:100C20000C94FB19089508950E949C090E941306D4
:100C30002FEF84E39CE0215080409040E1F700C01A
:100C400000000C942B210F931F93CF93DF938C0103
:100C500061E00E949B05EC01B8010E9463058823B6
:100C6000A9F1B801CE010E94121C882379F1B801C4
:100C7000CE010E94521A882349F1B801CE010E9488
:100C80007C1B882319F1F8018281882361F0CB3520
:100C9000FDE5DF0721F170F4C115ECE5DE07A1F0F9
:100CA000CF3DDC45C9F0C801DF91CF911F910F9175
:100CB0000C946105CC358DE5D807A1F0CD35DD4527
:100CC00091F70E945E0FEFCF0E94140680E0DF9143
:100CD000CF911F910F9108950E941210F7CF0E949B
:100CE000670FE1CF0E946A0FDECF0C9412060E94BC
:100CF000971F0E9485060C94750608950C947D0636
:100D000081E008950C9480060895CF93C82F0E9427
:100D10007E068C2FCF910C948206CF93DF93CDB7B4
:100D2000DEB72B970FB6F894DEBF0FBECDBF4F8353
:100D3000588769877A878B8761110E94B90E1E8256
:100D40001D8285E0FE013796DE01119601900D921D
:100D50008A95E1F78C819D81892B89F449815A819B
:100D60006B817C818D819E810E94DA0D2B960FB65E
:100D7000F894DEBF0FBECDBFDF91CF91089589817A
:100D80009A8189238F3F51F3CE0101960E94A405D9
:100D90008111E4CFEBCFFC01808191810C948A0B0F
:100DA000CF93C82F882329F18CEF8C0F813AA0F4C0
:100DB0006C2F80914201909143010E94F31F882380
:100DC00029F08C2F0E947B0E0E94DC0E8C2F0E943B
:100DD000740ECF910C94DC0E80E28C0F883048F4B6
:100DE000C77081E001C0880FCA95EAF70E949C0E87
:100DF000F0CFCF910895882329F19CEF980F913A75
:100E000020F40E947B0E0C94DC0E90E2980F983038
:100E100050F4877091E001C0990F8A95EAF7892F05
:100E20000E94A20EF0CF9BE5980F933020F490E043
:100E300080E00C94B51F885A873120F490E080E060
:100E40000C94CB1F08951F93CF93DF93182FEB01C2
:100E50000E94D006209731F4812FDF91CF911F910E
:100E60000C94FB068FE99FE00197F1F700C00000AA
:100E70002197F0CF70E060E0893311F460E570E015
:100E80000C942307882321F00E949C0E0C94DC0E06
:100E90000895882321F00E94A20E0C94DC0E089580
:100EA000BF92CF92DF92EF92FF920F931F93CF9357
:100EB000DF936C01D62FC72FFC011281F580F294CD
:100EC0009FE0F9220E94920EE82E8823B9F0E12ECD
:100ED0001123A1F08C2F807F803421F080E28D0FD0
:100EE0008830D0F08091650382FD16C082E00E94B8
:100EF0002D0F0E94920E91E0E82EE926BC2EB294AE
:100F00008FE0B822FBE0FB1508F468C0EB2DF0E0A1
:100F1000E95FF44D0C94C127E12CF0CF0C2F0F703A
:100F2000C07F11F00295007F112399F0002359F042
:100F300080E28D0F883010F0D11107C0802F0E9401
:100F40009C0E0E94DC0E8D2F41C0802F0E94AC0EA3
:100F5000F8CF8D2F0E94FB06002309F43FC080E2EA
:100F60008D0F883010F0D11104C0802F0E94A20E86
:100F700003C0802F0E94B20E0E94DC0E2FC00C2FE7
:100F80000F70C07FC03211F00295007FDD2381F029
:100F9000D13009F469C0112309F473C0FF2009F4AA
:100FA00069C0F601858180FFCECF8F70858362C0D6
:100FB0008091650382FF38C0112359F0002329F086
:100FC000802F0E949C0E0E94DC0E80E00E94D006C2
:100FD00005C080E00E94FB060111C7CFEB2DE85051
:100FE000FF0B349720F40E94971F0E948506EE2085
:100FF00009F44BC10E948E0E80FD47C1F60112829A
:101000000E94880E0E94550AC6010E9466090E942D
:10101000880EDF91CF911F910F91FF90EF90DF909D
:10102000CF90BF900C94760A112389F0F11006C07E
:101030000E94BF0E802B0E944207D0CF21E0F21207
:10104000F7CF0E94BF0E802B0E94C50EC7CFF110B4
:1010500006C00E94D20E802F0E944907BFCF31E008
:10106000F31609F4BBCFF5CF112331F085E08F15CE
:1010700008F4B4CF802FDFCF94E09F1508F4AECFF3
:10108000EACFFF2041F3D93349F4FFEF27EE33E0F5
:10109000F15020403040E1F700C000008D2F0E9449
:1010A000FB069CCF8C2F837009F041C0111196CFA5
:1010B0004D2F429546954770440F440F0D2F0F70EA
:1010C00010E030E020E0042E04C0000F111F221FAA
:1010D000331F0A94D2F760E070E0CB01D4FF0FC059
:1010E0006FE070E080E090E004C0660F771F881F1B
:1010F000991F4A95D2F76095709580959095C69501
:10110000C695C370602B712B822B932BC23049F094
:1011100058F4C13019F00E94090A60CF0E94F70903
:101120005DCF0E941B0A5ACF0E94F50957CF8695C2
:10113000112311F08C2F8170882309F44FCF4D2F8C
:10114000429546954770440F440F0D2F0F7010E0E5
:1011500030E020E0042E04C0000F111F221F331FB7
:101160000A94D2F760E070E0CB01D4FF0FC06FE0CB
:1011700070E080E090E004C0660F771F881F991F21
:101180004A95D2F76095709580959095C695C695CD
:10119000C370602B712B822B932BC23049F058F413
:1011A000C13019F00E94CC0A19CF0E94BA0A16CF9A
:1011B0000E94DE0A13CF0E942F0A10CFCF70112396
:1011C00029F08C2F0E94550A8D2F35CF8D2F0E942C
:1011D00049078C2F0E94760A01CFD23F51F160F46B
:1011E000D03FB9F0D13F81F0112309F449C0F1108B
:1011F000AACE8C2F8F7121C0D33F11F1D43FA1F71C
:101200008091650382FF26C08C2F8F71112311F30B
:1012100014C0112349F084E08F1508F4DFCE8C2F21
:101220008F710E94990ADACE95E09F1508F4D6CE08
:10123000F6CF8C2F8F711111CDCF0E94550ACECED3
:10124000112329F08C2F8F710E94400AC7CE0E9473
:101250003B0AC4CE112349F0CF718C2F0E94550A4E
:1012600063E08C2F0E94120FB9CE81E00E942D0FF7
:10127000E1E0EF1508F0B2CE82E00E942D0FAECE75
:10128000F11001CF8C2F8F71A5CFDF91CF911F91DE
:101290000F91FF90EF90DF90CF90BF9008950F9344
:1012A0001F93CF93DF93EC01688179818A810E943B
:1012B000940B8C010E94F00A0E94F409B801CE013F
:1012C000DF91CF911F910F910C945007CF93DF9333
:1012D000EC018B819C81892B29F08881998189235C
:1012E0008F3F59F4DF91CF910895CE010E944F09AD
:1012F000CE01DF91CF910C94A605CE010E9423066A
:101300008111F3CF0E94920E882361F38A81882392
:1013100049F38091650382FDE5CF82E0DF91CF91B3
:101320000C942D0F0E94B90E0E94BC0E0C94DC0E82
:101330000E94820E0C9492090E94A90E0C949809A6
:10134000E92FE295EF70E250EE3070F4F0E0ED5EE0
:10135000F44D0C94C127803F19F020F4883E20F40E
:1013600081E00895843FE1F380E00895883EC0F372
:10137000813FD1F7F5CF93FB882780F90895FC01D1
:10138000808191810E948A0B0C94A009CF93DF93F6
:1013900000D000D00F92CDB7DEB70F900F900F9016
:1013A0000F900F90DF91CF910895CF93DF9300D0EE
:1013B00000D000D0CDB7DEB726960FB6F894DEBFCA
:1013C0000FBECDBFDF91CF91089508950C94E5092C
:1013D0000E94E609609384027093850280938602DE
:1013E000909387020C94920908950C94E8090F9346
:1013F0001F93009184021091850220918602309102
:101400008702602B712B822B932B1F910F910C94D1
:10141000E8090F931F930091840210918502209197
:1014200086023091870260237123822393231F91C8
:101430000F910C94E8090F931F930091840210916F
:1014400085022091860230918702602771278227CA
:1014500093271F910F910C94E8090C942D050E947D
:101460002D0A609380027093810280938202909390
:1014700083020C94920960E070E0CB010C942F0A77
:101480000F931F9341E050E060E070E08A019B0100
:1014900004C0000F111F221F331F8A95D2F7C90104
:1014A000B8011F910F910C942F0A0F931F9341E0E5
:1014B00050E060E070E004C0440F551F661F771FC6
:1014C0008A95D2F78091800290918102A091820248
:1014D000B09183028A019B01082B192B2A2B3B2BED
:1014E000C901B8011F910F910C942F0A0F931F93FC
:1014F00041E050E060E070E004C0440F551F661FFB
:10150000771F8A95D2F7CB01BA01609570958095C7
:101510009095009180021091810220918202309179
:10152000830260237123822393231F910F910C94D4
:101530002F0A0F931F9341E050E060E070E004C079
:10154000440F551F661F771F8A95D2F7809180023E
:1015500090918102A0918202B09183028A019B0145
:10156000082719272A273B27C901B8011F910F9186
:101570000C942F0A0F931F93009180021091810207
:101580002091820230918302602B712B822B932B4E
:101590001F910F910C942F0A0F931F9300918002BB
:1015A0001091810220918202309183026023712385
:1015B000822393231F910F910C942F0A0F931F9353
:1015C0000091800210918102209182023091830269
:1015D00060277127822793271F910F910C942F0A60
:1015E0000895E92FEE0FE90FEE0F8E0F982F9770E9
:1015F00041E001C0440F9A95EAF786958695869555
:1016000095E0899FF0011124E85AFD4F30E020E079
:1016100070E05191DF011197CB01022E02C0969527
:1016200087950A94E2F78170819585278423852721
:101630008C932F5F3F4F2530310559F70895E92FDF
:10164000EE0FE90FEE0F8E0F982F97708695869507
:10165000869525E0829FF0011124E85AFD4F50E065
:1016600040E080E0219130E0092E02C036952795B8
:101670000A94E2F721703327042E01C0220F0A9446
:10168000EAF7822B4F5F5F4F4530510559F70895B8
:10169000BF92CF92DF92EF92FF920F931F93CF935F
:1016A000DF938C01C0908002D0908102E090820292
:1016B000F09083028091840290918502A09186022D
:1016C000B0918702C82AD92AEA2AFB2ACFE1D0E0C2
:1016D000BC2ED701C6010C2E04C0B695A7959795D0
:1016E00087950A94D2F780FD0EC0219788F7B12C18
:1016F0008B2DDF91CF911F910F91FF90EF90DF9095
:10170000CF90BF900895B8018C2F0E94E3110197EC
:1017100061F3EECFCF93DF93EC010E94480BBE0143
:10172000DF91CF910C94E3111F93CF93DF93EB01E3
:1017300090915702992331F0CB01DF91CF911F9106
:101740000C948A0B882379F0CB010E94480B182F48
:10175000682FCE010E94F10ABE01812FDF91CF9147
:101760001F910C94E311CB010E941F0B182FF4CF93
:101770001F93CF93DF93C091880216E08091890276
:101780008C1304C0DF91CF911F910895D0E01C9F6E
:10179000F0011D9FF00D1124E657FD4F408151814E
:1017A00062817381848195810E94D5092196C770D9
:1017B000E5CF4091BA025091BB026091BC0270919A
:1017C000BD028091BE029091BF020C94D509FF9298
:1017D0000F931F93CF93DF938091BF02807FD1F44B
:1017E0008091BC028823B1F0809188021091890217
:1017F0006091BA027091BB02A091BD02B091BE028D
:10180000062F0723C0914001D091410196E0F92EA7
:10181000181306C0DF91CF911F910F91FF9008958B
:1018200090E0109711F00F3F19F401968770F0CFF8
:10183000F89E9001F99E300D1124F901E657FD4FF5
:1018400041814713F2CF40814613EFCF42814111CE
:10185000ECCF438154814A1B5B0B4C175D0728F783
:101860008091BF028F7080618093BF02F901E157C0
:10187000FD4F80818F70806180838AEB92E00E94AF
:101880006609DF91CF911F910F91FF900C94B80BD7
:10189000AF92BF92CF92DF92EF92FF920F931F937E
:1018A000CF93DF93CDB7DEB761970FB6F894DEBF65
:1018B0000FBECDBF8C0185E0F801DE011D960190C1
:1018C0000D928A95E1F7F801E2808AEBC82E82E05A
:1018D000D82E6091BD027091BE026115710509F4A8
:1018E0004DC19091BA022091BB02892F82238F3F74
:1018F00009F444C140815181A380B480F090BC02BE
:10190000F501E61BF70BBF01E0914001F0914101A9
:10191000FF2009F404C18091BF02382F307F6E1779
:101920007F0708F0BDC0311179C0FE2C251323C0FC
:10193000941321C0E1101FC08F7080618093BF029B
:101940000E94D90BC6010E9466098091BF02F8016E
:1019500085838F2D61960FB6F894DEBF0FBECDBF85
:10196000DF91CF911F910F91FF90EF90DF90CF907B
:10197000BF90AF900895AB2829F0842F85238F3F27
:1019800009F015C180E0F82FF170DF2E80FF3CC018
:10199000809188022091890236E0821315C04D871C
:1019A0005E878D859E850E948A0B292F22952F7038
:1019B0002230F0F0243018F59F70F1F0F801958195
:1019C000907FD1F4D12C1EC090E0389FF001399F58
:1019D000F00D1124E657FD4F6181651306C060814B
:1019E000641303C062816E110FC001968770D5CF5A
:1019F0009F7011F0882331F3805E883018F3C8019E
:101A00000E946609FD2CA5CFEE2009F4A2CF80919B
:101A1000BF0281608093BF02F12C9BCF251314C0BD
:101A2000941312C0E11010C0F8018583C8010E9410
:101A3000660986E0F801AAEBB2E001900D928A9562
:101A4000E1F70E94D90B85CFC8010E94BF09882306
:101A500019F1EE2009F18091BF02803270F02091DF
:101A6000BA023091BB0238872F831986BB86AA86BB
:101A70008C87CE0107960E94660986E0F801AAEBE2
:101A8000B2E001900D928A95E1F70E94E70B0E9467
:101A9000D90BFF24F3945DCFC8010E946609F9CFEA
:101AA000311113C07A2DB98AA88A6E2D89890E94B6
:101AB000C6098AEB92E00E94660986E0F60111925F
:101AC0008A95E9F70E94D90BA7CF25130FC094136D
:101AD0000DC0E1100BC0F8018583C8010E946609A2
:101AE00086E0F60111928A95E9F733CFC8010E948A
:101AF000BF09882389F2EE2079F28091BF028032FB
:101B000008F4BBCF2091BA023091BB023A832983FB
:101B10001B82BD82AC828E83CE010196ACCF6E1744
:101B20007F07F8F4FE2CEE2009F4B6CF25130BC086
:101B3000941309C086E0F801AAEBB2E001900D927F
:101B40008A95E1F706CFC8010E94BF09811195CFA0
:101B50008091BF0281608093BF02C8010E94660924
:101B6000F8CE7A2DB98AA88A6E2D89890E94C60975
:101B700086E0F60111928A95E9F763CFEE2009F429
:101B80008BCFC8010E94BF09F82E882309F484CFA7
:101B900086E0F801AAEBB2E001900D928A95E1F798
:101BA0008AEB92E00E94CB060E94E70B4ACF81E0CD
:101BB0008E25E9CE1F93CF93DF93CDB7DEB72C9759
:101BC0000FB6F894DEBF0FBECDBF4F83588769872D
:101BD0007A878B879C87CE0107960E94480C8823C2
:101BE00069F08A859B85892B39F04F815885842F30
:101BF00085238F3F09F071C016E05FC086E0FE01CB
:101C00003796DE01119601900D928A95E1F78A854B
:101C10009B85892B89F38F81988589238F3F61F379
:101C20002091890230E0C90101968770992740917F
:101C300088024817190671F40E949C0910928902C3
:101C40001092880286E0EAEBF2E0DF011D928A95AD
:101C5000E9F7D2CF96E0929FD001939FB00D112467
:101C6000A657BD4FFE01319601900D929A95E1F76E
:101C7000809389020E94B80BBFCF819FC0011124BD
:101C800086579D4F0E94480C8823E9F0E091880216
:101C90001E9FF0011124E657FD4F40815181628162
:101CA0007381848195810E94D5098091880290E09A
:101CB000019687709927809388028091880290917D
:101CC00089028913DACF2C960FB6F894DEBF0FBEC7
:101CD000CDBFDF91CF911F91089569857A858B855E
:101CE0009C850E94D50988CF682F809142019091F0
:101CF00043010C942920682F809142019091430167
:101D00000C942B2080914201909143010C942D2042
:101D10008091C00285958595859508958091C00232
:101D2000877008959091C002977081E009F480E077
:101D300008958091CC0208959091CC02892B8093D4
:101D4000CC02089580959091CC0298239093CC0278
:101D500008951092CC0208959091CB02892B809324
:101D6000CB02089580959091CB0298239093CB025B
:101D700008951092CB0208951092CA02089580919E
:101D8000C102089508950C94C20E9091650392FDCE
:101D900008C09091C102981721F08093C1020C9461
:101DA000C30E08958091C102882329F01092C102C8
:101DB00080E00C94C30E0895E0914201F09143013C
:101DC0008091CC028083E0914201F09143018081B7
:101DD0009091CB02892B8083E0914201F0914301E5
:101DE00080819091CA02892B80839091C1029923AE
:101DF00081F0E0914201F09143018081892B808341
:101E000080914201909143010E94E11F81110E9443
:101E1000D20E80914201909143010C94AA1F089523
:101E20000C940F0F9091650392FD10C098E0899F6C
:101E300090011124622B6093C0020E94550A809188
:101E4000C0028595859585950C94100F0C94550AC4
:101E50001092C00280E00C94100F9091C002809507
:101E600089238093C002282F277091F4282F082EF1
:101E7000000C330B9217130659F09091650392FDF5
:101E800007C08595859585950E94760A0C94280F44
:101E900008959091650392FB222720F9281769F095
:101EA00080FB92F9909365038091640390916503A0
:101EB0000E948E0F82E00C942D0F0895809165038F
:101EC00082FB882780F991E089270C94490F81E0F3
:101ED0000C94490F80E00C94490F90E080E00E9440
:101EE000942A21E0893E9E4F09F020E0822F089538
:101EF00082E090E00C948C2A83E090E00C948C2A91
:101F0000CF9384E090E00E948C2AC82F82E290E078
:101F10000E948C2A982F8C2FCF910895CF93C92F90
:101F2000682F84E090E00E949A2A6C2F82E290E071
:101F3000CF910C949A2AAB01BC018FE090E00C94F5
:101F4000AC2AAB01BC0183E190E00C94AC2A60E0C8
:101F500070E0CB010C94A10F60E070E0CB010E9417
:101F60009B0F0C94A70F69EE7EEF90E080E00E943B
:101F7000B82A60E082E090E00E949A2A60E083E064
:101F800090E00E949A2A1092840210928502109288
:101F900086021092870260E084E090E00E949A2A14
:101FA00060E082E290E00E949A2A60E085E090E0A2
:101FB0000E949A2A60E086E090E00E949A2A6FEFE1
:101FC00087E090E00E949A2A40E050E0BA0188E061
:101FD00090E00E94AC2A60E08DE090E00E949A2A96
:101FE00040E050E0BA0188E190E00E94AC2A60E055
:101FF00087E190E00E949A2A40E050E0BA018CE12B
:1020000090E00E94AC2A70E060E080E290E00E94E4
:10201000B82A40E050E0BA0188E190E00E94AC2A82
:102020000C94AC0F0C94B30F682F8EE090E00C94DE
:102030009A2A0E94D0206093DC027093DD02809384
:10204000DE029093DF026093D8027093D9028093EE
:10205000DA029093DB02089585B7806885BF85B763
:10206000806885BF0895089508950C9433100895ED
:102070000C9437100E942C1082E093E10E948D1F77
:102080000E9434100C9435100C94F01408950895A7
:102090000E9446100C9447100E94BB200E94C1125F
:1020A0000E94D8130E94351780E00E9493170C9469
:1020B00038109F92AF92BF92CF92DF92EF92FF9231
:1020C0000F931F93CF93DF93CDB7DEB72A970FB649
:1020D000F894DEBF0FBECDBF0E946614C82E8111DA
:1020E0000E9419108EECA82E82E0B82E10E000E0BD
:1020F000902E802F0E942F13E82EF501F1905F01A2
:10210000F81609F452C08091E00281FD0E94351357
:102110008F2D8E25D12CFF24F394982F9F2109F425
:102120003FC00E944410882399F0DE829F82EF20F6
:1021300081E009F480E088870E94C4208160782FC4
:102140009A8789874E815F8168858A850E948D067E
:10215000F801E253FD4F8081F826F0820E94181AA0
:10216000C1100E94DF180E94971F9091CD0289171D
:1021700099F10E94971F8093CD022A960FB6F8948A
:10218000DEBF0FBECDBFDF91CF911F910F91FF90AA
:10219000EF90DF90CF90BF90AF909F900C9485060A
:1021A000D394FF0CF6E0DF12B8CF0F5F1F4F0A3059
:1021B000110509F09DCF8FEF89838A831B820E94CE
:1021C000C4208160782F9D838C8349815A816B81E3
:1021D0008D810E948D06C2CF2A960FB6F894DEBF7D
:1021E0000FBECDBFDF91CF911F910F91FF90EF9068
:1021F000DF90CF90BF90AF909F900895CF93DF93E3
:102200000E94E711EC01811523E5920790F58115F5
:1022100032E5930708F096C081159042C8F4C115C5
:1022200081E0D80788F4C53AD10548F4C430D10517
:1022300058F4C130D10541F0D0E0C0E005C0CE0176
:10224000805E91090897C0F7CE01DF91CF91089584
:10225000C11591E5D90708F070C0C11520E5D20776
:1022600008F04EC0C11530E4D30730F3DF70D06AF8
:10227000EBCF811546E59407F0F4C11585E5D80745
:1022800008F075C0C11594E5D90708F06BC0CE0100
:102290008370992721E030E002C0220F331F8A9516
:1022A000E2F7C695C69590E2C99FE0011124C22BC2
:1022B000D32BDA68C9CF81152AE5920778F4811506
:1022C00039E5930708F05EC0811548E5940708F4E6
:1022D000B3CFD82FCC27C06FD06AB6CF9056811518
:1022E000904208F0A9CF8D2F8F710E947E1290E04E
:1022F000982F882788279F719C012C2BE90140C0CB
:10230000CE01E4E096958795EA95E1F783702C2F4E
:1023100026952695237040E2249F90011124382BA6
:102320008C2F8370C1E0D0E002C0CC0FDD1F8A95F6
:10233000E2F7C22BD32BDC6887CFDC2FCC27C16F11
:10234000D06A82CF8370992721E030E002C0220F4B
:10235000331F8A95E2F7C695C69580E2C89FE001D3
:102360001124E7CFDC2FCC27C46FD06A6DCF8C2F20
:102370000E947E12C82FD0E0DC2FCC27CC27DF7143
:10238000D06262CF8F700E947E1234E0D695C795DE
:102390003A95E1F7CF709C2FEC01D06955CF972F7C
:1023A00070E026E0929F600D711D1124FB019CE3FB
:1023B000899FE00DF11D1124EE0FFF1FE455FF4F23
:1023C0008591949108950E94CF110C94FE1082384B
:1023D0009105B1F1B0F48133910509F475C048F469
:1023E0008932910509F469C08A32910509F473C0F4
:1023F00008958533910509F459C08933910501F198
:102400000895833E9105A9F138F4803E9105F9F0D5
:10241000823E910549F10895863E9105A9F1873ED6
:102420009105C9F1843E910519F52091650321FFBD
:102430001FC08091640384FD14C087EE90E008956E
:10244000209164032370A1F080EE90E00895209124
:10245000640320FD47C03091650330FF09C024FFAD
:1024600044C090E080E004C02091640322FDF7CFD7
:1024700008952091640322FD3BC03091650330FD37
:10248000E3CF24FFF5CFEDCF2091640323FFF0CFFE
:1024900024FDE7CFD2CF2091640323FD2CC03091DF
:1024A000650331FFEECF84EE90E008952091640340
:1024B00025FFDECF89E290E008952091640325FF97
:1024C000D7CF85E390E008952091640326FFD0CF15
:1024D0008AE290E008952091640326FFC9CF81E34A
:1024E00090E0089589E390E0089583EE90E00895E8
:1024F00082EE90E0089586EE90E008959091640356
:1025000092FF06C0282F28712830F9F4877F846055
:1025100093FF06C0282F28712831F1F4877E84614B
:102520002091650320FF06C0382F38713830D9F468
:10253000877F816021FF06C0282F28712831D1F4C0
:10254000877E816194FD877E0895282F2471243031
:10255000F9F68B7F8860DCCF282F2471243101F7B6
:102560008B7E8861DDCF382F3171313019F78E7F46
:102570008860E0CF282F2171213121F78E7E88617C
:10258000E1CF1092600310926103109262031092E7
:1025900063030895CF92DF92EF92FF926B017C016B
:1025A0000E94F01481110EC00E94D020C61AD70AD2
:1025B000E80AF90AC0926003D0926103E0926203D4
:1025C000F0926303FF90EF90DF90CF9008950F9308
:1025D0001F930E94F014882321F01F910F910C94F7
:1025E000D0200E94D02000916003109161032091BF
:1025F000620330916303600F711F821F931F1F914D
:102600000F91089580E0089508950E946D0F811143
:1026100002C00E9412100E94780F8093E0020E9474
:10262000800F90936503809364030E9404130E94BB
:102630007C0F682F70E090E080E00E94F5096091C7
:1026400080027091810280918202909183020C94A9
:102650002D0A08950C94291308950C942C13E82F37
:10266000F0E0E059FC4F80810895089580EA8A9552
:10267000F1F7089500C008950C943613F894E82FEC
:10268000E295EF70F0E031A1282F2F7081E090E00B
:1026900001C0880F2A95EAF7982F9095932391A36C
:1026A00092A1892B82A37894089508950C945513D0
:1026B000CF93DF93C2E1D2E089918F3F11F00E9466
:1026C0003E1382E0C731D807B9F7CCE0D2E0899158
:1026D0008F3F11F00E943E1382E0C231D807B9F754
:1026E000DF91CF910895CF92DF92EF92FF920F93F7
:1026F0001F93CF93DF93EC01D62E062F10E0C80175
:102700008E5E9D4F7C01FC0180818F3F09F445C0A6
:10271000F894E82FE295EF70F0E091A18F7021E03E
:1027200030E001C0220F8A95EAF7892F822B81A31E
:1027300082A12095282322A378940E943A13ECE0EA
:10274000F2E042E152E031E0C12C21912F3F71F1E2
:10275000A22FA295AF70B0E090968C9190E02F7070
:1027600002C0959587952A95E2F780FD1FC0832FBB
:10277000C82A330F4E175F0741F7F70180818F3F5B
:1027800011F00E943E1361E0C11001C060E08D2D88
:102790000E943C13C00FD11FC882DF91CF911F91BF
:1027A0000F91FF90EF90DF90CF90089580E0E0CF01
:1027B0000E940A15809144018091440195E08111A5
:1027C00090E090937B0385E0891B80937A030E94BD
:1027D00058138AE0E0E7F3E0DF01982F1D929A9505
:1027E000E9F7E6E6F3E0DF011D928A95E9F785E077
:1027F0000E94B9140E9405060C941415EF92FF92E2
:102800000F931F93CF93DF9300D000D00F92CDB7DB
:10281000DEB70E94F014F82E60917B03882309F440
:1028200048C085E0E82E8E010F5F1F4FF8018E2D06
:1028300011928A95E9F7862F90E0B80180599C4F54
:102840000E9422158823F9F080917A0390E045E0F8
:1028500050E0B80180599C4F0E94D02721E020937E
:10286000E102892BD1F4F12C0E940B068F2D0F90E1
:102870000F900F900F900F90DF91CF911F910F91BC
:10288000FF90EF9008958091E102882361F3F801B1
:102890001192EA94E9F71092E102A0917A03B0E074
:1028A000A059BC4F85E0F80101900D928A95E1F79F
:1028B000DBCF70E060597C4F80917A0390E08059C3
:1028C0009C4F0E94AF150E945613D0CFEF92FF92FB
:1028D0000F931F93CF93DF93CDB7DEB72A970FB631
:1028E000F894DEBF0FBECDBF8E010F5F1F4F8AE091
:1028F000F80111928A95E9F7F12C6F2DC8010E9419
:102900007313F394F5E0FF12F8CF4AE050E0B801FA
:1029100086E693E00E94D0277C0121E0892B09F410
:1029200020E0E114F10441F08AE0F801A6E6B3E00A
:1029300001900D928A95E1F760917B0370E06059F8
:102940007C4F45E086E693E00E94BA1481E090E077
:10295000EF2811F40E94FE132A960FB6F894DEBFFA
:102960000FBECDBFDF91CF911F910F91FF90EF90E0
:1029700008950895FF920F931F93CF93DF93F82E3E
:10298000092F162FD72FC42F222349F081E08093DF
:10299000E4020E94C4209093E3028093E2028091BB
:1029A000E4028823A1F08091E2029091E3020E9468
:1029B000DC20059760F0EF2DF02FA12FBD2FCE0F5B
:1029C000DF2FD11DEC17FD0741F41092E402DF91D7
:1029D000CF911F910F91FF90089581918D93F2CF28
:1029E0008091E702811107C00E949427882351F04B
:1029F00081E08093E70281E09091E702913009F055
:102A000080E0089582E08093E7020E948F27F3CF51
:102A10000C94F0140E940815809344010E94F01455
:102A200081110C94581508950E94F014811102C070
:102A30000C945A15089581E09091E8029A3008F0BC
:102A400080E008950F931F93CF93DF93EC018B01E8
:102A50008091E8028A30B8F4B801CE010E94AD1529
:102A6000C82F811122C08091E8028F3FB9F40E94E3
:102A7000C4209093E6028093E5028C2FDF91CF91E2
:102A80001F910F9108958091E5029091E6020E94B6
:102A9000DC20843F914000F7C0E0EFCF8F5F809350
:102AA000E8028A3020F7C1E0E8CF1092E802E5CFD3
:102AB0000C94CC1D0C94CF1DEF92FF920F931F939B
:102AC000CF93DF937901C82F880FDD0B4115510596
:102AD000A9F08AE08C9FF0018D9FF00D1124EB5B33
:102AE000FE4F8381948187519D4F228130E04217B0
:102AF000530708F49A01A9010E94DD27CE010E9424
:102B0000D91E892B11F501151105E9F08AE08C9F7A
:102B1000F0018D9FF00D1124EB5BFE4F458150E0DD
:102B20000417150708F4A8018AE08C9FF0018D9F17
:102B3000F00D1124EB5BFE4F6681778167517D4F6D
:102B4000C7010E94DD2781E001C080E0DF91CF91C5
:102B50001F910F91FF90EF9008950C94C6160C945E
:102B6000E2160F931F93CF93DF9300D000D0CDB721
:102B7000DEB7609100037091010380910203909190
:102B800003030E94EB2011E0643671058105910575
:102B900018F10E94E7126E5F7F4F8F4F9F4F69833E
:102BA0007A838B839C8310E000E030E020E044E0F7
:102BB00050E0BE016F5F7F4F82E00E945C15182FCE
:102BC000882351F00E94D02060930003709301038A
:102BD0008093020390930303812F0F900F900F9027
:102BE0000F90DF91CF911F910F910895AF92BF92F7
:102BF000CF92DF92EF92FF920F931F93CF93DF93C9
:102C000000D000D000D0CDB7DEB77B01C0901C0251
:102C1000D0901D0201E010E09E012A5F3F4F50E07E
:102C200040E070E060E080E00E945C15182F88238F
:102C300009F448C056018FEFA81AB80A6091FC0247
:102C40007091FD028091FE029091FF020E94EB20A4
:102C5000643671058105910568F105E010E09E017B
:102C60002F5F3F4F50E040E070E060E081E00E9465
:102C70005C15D82E65E070E0C5010E94361711E0A2
:102C80009E81981310E01D2141F10E94D020609395
:102C9000FC027093FD028093FE029093FF0285E098
:102CA000FE013196A7EFB2E001900D928A95E1F70F
:102CB00011E013C065E070E0C5010E9436179E81E7
:102CC0008913CBCF85E0F6013196DE011196019094
:102CD0000D928A95E1F71111E2CF85E0E7EFF2E07E
:102CE000D70101900D928A95E1F7812F26960FB6B4
:102CF000F894DEBF0FBECDBFDF91CF911F910F9132
:102D0000FF90EF90DF90CF90BF90AF900895AF927B
:102D1000BF92CF92DF92EF92FF920F931F93CF93C8
:102D2000DF937C015B016A010E941B1501E010E04A
:102D3000882311F00AE010E0C1E0D0E0F894B5017A
:102D4000C701F60109957894811104C021960C17EA
:102D50001D075CF4DF91CF911F910F91FF90EF90D1
:102D6000DF90CF90BF90AF900895CC9F9001CD9F02
:102D7000300D300D112490E080E045E34A95F1F7E5
:102D80000000019682179307C1F7D8CF0F931F93C6
:102D9000CF93DF93EC018B0146EF55E10E9487163C
:102DA000882351F041EB55E1B801CE01DF91CF917D
:102DB0001F910F910C94871680E0DF91CF911F91A6
:102DC0000F9108950F931F93CF93DF93F894C091C1
:102DD0001C02D0911D02CE01019625E0FB01DC0111
:102DE00001900D922A95E1F765E070E00E94361798
:102DF00088837894F8946E817F8188859985009185
:102E0000F3021091F4022091F5023091F60260175E
:102E100071078207930751F06093F3027093F402F5
:102E20008093F5029093F6020E94CA127894DF9183
:102E3000CF911F910F9108950E9475220E944C100E
:102E40000C9481220E9485220E9459100C949F228A
:102E50000E944E200E945C220E943A100E941C1781
:102E60000E9422170E944810FBCF0895FC01680FB2
:102E7000791F8FEF91E36E177F0709F40895219171
:102E8000822728E030E087FF06C0880F892721507D
:102E90003109C9F7F0CF880FFACFCF92DF92EF92C6
:102EA000FF920F931F93CF93DF936C017B0164E636
:102EB00070E088E70E946A1CEC0197FD12C010E0E8
:102EC00000E0F601E00FF11F849164E670E00E94DB
:102ED000E41CEC01892B29F40F5F1F4F0E151F0511
:102EE00081F70E94671DCE01DF91CF911F910F9155
:102EF000FF90EF90DF90CF9008950895EDE7F3E015
:102F000080E092E0DF019C011D9221503040E1F70A
:102F1000F0938405E09383058FEF9FEF9093300348
:102F200080932F0308950E947D170E94350580939A
:102F30002B0380FD0FC080E880932A030E94641C4D
:102F40006DE070E083EA92E00E944D17892B21F03A
:102F500080E0089580E2F0CF80912B0363E070E081
:102F600081FD26C080EA92E00E944D17892B81F7EF
:102F70006DE070E080E992E00E944D17892B41F7E7
:102F80000E94D020605A75418F4F9F4F60937F05FC
:102F90007093800580938105909382050E947E172F
:102FA00081E080932E0380932D0310922C030895CB
:102FB0008DE992E0D9CF20912A0336E0839FC001AA
:102FC0001124629F800D911D1124811522E092072A
:102FD00014F090E080E083589C4F90938405809398
:102FE0008305089520918305309184052757334048
:102FF00040912A03642F70E0C9010E94AD27481B4D
:10300000463010F4240F311D211582E0380710F0EE
:1030100030E020E023583C4F309384052093830513
:1030200008951F93CF93DF93162F8A3031F481E0F8
:10303000DF91CF911F910C948B188D3011F480E0AB
:10304000F7CFC0918305D091840596E0FE01A4E0FE
:10305000B3E001900D929A95E1F7803EC8F086E0CA
:10306000FE0111928A95E9F711111EC0C0918305E6
:10307000D091840546E050E0BE0184E093E00E94D8
:10308000D027892BF9F4DF91CF911F910C94F2177F
:10309000F6E08F9FB001112460557D4F46E050E06F
:1030A000CE010E94C727E0CFE0918305F09184050F
:1030B0009F012A5F3F4F2E173F07C1F28081809505
:1030C0008193F9CFCD57D340CE0125E096958795D2
:1030D0002A95E1F721E030E0A90102C0440F551F15
:1030E0008A95E2F7CA0140912F0350913003842B57
:1030F000952B259645E0D695C7954A95E1F702C0F0
:10310000220F331FCA95E2F7822B932B9093300343
:1031100080932F03B8CFCF93382FE0918305F091A0
:103120008405ED57F34020912A03622F70E0CF0110
:103130000E94AD27281B822F332369F066E00E948E
:10314000A127C82FC15010F4CF91089560E080E20C
:103150000E941118F7CF9F01280F311D2115324011
:1031600018F080E0F0E0E0E08E0F9F2F911D835873
:103170009C4F9093840580938305E6CFFF920F9335
:103180001F93CF93DF93EC01F62EFC0101900020FA
:10319000E9F78F0101501109C017D10730F0DF9115
:1031A000CF911F910F91FF9008956F2D89910E94EB
:1031B0001118F2CF0E94BE1881E00C948B188091F8
:1031C0002E03811103C080912D0308950E94D02009
:1031D000605A75418F4F9F4F60937F0570938005B4
:1031E000809381059093820580912D038111EBCF0F
:1031F00062E070E08EE892E00E944D17892B19F78B
:1032000081E080932D03DFCF2F923F925F926F92E8
:103210007F928F929F92AF92BF92CF92DF92EF9266
:10322000FF920F931F93CF93DF9380912E038823F8
:1032300069F020912F03309130032115310531F0D1
:1032400080912C0361E070E0882399F0DF91CF91A9
:103250001F910F91FF90EF90DF90CF90BF90AF90B4
:103260009F908F907F906F905F903F902F900895E8
:103270008F5F082F10E01B01082E02C0220C331CA8
:103280000A94E2F7A90142215321452B89F3909139
:103290002B0390FD44C08295880F80768093650152
:1032A0009801369527953695279520936801815E7C
:1032B000809366011092690124E630E047E050E017
:1032C00063E671E088E70E94131D892B09F0BECFE9
:1032D000A80125E0440F551F2A95E1F780912B03A3
:1032E00080FD2BC043585C4F04E610E020E230E044
:1032F00060E488E70E943A1D892B09F0A7CF0E945D
:10330000DF18E101C095D09580912F039091300393
:10331000C823D923D0933003C0932F0397CF880FAE
:10332000880F880F8093650110926801895F8093F0
:10333000660183E080936901BFCFEAE0F3E080E2B9
:10334000DF011D928A95E9F7A2E2B2E00EE112E0F8
:1033500086E2C82E82E0D82E97E0592E7724739407
:103360008D91E80129918E01240F352F311D2358AD
:103370003C4FE82FF0E0E65FFC4F90E080E0652CEA
:10338000681A872C082E01C0880C0A94EAF7790184
:10339000A12CE701B9907E01B820662D6A196770EB
:1033A000962E062E000C770BDB2D01C0DD0F9A94B4
:1033B000EAF77195619571096770772701C0B69436
:1033C0006A95EAF7BD2A6081962E9B289082A39485
:1033D00068E0A612DECF019631968830910579F625
:1033E000CA16DB0609F0BCCF04E610E020E230E0AC
:1033F0004AE053E07DCF80912D0390912E039111EF
:1034000003C091E089270895882369F062E070E0A5
:103410008CE892E00E944D17892B19F080912D03C2
:10342000089510922D0380912D03EBCF0C943F054E
:103430000F931F9380912E03882389F180917D053E
:1034400090917E050E94DC20C29760F00E94C4200B
:1034500090937E0580937D0560E080E00E94DB17FD
:103460000E94161A0E94041980912D038823B9F036
:103470000E94D02000917F05109180052091810548
:1034800030918205601B710B820B930B6F3F7F4F56
:103490008F4F9F4720F41F910F910C94FB191F91A0
:1034A0000F910895CF93DF93EC01FB018281882374
:1034B00009F420C1C430FDE5DF07C8F5CB3F9CE52A
:1034C000D90730F49E0122503C452431310598F54E
:1034D0000E94800F9093650380936403C031FCE5E4
:1034E000DF0709F4E0C008F061C0C8309CE5D907E7
:1034F00009F4CBC088F5C430FCE5DF0709F4B3C09C
:10350000E8F4C2309CE5D90709F4A7C080916403B0
:103510008260C330DC4509F4A3C0809164039091BC
:1035200065030E948E0F0E949C0980E004C0C23691
:10353000EDE5DE0769F2DF91CF9108958091640394
:103540008061C630FCE5DF0709F48AC008F48FC04B
:1035500080916403806284C0809164038D7FCC304D
:103560009CE5D90709F47CC070F4809164038C60F9
:10357000CA30FCE5DF0709F473C008F48AC0809103
:1035800064038E7F6DC080916403877FCE309CE59D
:10359000D90709F465C0809164038B7FCF30DC4587
:1035A00008F45EC0809164038F7E5AC0CD3FFCE575
:1035B000DF0709F474C040F5C4319CE5D90709F46C
:1035C0008AC058F4C231FCE5DF0709F474C008F47E
:1035D0006EC080916403837F43C0CB3F9CE5D907D5
:1035E00009F449C008F04DC0C531DC4509F095CF5C
:1035F0008091640382FB992790F921E0922790FB48
:1036000082F990FB83F92CC0C1308DE5D80709F40D
:1036100058C088F4809165038360CF3FECE5DE07F6
:1036200069F1809165038D7FC115DD4538F1809189
:1036300065038C7F23C0C3308DE5D80709F458C0DB
:1036400008F452C0C236DD4509F067CF909164039B
:10365000892F8F7E94FF806103C080916403816015
:10366000809364035ACF809164038460F9CF809182
:1036700064038860F5CF8091650381608093650362
:103680004CCF809165038260F9CF809164038064A0
:10369000E7CF0E949C09809164038068E1CF80910C
:1036A00065038E7FEBCF809164038F7DD9CF8091AE
:1036B00064038F7BD5CF0E949C09809164038F7730
:1036C000CFCF80916503982F909591708E7F892B35
:1036D00090FB81F9D3CF0E949C0990916403892FBC
:1036E00097FB87F98058BCCF81E00E94141015CF5A
:1036F00080E0FBCF81E01FCFCF93DF93EB018631DA
:103700009C4511F50E94990E9A81992399F08A7A25
:1037100091E009F490E090933103811109C089E2AE
:103720000E94740E0E94DC0E80E0DF91CF9108951C
:1037300085E3F6CF80913103811104C089E20E94B4
:103740007B0EF0CF85E3FBCF81E0EFCF0F931F938C
:10375000CF93DF93C42FD22FFC0182818823C9F03D
:10376000409334030E94C420909333038093320328
:1037700080E28C0F883008F050C0C77081E001C033
:10378000880FCA95EAF7DF91CF911F910F910C94A2
:10379000420710913403141335C080913203909185
:1037A00033030E94DC208436910560F5C0E2CD0F22
:1037B0001D17B9F080E2810F883040F4177081E066
:1037C00001C0880F1A95EAF70E944907C83048F4EB
:1037D00081E09D2F977001C0880F9A95EAF70E94AB
:1037E0004207802F0E943A07C830B8F4D77081E0B2
:1037F00001C0880FDA95EAF7DF91CF911F910F9101
:103800000C94490780E28C0F883038F4C77081E04F
:1038100001C0880FCA95EAF7EFCFDF91CF911F91D2
:103820000F9108950F939C01CB01243F4CE5340781
:1038300059F1A8F4293DFCE53F0701F12A3D4CE58B
:103840003407D1F1283D3C4591F406E221EE41EEEA
:1038500068ED7CE50E94A61B80E00F910895263F4D
:10386000FCE53F07E9F0B0F0273F3C45F9F0FC01EB
:103870008281882339F110923403EFCF07E225EEDD
:1038800045EE69ED7CE5E6CF06E221EE40EE64EF21
:103890007CE5E0CF07E225EE44EE65EF7CE5DACF8C
:1038A00006E221EE42EE66EF7CE5D4CF07E225EE9C
:1038B00046EE67EF7CE5CECF08E221E045EE6AED0B
:1038C0007CE5C8CF81E0C9CF1092B9008CE080932D
:1038D000B80008959F92AF92BF92CF92DF92EF927D
:1038E000FF920F931F93CF93DF93B82EEB010E94AB
:1038F000C4206C01EE24E394F12CC431D10560F0B6
:1039000025E0E22EF12CCF3FDC0731F0CE0164E15F
:1039100070E00E94AD277B0184EAA82E94E8992EDE
:103920001092BC00A092BC000E94C4208C01809127
:10393000BC0087FF0DC08091B900887F883039F1C5
:103940008091B900887F803111F10FEF1FEF09C01E
:103950000E94C420801B910B8E159F0540F30EEF33
:103960001FEFCF3FDC07E1F2C6010E94DC208C177D
:103970009D07B0F2C801DF91CF911F910F91FF9089
:10398000EF90DF90CF90BF90AF909F900895B0924E
:10399000BB009092BC000E94C4208C018091BC00AE
:1039A00087FF0AC08091B900887F883111F0803488
:1039B00061F610E000E0DECF0E94C420801B910B76
:1039C0008E159F0558F3CBCF0F931F93CF93DF93A3
:1039D000EB018093BB0084E88093BC000E94C4206C
:1039E0008C018091BC0087FF11C02091B900287F15
:1039F00081E090E0283211F490E080E0919581958B
:103A00009109DF91CF911F910F910895CF3FDC076E
:103A100041F30E94C420801B910B8C179D0708F373
:103A20008EEF9FEFEECFCF92DF92EF92FF920F9348
:103A30001F93CF93DF936B018A017901B9010E9433
:103A40006A1CE6010C0D1D1DC017D10761F424E9A5
:103A50002093BC00DF91CF911F910F91FF90EF90C9
:103A6000DF90CF90089597FDF2CFB70189910E9422
:103A7000E41CEACFCF92DF92EF92FF920F931F9355
:103A8000CF93DF93C62F6A017901B8010E946A1CA7
:103A900097FD0CC0B8018C2F0E94E41CE601EC0CD1
:103AA000FD1CCE15DF0511F097FF0CC024E9209313
:103AB000BC00DF91CF911F910F91FF90EF90DF90AD
:103AC000CF900895B80189910E94E41CEACF84E95F
:103AD0008093BC0008958EE14A9B02C08150E1F7BB
:103AE0004A9BFECF08955A9880E28A95F1F75A9A38
:103AF0000895FC013BE03A95F1F798E020E080E082
:103B000031E040E14A95F1F7880F4A9B02C081609D
:103B1000232742E04A95F1F7000040E14A95F1F78A
:103B2000915079F790E19A95F1F799B132E03A9591
:103B3000F1F7000040E14A95F1F792FB992790F9DF
:103B400092272081920F90830895EF92FF920F9316
:103B50001F93CF93DF930F92CDB7DEB719828C01FD
:103B60007C01E60EF11C0E151F0561F481E09981C0
:103B7000911180E00F90DF91CF911F910F91FF90F5
:103B8000EF9008950E946B1DCE0101960E94791D51
:103B9000F80181938F01E7CF529A5A9A089552986B
:103BA0005A9AEA9AE9E6F0E080818F7C8083089552
:103BB0006150770B91E001C0990F6A95EAF720E018
:103BC00031E0911108C0222391F05A9A80E28A953F
:103BD000F1F75A980895492F482339F05A9A232724
:103BE00040E24A95F1F79695ECCF5A98F9CF5A985A
:103BF000EDCFFF920F931F93CF93DF93EC018C01D6
:103C0000060F111DC017D10731F4DF91CF911F911D
:103C10000F91FF900895F9900E94731D68E08F2D19
:103C20000E94D81DEFCF1F920F920FB60F92112452
:103C3000EF92FF920F931F932F933F934F935F93B6
:103C40006F937F938F939F93AF93BF93EF93FF9364
:103C5000CF93DF930F92CDB7DEB719820E946B1D11
:103C6000CE0101960E94791DA82FA695A695A6952E
:103C7000282F229525709A2F9570290F922F9370D7
:103C800026952695920F982797708981982B09F091
:103C900075C0A43008F072C080E18A95F1F75A9A95
:103CA000529AB2E0BA95F1F700C05A98EA2EF12C78
:103CB000EAE0AE9FD0011124AB5BBE4F1896ED91A8
:103CC000FC9119973097B1F060911C0270911D0220
:103CD00016962D913C911797260F371F13968D91AD
:103CE0009C911497680F791F15964C911597129611
:103CF0008C9109958AE08E9DF0018F9DF00D112425
:103D0000EB5BFE4F6581662351F020911C023091E0
:103D10001D0286819781820F931F0E94F91D0E94C8
:103D2000731DF0E1FA95F1F75A9852985A9A80E18A
:103D30008A95F1F78AE08E9D80018F9D100D1124E8
:103D40000B5B1E4FD80112966C911297662371F18E
:103D500020911C0230911D0213968D919C91820F2F
:103D6000931F0E94A51DD801ED91FC91882311F0AD
:103D700088E001C082E080830E946B1D0F90DF917C
:103D8000CF91FF91EF91BF91AF919F918F917F91D3
:103D90006F915F914F913F912F911F910F91FF90E4
:103DA000EF900F900FBE0F901F901895ED91FC9122
:103DB000DFCF0F931F93CF93DF93EC0104970CF0A9
:103DC000A9C08AE08C9FF0018D9FF00D1124EB5B60
:103DD000FE4F80819181892B09F49CC0F894529AFE
:103DE0005A9885E08A95F1F700008C2F86958570AA
:103DF0009C2F9570890F982F937086958695890FC3
:103E00008E0193E0000F111F9A95E1F7082B0E9495
:103E1000731D00C068E0802F0E94D81DA0E1AA9504
:103E2000F1F752985A9A4A9B27C087E090E04A9946
:103E300025C08AE08C9F80018D9F100D11240B5BA3
:103E40001E4FF80165816623A1F120911C0230917B
:103E50001D0286819781820F931F0E94A51D8111EB
:103E600028C0529A5A9AD801ED91FC9182E0808341
:103E7000789482E090E016C000C0D5CF0197B9F4E5
:103E8000529A5A9A8AE08C9FF0018D9FF00D11246E
:103E9000EB5BFE4F0190F081E02D81E08083789410
:103EA00081E090E0DF91CF911F910F91089500C0C4
:103EB000BECF0E946B1DB0E2BA95F1F75A98529AA4
:103EC000E0E1EA95F1F78AE08C9FF0018D9FF00D1B
:103ED0001124EB5BFE4F6281662351F020911C029E
:103EE00030911D0283819481820F931F0E94F91DDE
:103EF0000E94731D8AE08C9FF0018D9FF00D1124AC
:103F0000EB5BFE4F0190F081E02D1082789490E001
:103F100080E0C8CF84E090E0C5CF909327028093E3
:103F20002602089590933B0380933A0308950E94DC
:103F3000F014811103C0809135030895E0913A0394
:103F4000F0913B03309721F00190F081E02D09942E
:103F500080E00895E0913A03F0913B03309721F01F
:103F60000280F381E02D0994089520913803309167
:103F700039032817390771F0909339038093380378
:103F8000E0913A03F0913B03309721F00680F781EE
:103F9000E02D0994089520913603309137032817B6
:103FA000390771F09093370380933603E0913A0319
:103FB000F0913B03309721F00084F185E02D0994C6
:103FC00008959C012E5F3F4FAC01485F5F4F80E03A
:103FD0002417350709F40895F90191919F01992358
:103FE000B9F38F5FF5CF662349F0FC01329608964E
:103FF0002191261729F0E817F907D1F780E00895F5
:1040000081E008959C01FC0132969FEF80E0419190
:10401000461751F09F3F19F4411101C0982F8F5F4F
:104020008630A9F79F3F09F40895290F311D97FDA8
:104030003A95F90162830895FC0132960896219120
:10404000261303C0DF0111971C92E817F907B9F78F
:1040500008950C9402200C941C20029626E0FC018A
:1040600011922A95E9F7089508950C94342081114E
:1040700005C081E080933C030C94352082E0FACFA8
:1040800083E080933C030C9435200C94372081E02E
:1040900080933C030C9435200C9447200895809124
:1040A0008D05843031F10E940D0610923D0388E1A8
:1040B00090E020E40FB6F894A895809360000FBEBE
:1040C0002093600083B7817F846083BF83B7816062
:1040D00083BF7894889583B78E7F83BF0FB6F8949B
:1040E000A8958091600088618093600010926000C4
:1040F0000FBE089508950895CF930E947A200E94DC
:1041000066140E947B20C0E08C2F0E942F13811127
:1041100005C0CF5FCA30C1F7CF91089581E0FCCFD1
:104120000E949C090C9477061F921FB61F921124BF
:104130008F939F93AF93BF9380913D03811113C0E1
:104140008091850590918605A0918705B09188059D
:104150004196A11DB11D8093850590938605A0937E
:104160008705B0938805BF91AF919F918F911F9064
:104170001FBE1F90189582E084BD93E095BD9AEF15
:1041800097BD80936E0008952FB7F89480918505B0
:1041900090918605A0918705B09188052FBF08955D
:1041A0002FB7F894609185057091860580918705F9
:1041B000909188052FBF08959C014FB7F894809186
:1041C000850590918605A0918705B09188054FBF20
:1041D000821B930B0895CF92DF92EF92FF922FB73D
:1041E000F894C0908505D0908605E0908705F09002
:1041F00088052FBFA7019601261B370B480B590BCB
:10420000CA01B901FF90EF90DF90CF9008957894A4
:104210001F921FB61F9211248F939F93AF93BF934A
:104220008091850590918605A0918705B0918805BC
:104230000196A11DB11D8093850590938605A093DD
:104240008705B0938805BF91AF919F918F911F9083
:104250001FBE1F90189587E797E7909301088093FA
:10426000000888E19AE00FB6F894A8958093600062
:104270000FBE90936000FFCF80914603089508958C
:104280000895CF93DF93EC0181E08093E9008FEFF5
:104290009091E800815095FD06C095ED9A95F1F753
:1042A00000008111F5CF8091E80085FF14C050E037
:1042B00040E068E070E0CE010E94FE228091E800BC
:1042C0008E778093E80088E0FE01AEE3B3E00190D2
:1042D0000D928A95E1F7DF91CF91089508950895A1
:1042E00080918C05811109C00E948E240E94EB24CC
:1042F0008091E20084608093E200089510928C0522
:1043000008950C9447206091890581E0611101C0F6
:1043100080E00C94402090918D0581E0943009F06C
:1043200080E0609189050C94452042E061EC81E0D9
:104330000E940A2490918D0581E0943009F080E07C
:10434000609189050C94372080918F05833009F4A2
:1043500060C030F48130C9F1823009F49CC0089506
:104360008A3009F488C08B3009F46EC0893009F0B6
:104370004FC080918E05813209F04AC0809192052C
:1043800090919305892B09F043C08091E800877FC5
:104390008093E8008091E80082FF36C09091F3009E
:1043A0008091F200029731F48091F100813011F098
:1043B000863021F48091F100809346038091E800DB
:1043C0008B778093E8000C943E2480918E05813A8F
:1043D000F9F48091E800877F8093E800809192054E
:1043E00090919305892B61F468E08EE393E070E08F
:1043F0000E944D238091E8008B778093E800089518
:1044000060E090E080E0F3CF80918D058111C2CF14
:10441000089580918E05813AD9F780919205909107
:104420009305892BA9F78091E800877F8093E800A6
:104430008091E80080FFFCCF809176018093F100AD
:104440008091E8008E77BDCF80918E05813201F793
:104450008091920590919305892BD1F68091E80087
:10446000877F8093E8000E943E248091900580938E
:1044700076010C949C0980918E05813249F68091D9
:10448000E800877F8093E8000E943E248091910598
:1044900080934703089580918E05813A09F0B8CF43
:1044A0008091E800877F8093E8008091E80080FF9A
:1044B000FCCF80914703C2CF84B7877F84BF0FB6FC
:1044C000F894A895809160008861809360001092B4
:1044D00060000FBE80E890E00FB6F8948093610012
:1044E000909361000FBE0C944C200E948E240E9479
:1044F000EB24E2EEF0E080818460808378940C9479
:1045000074278AE691E00C94921F80918D05853086
:10451000A9F480918D05853011F00C9490200E94B3
:104520004F2080918B058823A1F30E947C20882353
:1045300081F30E94E8220E949C09EBCF0895089520
:104540000C94A222292F332723303105C9F058F4C7
:104550002130310599F122303105A9F190E080E058
:1045600030E020E01DC02132310509F12232310551
:10457000A9F780E490E02AE438E0672B79F710C0CF
:1045800099278130910581F0009729F0029731F742
:10459000E0EFF7E002C0E2E1F8E0849190E09F01F3
:1045A000FA01318320830895E0E0F8E0F6CF89E056
:1045B00090E028E238E0672B89F6F2CF82E190E0C4
:1045C00028E338E0EDCF82E290E026E138E0E8CF62
:1045D00080E189BD82E189BD09B400FEFDCF8091F3
:1045E000D8008F7D8093D8008091E0008260809316
:1045F000E0008091E00081FDFCCF0895AF92BF9272
:10460000CF92DF92FF920F931F93CF93DF936C01B2
:10461000EB018A010E945D24F82E811123C001154F
:10462000110539F0F80180819181C81BD90BC80EA2
:10463000D91EB12CA12C2097A9F08091E80085FD0E
:1046400022C08091E8008E778093E8000115110563
:10465000A1F0F80180819181A80EB91EB182A082DB
:1046600085E0F82E8F2DDF91CF911F910F91FF9054
:10467000DF90CF90BF90AF9008950E945D24882373
:10468000D1F2F82EEFCFF60181916F018093F10006
:104690002197FFEFAF1ABF0ACECFFC01809194059E
:1046A0009091950586179707A0F06115710529F47B
:1046B0009091E8009E779093E80090E06115710575
:1046C00051F4911108C08091E80082FF34C080E06D
:1046D0000895BC01F2CF80918D058823C1F185300A
:1046E000C1F18091E80083FD30C08091E80082FD37
:1046F000EACF8091E80080FFE1CF8091F300209124
:10470000F200382F6115710519F02830310558F085
:1047100091E02830310509F090E02091E8002E77F3
:104720002093E800CBCF81918093F1006150710913
:104730002F5F3F4FE7CF80918D05882341F0853073
:1047400041F08091E80083FFBECF81E0089582E0D0
:10475000089583E00895FC0180919405909195055A
:1047600086179707A0F06115710529F48091E8007C
:104770008E778093E80090E06115710551F49111F6
:1047800008C08091E80082FF35C080E00895BC0138
:10479000F2CF80918D058823C9F18530C9F18091D0
:1047A000E80083FD31C08091E80082FDEACF80916E
:1047B000E80080FFE1CF8091F3002091F200382FD4
:1047C0006115710519F02830310558F091E0283055
:1047D000310509F090E08091E8008E778093E80041
:1047E000CBCF84918093F1003196615071092F5F96
:1047F0003F4FE6CF80918D05882341F0853041F011
:104800008091E80083FFBDCF81E0089582E00895A4
:1048100083E00895982F973028F08F708093E900F7
:1048200081E008959093E900242F762F50E09817A7
:1048300031F07091EC002091ED005091F00021FDDD
:1048400002C09F5FE8CF3091EB003E7F3093EB00DA
:104850003091ED003D7F3093ED003091EB00316001
:104860003093EB007093EC002093ED005093F00038
:104870002091EE0027FDE5CF80E0089580918E0520
:1048800087FF13C08091E80082FF06C08091E80096
:104890008B778093E80004C080918D058111F2CF61
:1048A000089580918D058823D9F38091E80080FFD9
:1048B000F8CF8091E8008E77ECCF2091E400309122
:1048C000E50095E6A9012091EC00822F817020FF80
:1048D00006C08091E80080FF06C080E00895209126
:1048E000E80022FD1AC080918D05882389F085306B
:1048F00089F08091EB0085FD0FC02091E40030919C
:10490000E50042175307F9F29150E1F684E008956B
:1049100082E0089583E0089581E008950E94FC24D8
:104920000E940425E0EEF0E0808181608083E8ED64
:10493000F0E080818F77808319BCA7EDB0E08C9187
:104940008E7F8C9380818F7E808310928C0508955A
:104950000F931F93CF93DF930E94FC240E940425A2
:10496000C8EDD0E088818F778883888180688883CC
:1049700088818F7D888319BC10928D0510928905DE
:1049800010928B0510928A0500EE10E0F8018081EC
:104990008B7F808388818160888342E060E080E053
:1049A0000E940A24E1EEF0E080818E7F8083E2EEB7
:1049B000F0E0808181608083808188608083F8015D
:1049C00080818E7F8083888180618883DF91CF9111
:1049D0001F910F910895E8EDF0E080818F7E808334
:1049E000E7EDF0E080818160808384E082BF81E038
:1049F00080938C050C94A824E8EDF0E080818E7FF4
:104A000080831092E20008951092DA001092E10083
:104A100008951F920F920FB60F9211242F933F9378
:104A20004F935F936F937F938F939F93AF93BF93B6
:104A3000EF93FF938091E10082FF0BC08091E20031
:104A400082FF07C08091E1008B7F8093E1000E948C
:104A500073278091DA0080FF19C08091D80080FF11
:104A600015C08091DA008E7F8093DA008091D900A2
:104A700080FF96C080E189BD82E189BD09B400FE56
:104A8000FDCF81E080938D050E9470218091E1002F
:104A900080FF19C08091E20080FF15C08091E20084
:104AA0008E7F8093E2008091E20080618093E2003B
:104AB0008091D80080628093D80019BC85E08093F3
:104AC0008D050E9483218091E10084FF2BC080919D
:104AD000E20084FF27C080E189BD82E189BD89B5FC
:104AE000982F917080FFFBCF8091D8008F7D8093AD
:104AF000D8008091E1008F7E8093E1008091E200F8
:104B00008F7E8093E2008091E20081608093E200DA
:104B100080918905882309F449C084E080938D053C
:104B20000E948B218091E10083FF29C08091E200E7
:104B300083FF25C08091E100877F8093E10082E0C0
:104B400080938D05109289058091E1008E7F80937E
:104B5000E1008091E2008E7F8093E2008091E2008C
:104B600080618093E20042E060E080E00E940A24DD
:104B70008091F00088608093F0000E948121FF9175
:104B8000EF91BF91AF919F918F917F916F915F91C5
:104B90004F913F912F910F900FBE0F901F9018953E
:104BA00019BC10928D050E947E2170CF8091E30088
:104BB00087FD93E090938D05B3CF1F920F920FB6B0
:104BC0000F9211242F933F934F935F936F937F9393
:104BD0008F939F93AF93BF93CF93DF93EF93FF9305
:104BE000D091E900DF708091EC00C82FC17080FD8A
:104BF000C0E81092E9008091F000877F8093F00078
:104C000078940E9421261092E9008091F00088603B
:104C10008093F000CD2BCF70C093E900FF91EF910E
:104C2000DF91CF91BF91AF919F918F917F916F91C4
:104C30005F914F913F912F910F900FBE0F901F905A
:104C400018951F93CF93DF93CDB7DEB7AA970FB612
:104C5000F894DEBF0FBECDBF8EE895E02091F10045
:104C6000FC012193CF01F5E086399F07B9F70E9437
:104C7000A4218091E80083FF1EC180918E05909150
:104C80008F059A3008F017C1E92FF0E0EF5DF44D81
:104C90000C94C127803899F0823809F00CC18091BA
:104CA00092058F70873008F006C18093E9008091EB
:104CB000EB0085FB882780F91092E90006C08091FF
:104CC0008A0590918B05911182609091E800977F01
:104CD0009093E8008093F1001092F1008091E80039
:104CE0008E77E5C0882309F4D3C0823009F0E3C091
:104CF000809190058111D6C0809192058F702FEF21
:104D0000280F263008F0D7C08093E9002091EB00EF
:104D100020FFC8C0933031F48091EB008062809313
:104D2000EB00C0C09091EB0090619093EB0021E00C
:104D300030E001C0220F8A95EAF72093EA00109232
:104D4000EA008091EB008860EACF8111B4C0109135
:104D500090051F778091E3008078812B8093E3009A
:104D60008091E800877F8093E8000E943E24809134
:104D7000E80080FFFCCF8091E30080688093E3002F
:104D800082E0111183E080938D0595C080588230B8
:104D900008F091C080919005909191058C3D23E0A1
:104DA0009207A1F583E08A838AE289834FB7F8945A
:104DB000DE01139620E03EE051E2E32FF0E0509355
:104DC0005700E49120FF03C0E295EF703F5FEF7062
:104DD0008E2F90E0EA30C0F0C7968D939D932F5FA1
:104DE000243159F74FBF8091E800877F8093E80016
:104DF0006AE270E0CE0101960E944D238091E800A6
:104E00008B778093E80057C0C096E7CF60919205FA
:104E100070919305AE014F5F5F4F0E94A022BC01CD
:104E2000892B09F448C09091E800977F9093E8009F
:104E300089819A810E94AB23E1CF8038E1F580918E
:104E4000E800877F8093E800809189058093F100D6
:104E500045CF811130C090919005923060F58091DE
:104E6000E800877F8093E800909389050E943E24A4
:104E700080918905882311F084E005C08091E300CA
:104E800087FDFACF81E080938D050E94952113C0A4
:104E900080919005813079F481E0933009F080E0D1
:104EA00080938B051092E9008091E800877F8093C2
:104EB000E8000E943E248091E80083FF0AC08091B0
:104EC000E800877F8093E8008091EB008062809308
:104ED000EB00AA960FB6F894DEBF0FBECDBFDF91F0
:104EE000CF911F9108950895CF9380918D058823C8
:104EF000A1F0C091E900CF709091EC00892F8170F2
:104F000090FD80E8C82B1092E9008091E80083FDB5
:104F10000E942126CF70C093E900CF9108950E948E
:104F20008E2410928D050895E8EDF0E08081806177
:104F300080838AE18A95F1F700C08091D900817061
:104F40000895991B79E004C0991F961708F0961BE5
:104F5000881F7A95C9F780950895AA1BBB1B51E15C
:104F600007C0AA1FBB1FA617B70710F0A61BB70BD9
:104F7000881F991F5A95A9F780959095BC01CD017E
:104F80000895EE0FFF1F0590F491E02D0994FB01A9
:104F9000DC0102C005900D9241505040D8F70895B1
:104FA000FB01DC0104C08D910190801921F4415076
:104FB0005040C8F7881B990B0895FB01DC0102C023
:104FC00001900D9241505040D8F70895FB01DC014B
:104FD00001900D920020E1F70895AEE0B0E0E3EF1C
:104FE000F7E20C94DC2A0D891E898F89988D26E0C2
:104FF0002C831A83098397FF02C080E090E8019711
:105000009E838D83AE01455E5F4F698D7A8DCE01A3
:1050100001960E941D284D815E8157FD0AC02F8197
:105020003885421753070CF49A01020F131FF80139
:1050300010822E96E4E00C94F82AABE0B0E0E3E2B4
:10504000F8E20C94CE2A7C013B018A01FC01178214
:105050001682838181FFB9C19AE0292ECE01019683
:105060005C01F7019381F30193FD859193FF819199
:105070003F01882309F446C1853239F493FD8591B7
:1050800093FF81913F01853229F4B70190E00E949E
:10509000FE29E7CF912C412C512CFFE1F51538F07A
:1050A0008B3209F188F4803201F1833221F157FC0F
:1050B0003AC020ED280F2A3040F556FE1FC0929CC2
:1050C000200D1124922E06C08D3291F0803379F795
:1050D000689450F8F30193FD859193FF81913F010E
:1050E0008111DBCF20C0689451F8689452F8F2CF58
:1050F000689453F8EFCF689454F8ECCF429C200D9D
:105100001124422E689455F8E5CF8E3229F456FCCE
:10511000F9C0689456F8DECF8C3619F4689457F8C5
:10512000D9CF8836B9F2982F9F7D95549330C0F02F
:105130008336A1F18337C1F1833509F05BC0F801F3
:10514000C190D1908F01692D70E056FC02C06FEFC5
:105150007FEFC6010E94E8294C01689457F80AC005
:105160000C5F1F4F2FE3298388248394912C6501C2
:10517000E89457F853FC04C04814190409F018F5D2
:10518000342C8114910431F5332009F46ACFB7012E
:1051900080E290E00E94FE293A94F6CFF8018081E7
:1051A00089830E5F1F4FE0CFF801C190D1908F012E
:1051B000692D70E056FC02C06FEF7FEFC6010E94C0
:1051C000F3294C01D5CFB70180E290E00E94FE297F
:1051D0004A94D2CFF60157FC859157FE81916F0119
:1051E000B70190E00E94FE2931103A94F1E08F1A45
:1051F0009108C7CF843619F0893609F074C0F801D8
:1052000057FE6AC061917191819191918F01252D15
:105210002F76D22E97FF09C0909580957095619555
:105220007F4F8F4F9F4F6894D7F82AE030E0A50159
:105230000E942E2AC82ECA188C2C5D2CD6FE0CC0BB
:10524000E89450F8C91440F4D4FE05C0D2FC03C061
:10525000FD2DFE7E5F2E892C54FE8FC0FE01EC0DCD
:10526000F11D8081803309F081C0252D297E522EC9
:10527000852D8870382E53FC8FC050FE89C09C2C21
:10528000841418F44C0C942C981854FE8BC0B7015D
:1052900080E390E00E94FE2952FE09C088E790E07A
:1052A00051FE02C088E590E0B7010E94FE29C914B2
:1052B00008F484C0CA94D12C9FEFC91AD90ACA0C29
:1052C000DB1CF60182916F01B70190E00E94FE297C
:1052D000AC14BD04B1F758CF61917191072E000C49
:1052E000880B990B93CFD52CE894D4F82AE030E0C2
:1052F000853739F1952D997FD92E8F3601F148F4F4
:105300008835A9F0F701868197812B96E2E10C940C
:10531000EA2A803749F08837A9F7D4FE02C068949A
:10532000D2F820E130E00DC06894D4F8F6CF54FEF6
:1053300003C0E92FE660DE2E20E132E002C028E063
:1053400030E0F801D7FE0DC061917191819191918A
:105350008F01A5010E942E2AC82ECA18E894D7F8FA
:105360006BCF6191719190E080E0F2CF52FC02C06E
:1053700083947ECF839483947BCF852D867809F4A4
:1053800077CFF6CFB70180E290E00E94FE298394A8
:105390008414C0F3312C79CF342C3818841408F4D9
:1053A00074CFF8CF852D867809F481CF8BE251FE3A
:1053B00080E257FC8DE2B70190E077CFB70180E340
:1053C00090E00E94FE299A9472CF8FEF9FEF9DCFBD
:1053D000FC010590615070400110D8F780959095C0
:1053E0008E0F9F1F0895FC016150704001900110C5
:1053F000D8F7809590958E0F9F1F08950F931F9358
:10540000CF93DF93182F092FEB018B8181FD09C00A
:105410001FEF0FEF812F902FDF91CF911F910F91F1
:10542000089582FF14C02E813F818C819D812817B1
:1054300039073CF4E881F981CF010196998388838B
:1054400010838E819F8101969F838E83E3CFE885B1
:10545000F985812F0995892BA1F3DACFFA01AA27C3
:10546000283051F1203181F1E8946F936E7F6E5FA7
:105470007F4F8F4F9F4FAF4FB1E03ED0B4E03CD055
:10548000670F781F891F9A1FA11D680F791F8A1F38
:10549000911DA11D6A0F711D811D911DA11D20D09F
:1054A00009F468943F912AE0269F11243019305D59
:1054B0003193DEF6CF010895462F4770405D41934A
:1054C000B3E00FD0C9F7F6CF462F4F70405D4A3397
:1054D00018F0495D31FD4052419302D0A9F7EACF5F
:1054E000B4E0A6959795879577956795BA95C9F78E
:1054F00000976105710508959B01AC010A2E069481
:105500005795479537952795BA95C9F7620F731F39
:10551000841F951FA01D0895F999FECF92BD81BDEE
:10552000F89A992780B50895A8E1B0E042E050E0EC
:105530000C94C02A262FF999FECF92BD81BDF89A0E
:10554000019700B4021639F01FBA20BD0FB6F894C7
:10555000FA9AF99A0FBE08950396272F0E949B2A64
:105560000E949A2A252F0E949B2A242F0C949B2A62
:105570000196272F0E949B2A0C949A2ADC01CB01CA
:10558000FC01F999FECF06C0F2BDE1BDF89A319653
:1055900000B40D9241505040B8F708952F923F92B9
:1055A0004F925F926F927F928F929F92AF92BF9233
:1055B000CF92DF92EF92FF920F931F93CF93DF93DF
:1055C000CDB7DEB7CA1BDB0B0FB6F894DEBF0FBE3C
:1055D000CDBF09942A88398848885F846E847D8489
:1055E0008C849B84AA84B984C884DF80EE80FD808B
:1055F0000C811B81AA81B981CE0FD11D0FB6F89401
:10560000DEBF0FBECDBFED010895F894FFCF8E072A
:105610008E07BF07BF07EE07EE07EE07EE0752083B
:10562000DE08ED08ED08AB09AB09B409B409B60909
:10563000B409B409B409AB09AB09BB09B409B4098D
:10564000BB094A2672265B2772265B27A526C6263B
:065650005B271D2729273E
:10565600808182838485868788898A8B8C8D8E8FCC
:105666009091929394A0A1A2A3A4A5A6A7A8A9AA43
:10567600ABACADAEAFB0B1B2B3B4C0C1C2C3C4C5BA
:10568600C6C7C8C9CACBCCCDCECFD0D1D2D3D40011
:105696006400C202017C0300000001000000007CDF
:1056A6000300000005010000007C03040600000062
:1056B6000000000021007F2200033C2141216E21D1
:1056C6003F216F214021014C617965723A20446582
:1056D6006661756C74004C617965723A2052616935
:1056E6007365004C617965723A204C6F776572007C
:1056F6004C617965723A2041646A757374004C6135
:105706007965723A20556E6465662D256C640025B0
:10571600647825642C206B253264203A20256300AA
:10572600202020206162636465666768696A6B6C25
:105736006D6E6F707172737475767778797A3132AF
:1057460033343536373839305245425420202020FC
:105756002020203B27202C2E2F202020F6F7313327
:1057660032366697C634350000000000E9020008AC
:06577600101818100800D5
:00000001FF
