:100000000C948F040C94D6040C94D6040C94AD225A
:100010000C94D6040C94D6040C94D6040C94D604F8
:100020000C94D6040C94D6040C94192A0C94ED2A42
:100030000C943C250C94D6040C94D6040C94D60451
:100040000C94D6040C94D6040C94D6040C94D604C8
:100050000C94D6040C94AF250C94D6040C94D604BE
:100060000C94D6040C94D6040C94D6040C94D604A8
:100070000C94D6040C94D6040C94D6040C94D60498
:100080000C94D6040C94D6040C94D6040C94D60488
:100090000C94D6040C94D6040C94D6040C94D60478
:1000A0000C94D6040C94D6040C94D60429001E009B
:1000B0001F002000210022002B0014001A0008005D
:1000C00015001700E10004001600070009000A00EF
:1000D000E0001D001B000600190005000000E20002
:1000E000015168002C0069002A0027002600250025
:1000F000240023003300130012000C0018001C0021
:10010000280034000F000E000D000B00E500380041
:10011000370036001000110000000154E7000251C2
:10012000280064003A003B003C003D003E003F00D8
:1001300035002A00520028004C00AC00E1005000BD
:1001400051004F002D00AE0039001D011B010601BA
:100150001901AB0000001D040100010001006A004C
:100160002E0030002F004200410040002D005700BB
:1001700001000100010001003502270226022502CC
:1001800001000100310230022F02010001000100D4
:100190000000010001002D0201006B0001000100C0
:1001A000010001000100010000000000000000004B
:1001B000000000000000000000000000000000003F
:1001C000000000000000000000000000000001002E
:1001D00001000351010001000100010001000100C4
:1001E000010001000000000000000000000000000D
:1001F00000000000000000000000000000000000FF
:1002000000000000000000000000000000000000EE
:100210000100000000001E021F0220022102220233
:1002200000000000000000000000000000000000CE
:1002300000000000000000000000000000000000BE
:1002400000000000000001000100010001000000AA
:1002500000002702260225022402230200000000DB
:10026000000000000000000000000000000000008E
:10027000000000000000000000000000000000007E
:1002800000000100010001000100010000AE00AF0C
:1002900000DA0281FFD9F1DB20A4A62EAF00A0C0B6
:1002A00000A1C800AED580A81FD300408D14200047
:1002B0000000000000003E5B4F5B3E003E6B4F6B5A
:1002C0003E001C3E7C3E1C00183C7E3C18001C5727
:1002D0007D571C001C5E7F5E1C0000183C1800004F
:1002E000FFE7C3E7FF00001824180000FFE7DBE783
:1002F000FF0030483A060E00262979292600407F63
:1003000005050700407F05253F005A3CE73C5A00A1
:100310007F3E1C1C0800081C1C3E7F0014227F220C
:1003200014005F5F005F5F0006097F017F000066C9
:1003300089956A0060606060600094A2FFA29400EA
:1003400008047E04080010207E20100008082A1CE3
:100350000800081C2A0808001E10101010000C1EAF
:100360000C1E0C0030383E383000060E3E0E0600E3
:1003700000000000000000005F0000000007000710
:100380000000147F147F1400242A7F2A12002313F4
:100390000864620036495620500000080703000038
:1003A000001C224100000041221C00002A1C7F1C6E
:1003B0002A0008083E080800008070300000080885
:1003C0000808080000006060000020100804020017
:1003D0003E5149453E0000427F4000007249494974
:1003E00046002141494D33001814127F1000274563
:1003F000454539003C4A494931004121110907006E
:10040000364949493600464949291E000000140072
:1004100000000040340000000008142241001414C1
:1004200014141400004122140800020159090600A6
:100430003E415D594E007C1211127C007F494949B2
:1004400036003E41414122007F4141413E007F490B
:10045000494941007F09090901003E4141517300AA
:100460007F0808087F0000417F4100002040413F95
:1004700001007F08142241007F40404040007F027D
:100480001C027F007F0408107F003E4141413E0076
:100490007F09090906003E4151215E007F091929A3
:1004A000460026494949320003017F0103003F40CD
:1004B00040403F001F2040201F003F4038403F0089
:1004C0006314081463000304780403006159494D60
:1004D0004300007F41414100020408102000004118
:1004E00041417F00040201020400404040404000BE
:1004F0000003070800002054547840007F2844443B
:100500003800384444442800384444287F00385494
:100510005454180000087E0902001824241C780096
:100520007F080404780000447D4000002040403DE6
:1005300000007F102844000000417F4000007C0440
:10054000780478007C080404780038444444380077
:100550007C1824241800182424187C007C08040427
:10056000080048545454240004043F4424003C40F0
:1005700040207C001C2040201C003C4030403C00BF
:100580004428102844004C9090907C004464544CC3
:1005900044000008364100000000770000000041E0
:1005A000360800000201020402003C2623263C001B
:1005B000000000000080808080000000000080E0DB
:1005C00070180C1830E080000010F890103078306F
:1005D00010B8FC3810000000000000F8FCF8000023
:1005E00000000000000000000000001C9C1C000037
:1005F0000000F8FCF80000000000001CFCF8C0003F
:10060000000000000080E0F87C1C000000F0FCFC12
:10061000FC1C1C1C1C1C1C1C1C000000000000C03E
:10062000F0F8381C1C1C1C1C1C3CF8F0E000E0F02E
:10063000F0F0E0ECEEF7F37020007C7C7C7E007E36
:100640007E7E7F7F7F000080C0E07E5B4F5BFEC0D0
:100650000000C000DCD7DEDEDED7DC00C00000001A
:10066000000000000000000000000000000000008A
:1006700000000000000FBCE0818181838382870C31
:10068000183060C000001FFE90B9FFBB91983C1865
:1006900011133F1100000000000000FFFFFF0000E9
:1006A0000000000000000000000000FFFFFF00004D
:1006B0000000FFFFFF0000000000000000030F7FAC
:1006C000F8E080F0FC3F0F0100000000003F3F3FDA
:1006D0001C1C1C1C1C3C78F8F0E08000000000C3CF
:1006E000E7FF7E3C3878787070F8FFDF87000F1FD7
:1006F0003F7F7F7F7F7F3F1E0C001F1F1F3F003FFC
:100700003F3F7F7F7F00307B7F7830202030787FB5
:100710003B0003000F7F0F0F0F7F0F00030000004F
:1007200000000000000000000000000000000000C9
:10073000183C24666341C18180808080808081C1B3
:100740004162386C4CC68181808080808081C14349
:1007500062361C1800000000000000FFFFFFC0C050
:10076000C0C0C0C0C0C0C0800000007FFF7F0000CC
:1007700000007FFFFFC080000000E0E0C0C0C0E0DC
:10078000F97F1F0700000000000000000070F0E08B
:10079000E0C0C0C0C0E0F0F87F3F0F0000000F3F96
:1007A0007FF9E0E0C0C0C0C0C0E0F97F3F1F00009B
:1007B0000000000000000000000000000000000039
:1007C0000000000000000000000000000000000029
:1007D0000000000000000000000000000000000019
:1007E0000000000000000000000000000000000009
:1007F0000E034C0069006C007900350038000000E1
:1008000010036C0069006C00690075006D007300D6
:1008100000000403090409023B00020100A0FA09D8
:10082000040000010301010009211101000122401F
:10083000000705810308000A090401000103000004
:1008400000092111010001227B000705820320001D
:100850000A1201000200000008D8042DEB0001017B
:1008600002000105010902A10185020901A100059B
:10087000091901290815002501950875018102054E
:1008800001093009311581257F9502750881060916
:10089000381581257F950175088106050C0A3802F7
:1008A0001581257F950175088106C0C00501098065
:1008B000A101850319012AB700150126B70095018A
:1008C00075108100C0050C0901A101850419012AD8
:1008D000A002150126A002950175108100C0050136
:1008E0000906A101050719E029E71500250195086A
:1008F000750181029501750881010507190029FF1D
:10090000150026FF009506750881000508190129C4
:1009100005950575019102950175039101C011249A
:100920001FBECFEFDAE0DEBFCDBF04B603FE27C0A7
:100930008091440690914506A0914606B0914706E5
:100940008730904BA740B04BD1F4109244061092E0
:100950004506109246061092470614BE84B7877F5C
:1009600084BF0FB6F894A895809160008861809349
:100970006000109260000FBEE0E0F8E3099512E01D
:10098000A0E0B1E0EEE9F0E602C005900D92A43BD4
:10099000B107D9F726E0A4EBB2E001C01D92A43460
:1009A000B207E1F70E9484180C9429300C940000DF
:1009B00080910E0390910F03A0911003B091110349
:1009C00084309105A105B105E1F128F50097A10555
:1009D000B10571F16FEA71E082309105A105B105B1
:1009E00049F1BF93AF939F938F938AEC91E09F93CC
:1009F0008F931F9288E18F9386EF93E09F938F935D
:100A00000E94112D8DB79EB70A960FB6F8949EBF1F
:100A10000FBE8DBF13C088309105A105B10529F027
:100A20008E309105A105B105E1F66CEB71E002C0D5
:100A300063E971E086EF93E00E940A2D86EF93E070
:100A4000089562EA71E0F6CF80E091E00895CF93D7
:100A5000C0E28C33910520F4FC01E451FE4FC081CB
:100A60001F92CF939F938F93FB0180811F928F934F
:100A700081811F928F938BED91E09F938F931F92B3
:100A800088E18F938DEC92E09F938F930E94112DBC
:100A90008DB79EB70E960FB6F8949EBF0FBE8DBF52
:100AA0008091B6029091B702449761F41092B70218
:100AB0001092B602E8EBF2E080E2819392E0EC3C27
:100AC000F907D9F78091B6029091B702FC01E8547A
:100AD000FD4FC08301969093B7028093B602CF91E9
:100AE00008958DEC92E0089588EB92E008950F93BD
:100AF00003E022E041E00E940A060F910895CF939F
:100B0000C82F0E94EC15811101C0C2E08C2FCF913B
:100B100008950E94EC15882389F00E94D80460E0B3
:100B20000E94C11C0E94710560E00E94C11C0E94CD
:100B3000740560E00E94C11C80E008950E942405B5
:100B400060E00E94A51CF8CFFB01228121110E94C8
:100B5000270581E00895811107C0662339F06AE016
:100B600070E089EA0E94A60780E008956AE070E0DC
:100B70008AEAF8CF81E008950C94A40508950C94B6
:100B8000BE051F93CF93DF9300D000D00F92CDB757
:100B9000DEB749835A836B833091E50289819A815C
:100BA00031111DC06623B9F02223A9F00E94FE0B6B
:100BB000182F682F89819A810E94A70B69817A81F9
:100BC000812F0F900F900F900F900F90DF91CF918A
:100BD0001F910C94CB120E94D50B182FEFCF0E94BF
:100BE000FE0B69817A81EDCFFC01262F4081518176
:100BF0006281738184810C94C10581E00895CF9353
:100C0000DF93EC0160E00E94F405BE01DF91CF911B
:100C10000C94BF058F929F92AF92BF92CF92DF92BA
:100C2000EF92FF920F931F936B017C0181E090E0A4
:100C3000A0E0B0E04C015D0104C0880C991CAA1C26
:100C4000BB1C4A95D2F7B501A4014C015D0104C05B
:100C5000880C991CAA1CBB1C2A95D2F74829592933
:100C60006A297B2904C0880F991FAA1FBB1F0A95F8
:100C7000D2F78A019B010C211D212E213F2104174F
:100C800015072607370789F48C299D29AE29BF2926
:100C9000BC01CD011F910F91FF90EF90DF90CF909D
:100CA000BF90AF909F908F90089580959095A0955C
:100CB000B0958C219D21AE21BF21EACF0E94011465
:100CC0000E94DD060C9426140C94291480E00E94E6
:100CD000DE060C94E21D089508950E94520A0E94B7
:100CE0006C062FEF84E39CE0215080409040E1F7B8
:100CF00000C000000C94D3250F931F93CF93DF9374
:100D00008C0161E00E94F405EC01B8010E94BC0571
:100D10008823A9F1B801CE010E94AC20882379F183
:100D2000B801CE010E94391E882349F1B801CE01D5
:100D30000E941620882319F1F8018281882361F02E
:100D4000CB35FDE5DF0721F170F4C115ECE5DE07D9
:100D5000A1F0CF3DDC45C9F0C801DF91CF911F91D3
:100D60000F910C94BA05CC358DE5D807A1F0CD359F
:100D7000DD4591F70E941410EFCF0E946D0680E0D0
:100D8000DF91CF911F910F9108950E94C810F7CF66
:100D90000E941D10E1CF0E942010DECF0C946B0644
:100DA0000E9431240E94DE060C94CE0608950C9415
:100DB000D60681E008950C94D9060895CF93C82FE4
:100DC0000E94D7068C2FCF910C94DB06CF93DF9334
:100DD000CDB7DEB72B970FB6F894DEBF0FBECDBFF1
:100DE0004F83588769877A878B8761110E946F0FBD
:100DF0001E821D8285E0FE013796DE01119601906C
:100E00000D928A95E1F78C819D81892B89F4498126
:100E10005A816B817C818D819E810E94900E2B96E0
:100E20000FB6F894DEBF0FBECDBFDF91CF9108950E
:100E300089819A8189238F3F51F3CE0101960E94C7
:100E4000FD058111E4CFEBCFFC01808191810C94F1
:100E5000400CCF93C82F882309F447C08CEF8C0F28
:100E6000813AA0F46C2F80914201909143010E943D
:100E70009B24882329F08C2F0E94310F0E94920F0F
:100E80008C2F0E942A0FCF910C94920F80E28C0F2E
:100E9000883048F4C77081E001C0880FCA95EAF72E
:100EA0000E94520FF0CFEBE5EC0FE33040F4F0E09E
:100EB000EA5AFD4F808190E0CF910C945D24E8E5E3
:100EC000EC0FE73150F4F0E0EE0FFF1FE85DFD4F4F
:100ED00080819181CF910C947324CD3E30F08C2F82
:100EE0000E941419CF910C94E719CF91089588238B
:100EF00061F19CEF980F913A20F40E94310F0C940D
:100F0000920F90E2980F983050F4877091E001C0F2
:100F1000990F8A95EAF7892F0E94580FF0CF9BE529
:100F2000980F933020F490E080E00C945D2498E5D5
:100F3000980F973120F490E080E00C9473248D3E5C
:100F400020F00E946E190C94E71908951F93CF9317
:100F5000DF93182FEB010E942907209731F4812F8E
:100F6000DF91CF911F910C9477078FE99FE0019754
:100F7000F1F700C000002197F0CF70E060E0893306
:100F800011F460E570E00C94A607882321F00E941C
:100F9000520F0C94920F0895882321F00E94580F4D
:100FA0000C94920F0895BF92CF92DF92EF92FF922E
:100FB0000F931F93CF93DF936C01D62FC72FFC01A4
:100FC0001281F580F2949FE0F9220E94480FE82EEA
:100FD0008823B9F0E12E1123A1F08C2F807F80347B
:100FE00021F080E28D0F8830D0F08091130482FDD3
:100FF00016C082E00E94E30F0E94480F91E0E82EA5
:10100000E926BC2EB2948FE0B822FBE0FB1508F471
:1010100068C0EB2DF0E0E55DFF4C0C94E52CE12C75
:10102000F0CF0C2F0F70C07F11F00295007F1123BD
:1010300099F0002359F080E28D0F883010F0D11123
:1010400007C0802F0E94520F0E94920F8D2F41C027
:10105000802F0E94620FF8CF8D2F0E947707002308
:1010600009F43FC080E28D0F883010F0D11104C028
:10107000802F0E94580F03C0802F0E94680F0E948B
:10108000920F2FC00C2F0F70C07FC03211F002954D
:10109000007FDD2381F0D13009F469C0112309F408
:1010A00073C0FF2009F469C0F601858180FFCECFAF
:1010B0008F70858362C08091130482FF38C0112332
:1010C00059F0002329F0802F0E94520F0E94920FA6
:1010D00080E00E94290705C080E00E947707011187
:1010E000C7CFEB2DE850FF0B349720F40E9431243A
:1010F0000E94DE06EE2009F472C10E94440F80FDBA
:101100006EC1F60112820E943E0F0E940B0BC601B7
:101110000E94100A0E943E0FDF91CF911F910F9104
:10112000FF90EF90DF90CF90BF900C942C0B112389
:1011300089F0F11006C00E94750F802B0E94C50730
:10114000D0CF21E0F212F7CF0E94750F802B0E94C2
:101150007B0FC7CFF11006C00E94880F802F0E941E
:10116000CC07BFCF31E0F31609F4BBCFF5CF112385
:1011700031F085E08F1508F4B4CF802FDFCF94E0F5
:101180009F1508F4AECFEACFFF2041F3D93349F4DD
:10119000FFEF27EE33E0F15020403040E1F700C090
:1011A00000008D2F0E9477079CCF8C2F8695869507
:1011B000837069F0813009F094CF8D2F9C2F93704C
:1011C000111102C090E080E00E9473248ACF8D2F1D
:1011D0009C2F9370111102C090E080E00E945D246A
:1011E00080CF8D2F112329F00E9414190E94E71936
:1011F00078CF0E946E19FACF8C2F837009F041C00E
:1012000011116FCF4D2F429546954770440F440FF3
:101210000D2F0F7010E030E020E0042E04C0000F0E
:10122000111F221F331F0A94D2F760E070E0CB0138
:10123000D4FF0FC06FE070E080E090E004C0660F64
:10124000771F881F991F4A95D2F7609570958095F2
:101250009095C695C695C370602B712B822B932BEE
:10126000C23049F058F4C13019F00E94BF0A39CF9A
:101270000E94AD0A36CF0E94D10A33CF0E94AB0A3A
:1012800030CF8695112311F08C2F8170882309F4BB
:1012900028CF4D2F429546954770440F440F0D2F90
:1012A0000F7010E030E020E0042E04C0000F111F8A
:1012B000221F331F0A94D2F760E070E0CB01D4FF05
:1012C0000FC06FE070E080E090E004C0660F771F11
:1012D000881F991F4A95D2F76095709580959095D3
:1012E000C695C695C370602B712B822B932BC23091
:1012F00049F058F4C13019F00E94820BF2CE0E94DE
:10130000700BEFCE0E94940BECCE0E94E50AE9CE62
:10131000CF70112329F08C2F0E940B0B8D2F0ECF35
:101320008D2F0E94CC078C2F0E942C0BDACED23F3F
:1013300051F160F4D03FB9F0D13F81F0112309F4AD
:1013400049C0F11083CE8C2F8F7121C0D33F11F192
:10135000D43FA1F78091130482FF26C08C2F8F7198
:10136000112311F314C0112349F084E08F1508F400
:10137000B8CE8C2F8F710E944F0BB3CE95E09F1586
:1013800008F4AFCEF6CF8C2F8F711111CDCF0E9404
:101390000B0BA7CE112329F08C2F8F710E94F60A18
:1013A000A0CE0E94F10A9DCE112349F0CF718C2F5F
:1013B0000E940B0B63E08C2F0E94C80F92CE81E03D
:1013C0000E94E30FE1E0EF1508F08BCE82E00E946F
:1013D000E30F87CEF110DACE8C2F8F71A5CFDF917E
:1013E000CF911F910F91FF90EF90DF90CF90BF9022
:1013F00008950F931F93CF93DF93EC016881798158
:101400008A810E944A0C8C010E94A60B0E94AA0AA3
:10141000B801CE01DF91CF911F910F910C94D307AA
:10142000CF93DF93EC018B819C81892B29F08881FC
:10143000998189238F3F59F4DF91CF910895CE018F
:101440000E94F909CE01DF91CF910C94FF05CE01E6
:101450000E947C068111F3CF0E94480F882361F31C
:101460008A81882349F38091130482FDE5CF82E0CD
:10147000DF91CF910C94E30F90E080E00E945D2417
:1014800090E080E00E9473240E946F0F0E94720F10
:101490000E94920F0E940E1B0C94E7190E94380FB5
:1014A0000C943C0A0E945F0F0C944E0AE92FE295BF
:1014B000EF70E250EE3070F4F0E0E95CFF4C0C9419
:1014C000E52C803F19F020F4883E20F481E0089557
:1014D000843FE1F380E00895883EC0F3813FD1F777
:1014E000F5CF93FB882780F90895FC0180819181D5
:1014F0000E94400C0C94560ACF93DF9300D000D08A
:101500000F92CDB7DEB70F900F900F900F900F9006
:10151000DF91CF910895CF93DF9300D000D000D01A
:10152000CDB7DEB726960FB6F894DEBF0FBECDBF9F
:10153000DF91CF91089508950C949B0A0E949C0A14
:101540006093120370931303809314039093150315
:101550000C943C0A08950C949E0A0F931F930091DB
:101560001203109113032091140330911503602B83
:10157000712B822B932B1F910F910C949E0A0F932A
:101580001F930091120310911303209114033091C3
:10159000150360237123822393231F910F910C94D1
:1015A0009E0A0F931F930091120310911303209131
:1015B00014033091150360277127822793271F9109
:1015C0000F910C949E0A0C9477050E94E30A609395
:1015D0000E0370930F0380931003909311030C94E8
:1015E0003C0A60E070E0CB010C94E50A0F931F9376
:1015F00041E050E060E070E08A019B0104C0000F10
:10160000111F221F331F8A95D2F7C901B8011F91FC
:101610000F910C94E50A0F931F9341E050E060E0B6
:1016200070E004C0440F551F661F771F8A95D2F7DC
:1016300080910E0390910F03A0911003B0911103BC
:101640008A019B01082B192B2A2B3B2BC901B801BE
:101650001F910F910C94E50A0F931F9341E050E006
:1016600060E070E004C0440F551F661F771F8A9525
:10167000D2F7CB01BA016095709580959095009155
:101680000E0310910F03209110033091110360237A
:101690007123822393231F910F910C94E50A0F93DA
:1016A0001F9341E050E060E070E004C0440F551F1C
:1016B000661F771F8A95D2F780910E0390910F03D2
:1016C000A0911003B09111038A019B0108271927EB
:1016D0002A273B27C901B8011F910F910C94E50AF5
:1016E0000F931F9300910E0310910F03209110038D
:1016F00030911103602B712B822B932B1F910F9133
:101700000C94E50A0F931F9300910E0310910F03A1
:1017100020911003309111036023712382239323BE
:101720001F910F910C94E50A0F931F9300910E03E4
:1017300010910F032091100330911103602771273E
:10174000822793271F910F910C94E50A0895E92FA2
:10175000EE0FE90FEE0F8E0F982F977041E001C04A
:10176000440F9A95EAF786958695869595E0899F28
:10177000F0011124EA51FD4F30E020E070E051917A
:10178000DF011197CB01022E02C0969587950A942E
:10179000E2F7817081958527842385278C932F5FBD
:1017A0003F4F2530310559F70895E92FEE0FE90F26
:1017B000EE0F8E0F982F977086958695869525E06B
:1017C000829FF0011124EA51FD4F50E040E080E09B
:1017D000219130E0092E02C0369527950A94E2F750
:1017E00021703327042E01C0220F0A94EAF7822BBE
:1017F0004F5F5F4F4530510559F70895BF92CF9223
:10180000DF92EF92FF920F931F93CF93DF938C01A0
:10181000C0900E03D0900F03E0901003F0901103DE
:101820008091120390911303A0911403B0911503BA
:10183000C82AD92AEA2AFB2ACFE1D0E0BC2ED70158
:10184000C6010C2E04C0B695A795979587950A9466
:10185000D2F780FD0EC0219788F7B12C8B2DDF9138
:10186000CF911F910F91FF90EF90DF90CF90BF909D
:101870000895B8018C2F0E94DF12019761F3EECF1B
:10188000CF93DF93EC010E94FE0BBE01DF91CF915D
:101890000C94DF121F93CF93DF93EB019091E5023D
:1018A000992331F0CB01DF91CF911F910C94400C23
:1018B000882379F0CB010E94FE0B182F682FCE01F0
:1018C0000E94A70BBE01812FDF91CF911F910C9435
:1018D000DF12CB010E94D50B182FF4CF1F93CF93AB
:1018E000DF93C091160316E0809117038C1304C098
:1018F000DF91CF911F910895D0E01C9FF0011D9FB3
:10190000F00D1124E85EFC4F4081518162817381AA
:10191000848195810E948B0A2196C770E5CF409102
:1019200048035091490360914A0370914B038091A1
:101930004C0390914D030C948B0AFF920F931F93CD
:10194000CF93DF9380914D03807FD1F480914A0340
:101950008823B1F08091160310911703609148031A
:1019600070914903A0914B03B0914C03062F0723BC
:10197000C0914001D091410196E0F92E181306C0A4
:10198000DF91CF911F910F91FF90089590E01097F4
:1019900011F00F3F19F401968770F0CFF89E900177
:1019A000F99E300D1124F901E85EFC4F4181471387
:1019B000F2CF40814613EFCF42814111ECCF4381FA
:1019C00054814A1B5B0B4C175D0728F780914D0330
:1019D0008F70806180934D03F901E35EFC4F80813D
:1019E0008F708061808388E493E00E94100ADF9109
:1019F000CF911F910F91FF900C946E0CAF92BF92FC
:101A0000CF92DF92EF92FF920F931F93CF93DF93CA
:101A1000CDB7DEB761970FB6F894DEBF0FBECDBF6E
:101A20008C0185E0F801DE011D9601900D928A95EA
:101A3000E1F7F801E28088E4C82E83E0D82E6091B7
:101A40004B0370914C036115710509F44DC19091E0
:101A5000480320914903892F82238F3F09F444C111
:101A600040815181A380B480F0904A03F501E61BC8
:101A7000F70BBF01E0914001F0914101FF2009F413
:101A800004C180914D03382F307F6E177F0708F017
:101A9000BDC0311179C0FE2C251323C0941321C081
:101AA000E1101FC08F70806180934D030E948F0CE6
:101AB000C6010E94100A80914D03F80185838F2D85
:101AC00061960FB6F894DEBF0FBECDBFDF91CF9108
:101AD0001F910F91FF90EF90DF90CF90BF90AF904C
:101AE0000895AB2829F0842F85238F3F09F015C175
:101AF00080E0F82FF170DF2E80FF3CC0809116034C
:101B00002091170336E0821315C04D875E878D85BF
:101B10009E850E94400C292F22952F702230F0F0D4
:101B2000243018F59F70F1F0F8019581907FD1F481
:101B3000D12C1EC090E0389FF001399FF00D112488
:101B4000E85EFC4F6181651306C06081641303C0C9
:101B500062816E110FC001968770D5CF9F7011F012
:101B6000882331F3805E883018F3C8010E94100A80
:101B7000FD2CA5CFEE2009F4A2CF80914D0381600A
:101B800080934D03F12C9BCF251314C0941312C0E6
:101B9000E11010C0F8018583C8010E94100A86E098
:101BA000F801A8E4B3E001900D928A95E1F70E9454
:101BB0008F0C85CFC8010E94750A882319F1EE2089
:101BC00009F180914D03803270F0209148033091EB
:101BD000490338872F831986BB86AA868C87CE0156
:101BE00007960E94100A86E0F801A8E4B3E001908D
:101BF0000D928A95E1F70E949D0C0E948F0CFF24A4
:101C0000F3945DCFC8010E94100AF9CF311113C0BF
:101C10007A2DB98AA88A6E2D89890E947C0A88E467
:101C200093E00E94100A86E0F60111928A95E9F786
:101C30000E948F0CA7CF25130FC094130DC0E11085
:101C40000BC0F8018583C8010E94100A86E0F601E6
:101C500011928A95E9F733CFC8010E94750A88234B
:101C600089F2EE2079F280914D03803208F4BBCFE7
:101C700020914803309149033A8329831B82BD8216
:101C8000AC828E83CE010196ACCF6E177F07F8F43D
:101C9000FE2CEE2009F4B6CF25130BC0941309C017
:101CA00086E0F801A8E4B3E001900D928A95E1F78F
:101CB00006CFC8010E94750A811195CF80914D030E
:101CC000816080934D03C8010E94100AF8CE7A2DDE
:101CD000B98AA88A6E2D89890E947C0A86E0F6015D
:101CE00011928A95E9F763CFEE2009F48BCFC801F2
:101CF0000E94750AF82E882309F484CF86E0F80143
:101D0000A8E4B3E001900D928A95E1F788E493E0AE
:101D10000E9424070E949D0C4ACF81E08E25E9CEC7
:101D20001F93CF93DF93CDB7DEB72C970FB6F89400
:101D3000DEBF0FBECDBF4F83588769877A878B87F9
:101D40009C87CE0107960E94FE0C882369F08A8545
:101D50009B85892B39F04F815885842F85238F3FB0
:101D600009F071C016E05FC086E0FE013796DE0123
:101D7000119601900D928A95E1F78A859B85892BB2
:101D800089F38F81988589238F3F61F32091170311
:101D900030E0C901019687709927409116034817D2
:101DA000190671F40E94520A10921703109216033A
:101DB00086E0E8E4F3E0DF011D928A95E9F7D2CFEF
:101DC00096E0929FD001939FB00D1124A85EBC4F66
:101DD000FE01319601900D929A95E1F780931703D9
:101DE0000E946E0CBFCF819FC0011124885E9C4F62
:101DF0000E94FE0C8823E9F0E09116031E9FF0017B
:101E00001124E85EFC4F408151816281738184819D
:101E100095810E948B0A8091160390E0019687704D
:101E200099278093160380911603909117038913C5
:101E3000DACF2C960FB6F894DEBF0FBECDBFDF9180
:101E4000CF911F91089569857A858B859C850E9425
:101E50008B0A88CF682F80914201909143010C94A6
:101E6000D124682F80914201909143010C94D32496
:101E700080914201909143010C94D52480914E03AE
:101E8000859585958595089580914E038770089571
:101E900090914E03977081E009F480E0089580915D
:101EA0005A03089590915A03892B80935A030895F9
:101EB000809590915A03982390935A030895109215
:101EC0005A03089590915903892B809359030895DB
:101ED00080959091590398239093590308951092F7
:101EE0005903089510925803089580914F0308955F
:101EF00008950C94780F9091130492FD08C090916E
:101F00004F03981721F080934F030C94790F089595
:101F100080914F03882329F010924F0380E00C94A6
:101F2000790F0895E0914201F091430180915A03A5
:101F30008083E0914201F0914301808190915903A7
:101F4000892B8083E0914201F0914301808190913F
:101F50005803892B808390914F03992381F0E0915E
:101F60004201F09143018081892B8083809142015D
:101F7000909143010E94892481110E94880F8091D1
:101F80004201909143010C94442408950C94C50F90
:101F90009091130492FD10C098E0899F9001112444
:101FA000622B60934E030E940B0B80914E0385952C
:101FB000859585950C94C60F0C940B0B10924E03CF
:101FC00080E00C94C60F90914E03809589238093F6
:101FD0004E03282F277091F4282F082E000C330B66
:101FE0009217130659F09091130492FD07C085953E
:101FF000859585950E942C0B0C94DE0F0895909189
:10200000130492FB222720F9281769F080FB92F92C
:102010009093130480911204909113040E94441031
:1020200082E00C94E30F08958091130482FB8827CB
:1020300080F991E089270C94FF0F81E00C94FF0F49
:1020400080E00C94FF0F90E080E00E94B82F21E028
:10205000893E9E4F09F020E0822F089582E090E0B3
:102060000C94B02F83E090E00C94B02FCF9384E0D9
:1020700090E00E94B02FC82F82E290E00E94B02F23
:10208000982F8C2FCF910895CF93C92F682F84E07C
:1020900090E00E94BE2F6C2F82E290E0CF910C94D2
:1020A000BE2FAB01BC018FE090E00C94D02FAB01B0
:1020B000BC0183E190E00C94D02F60E070E0CB0194
:1020C0000C94571060E070E0CB010E9451100C940A
:1020D0005D1069EE7EEF90E080E00E94DC2F60E012
:1020E00082E090E00E94BE2F60E083E090E00E94DA
:1020F000BE2F109212031092130310921403109229
:10210000150360E084E090E00E94BE2F60E082E270
:1021100090E00E94BE2F60E085E090E00E94BE2F1C
:1021200060E086E090E00E94BE2F6FEF87E090E0D5
:102130000E94BE2F40E050E0BA0188E090E00E948B
:10214000D02F60E08DE090E00E94BE2F40E050E094
:10215000BA0188E190E00E94D02F60E087E190E032
:102160000E94BE2F40E050E0BA018CE190E00E9456
:10217000D02F70E060E080E290E00E94DC2F40E031
:1021800050E0BA0188E190E00E94D02F0C946210D8
:102190000C946910682F8EE090E00C94BE2F0E9482
:1021A000782560936E0370936F0380937003909310
:1021B000710360936A0370936B0380936C03909335
:1021C0006D0308950E94782560936E0370936F03EA
:1021D0008093700390937103609366037093670319
:1021E0008093680390936903089585B7806885BFDD
:1021F00085B7806885BF0895089508950C94FC10F4
:1022000008950C9400110E94F5108EEF93E10E9446
:1022100027240E94FD100C94FE100C94EC150895D8
:1022200008950E940F110C9410110E9463250E94C2
:10223000BD130E94D4140E941C1B80E00E947A1BD4
:102240000E94651F0C9401119F92AF92BF92CF9292
:10225000DF92EF92FF920F931F93CF93DF93CDB74F
:10226000DEB72A970FB6F894DEBF0FBECDBF0E942F
:102270006215C82E81110E94CF108CE5A82E83E034
:10228000B82E10E000E0902E802F0E942B14E82E34
:10229000F501F1905F01F81609F45CC080917203BA
:1022A00081FD0E9431148F2D8E25D12CFF24F394B3
:1022B000982F9F2109F449C00E940D11882399F09D
:1022C000DE829F82EF2081E009F480E088870E940F
:1022D0006C258160782F9A8789874E815F81688518
:1022E0008A850E94E606F801E45AFC4F8081F826B0
:1022F000F0820E947E1F182F81110E94E2100E941E
:10230000FF1DC11001C011110E94C61C0E94021ABB
:102310000E94312490915B03891799F10E94312426
:1023200080935B032A960FB6F894DEBF0FBECDBF35
:10233000DF91CF911F910F91FF90EF90DF90CF90A1
:10234000BF90AF909F900C94DE06D394FF0CF6E004
:10235000DF12AECF0F5F1F4F0A30110509F093CF88
:102360008FEF89838A831B820E946C258160782F7E
:102370009D838C8349815A816B818D810E94E60601
:10238000B8CF2A960FB6F894DEBF0FBECDBFDF914F
:10239000CF911F910F91FF90EF90DF90CF90BF9062
:1023A000AF909F900895CF93DF930E94E312EC01CA
:1023B000811521E5920708F042C0811530E59307A9
:1023C00008F09DC0883E910530F5803E910508F0EB
:1023D00092C0883A910588F4853A910508F084C046
:1023E0008130910509F487C0009709F484C00497EF
:1023F00008F081C0D0E0C0E07EC08F3B9105D0F7EF
:10240000C85AD0E0CC0FDD1FC75ADD4F0990D881E4
:10241000C02DD46470C08115904250F4C11581E084
:10242000D80708F068C0CD3ED10520F3D06563C061
:10243000C11590E4D907F0F2DF70D06A5CC0811555
:1024400025E5920700F5811534E5930708F08BC068
:10245000811543E5940708F073C0C11582E5D807DC
:1024600008F469C0CE018370992721E030E002C0F2
:10247000220F331F8A95E2F7C695C69580E2C89F62
:10248000E001112454C0C11599E5D907A8F4C1157C
:1024900028E5D20708F06CC0C11536E5D30708F06F
:1024A000A9CF8C2F0E947A13C82FD0E0DC2FCC2725
:1024B000CC27DF71D0621FC0C1154AE5D40708F4EC
:1024C0005CC0CE0190568115904208F093CF8D2FBD
:1024D0008F710E947A1390E0982F882788279F7128
:1024E0009C012C2BE901E6CFC55AD0E0C957DD4F3E
:1024F000C881D0E0D064CE01DF91CF910895E4E0AF
:1025000096958795EA95E1F783702C2F2695269569
:10251000237040E2249F90011124382B8C2F83706C
:10252000C1E0D0E002C0CC0FDD1F8A95E2F7C22BDC
:10253000D32BDC68E0CFDC2FCC27C16FD06ADBCF98
:102540008370992721E030E002C0220F331F8A9563
:10255000E2F7C695C69590E2C99FE0011124C22B0F
:10256000D32BDA68C8CFD82FCC27C46FD06AC3CF9B
:10257000DC2FCC27C06FD06ABECF8C2F8F700E940B
:102580007A1334E0D695C7953A95E1F7CF709C2F32
:10259000EC01D069B0CF972F70E026E0929F600DDC
:1025A000711D1124FB019CE3899FE00DF11D112495
:1025B000EE0FFF1FE455FF4F8591949108950E94FF
:1025C000CB120C94D31182389105B1F1B0F4813360
:1025D000910509F475C048F48932910509F469C080
:1025E0008A32910509F473C008958533910509F481
:1025F00059C08933910501F10895833E9105A9F1F0
:1026000038F4803E9105F9F0823E910549F1089534
:10261000863E9105A9F1873E9105C9F1843E910559
:1026200019F52091130421FF1FC08091120484FD2D
:1026300014C087EE90E00895209112042370A1F059
:1026400080EE90E008952091120420FD47C0309163
:10265000130430FF09C024FF44C090E080E004C0B0
:102660002091120422FDF7CF08952091120422FD3B
:102670003BC03091130430FDE3CF24FFF5CFEDCF05
:102680002091120423FFF0CF24FDE7CFD2CF209179
:10269000120423FD2CC03091130431FFEECF84EEE1
:1026A00090E008952091120425FFDECF89E290E0AA
:1026B00008952091120425FFD7CF85E390E0089577
:1026C0002091120426FFD0CF8AE290E00895209155
:1026D000120426FFC9CF81E390E0089589E390E0DA
:1026E000089583EE90E0089582EE90E0089586EEDE
:1026F00090E008959091120492FF06C0282F28714F
:102700002830F9F4877F846093FF06C0282F287152
:102710002831F1F4877E84612091130420FF06C0E4
:10272000382F38713830D9F4877F816021FF06C097
:10273000282F28712831D1F4877E816194FD877E0E
:102740000895282F24712430F9F68B7F8860DCCF20
:10275000282F2471243101F78B7E8861DDCF382F3B
:102760003171313019F78E7F8860E0CF282F2171C9
:10277000213121F78E7E8861E1CF10920E041092F4
:102780000F0410921004109211040895CF92DF925A
:10279000EF92FF926B017C010E94EC1581110EC03B
:1027A0000E947825C61AD70AE80AF90AC0920E04D0
:1027B000D0920F04E0921004F0921104FF90EF9079
:1027C000DF90CF9008950F931F930E94EC158823FC
:1027D00021F01F910F910C9478250E94782500918B
:1027E0000E0410910F042091100430911104600F19
:1027F000711F821F931F1F910F91089580E008950C
:1028000008950E942310811102C00E94C8100E94E6
:102810002E10809372030E943610909313048093BD
:1028200012040E9400140E943210682F70E090E0A1
:1028300080E00E94AB0A60910E0370910F038091BB
:102840001003909111030C94E30A08950C9425143D
:1028500008950C942814E82FF0E0E25EFB4F80818D
:102860000895089580EA8A95F1F7089500C00895C3
:102870000C943214F894E82FE295EF70F0E031A157
:10288000282F2F7081E090E001C0880F2A95EAF789
:10289000982F9095932391A392A1892B82A378944A
:1028A000089508950C945114CF93DF93C0E9D2E0BA
:1028B00089918F3F11F00E943A1482E0C539D80700
:1028C000B9F7CAE8D2E089918F3F11F00E943A141B
:1028D00082E0C039D807B9F7DF91CF910895CF9240
:1028E000DF92EF92FF920F931F93CF93DF93EC0150
:1028F000D62E062F10E0C80180579D4F7C01FC01A9
:1029000080818F3F09F445C0F894E82FE295EF707D
:10291000F0E091A18F7021E030E001C0220F8A9594
:10292000EAF7892F822B81A382A12095282322A355
:1029300078940E943614EAE8F2E040E952E031E08F
:10294000C12C21912F3F71F1A22FA295AF70B0E061
:1029500090968C9190E02F7002C0959587952A955E
:10296000E2F780FD1FC0832FC82A330F4E175F0781
:1029700041F7F70180818F3F11F00E943A1461E026
:10298000C11001C060E08D2D0E943814C00FD11F0E
:10299000C882DF91CF911F910F91FF90EF90DF9050
:1029A000CF90089580E0E0CF0E9406168091440108
:1029B0008091440195E0811190E09093290485E095
:1029C000891B809328040E9454148AE0EEE1F4E00D
:1029D000DF01982F1D929A95E9F7E4E1F4E0DF0119
:1029E0001D928A95E9F785E00E94B5150E945E0662
:1029F0000C941016EF92FF920F931F93CF93DF93D7
:102A000000D000D00F92CDB7DEB70E94EC15F82EA3
:102A100060912904882309F448C085E0E82E8E01DE
:102A20000F5F1F4FF8018E2D11928A95E9F7862FBF
:102A300090E0B801825E9B4F0E941E168823F9F039
:102A40008091280490E045E050E0B801825E9B4F01
:102A50000E94F42C21E020937303892BD1F4F12CF4
:102A60000E9464068F2D0F900F900F900F900F9083
:102A7000DF91CF911F910F91FF90EF90089580917A
:102A80007303882361F3F8011192EA94E9F7109235
:102A90007303A0912804B0E0A25EBB4F85E0F8016B
:102AA00001900D928A95E1F7DBCF70E0625E7B4F7B
:102AB0008091280490E0825E9B4F0E94AB160E949A
:102AC0005214D0CFEF92FF920F931F93CF93DF93C7
:102AD000CDB7DEB72A970FB6F894DEBF0FBECDBFD5
:102AE0008E010F5F1F4F8AE0F80111928A95E9F776
:102AF000F12C6F2DC8010E946F14F394F5E0FF12C2
:102B0000F8CF4AE050E0B80184E194E00E94F42C50
:102B10007C0121E0892B09F420E0E114F10441F06B
:102B20008AE0F801A4E1B4E001900D928A95E1F702
:102B30006091290470E0625E7B4F45E084E194E09F
:102B40000E94B61581E090E0EF2811F40E94FA147B
:102B50002A960FB6F894DEBF0FBECDBFDF91CF919E
:102B60001F910F91FF90EF9008950895FF920F939A
:102B70001F93CF93DF93F82E092F162FD72FC42F33
:102B8000222349F081E0809376030E946C25909384
:102B9000750380937403809176038823A1F080915C
:102BA0007403909175030E948425059760F0EF2DC2
:102BB000F02FA12FBD2FCE0FDF2FD11DEC17FD075A
:102BC00041F410927603DF91CF911F910F91FF9006
:102BD000089581918D93F2CF80917903811107C07F
:102BE0000E94A42C882351F081E08093790381E036
:102BF00090917903913009F080E0089582E080930C
:102C000079030E949F2CF3CF0C94EC150E940416BC
:102C1000809344010E94EC1581110C945416089580
:102C20000E94EC15811102C00C945616089581E0A3
:102C300090917A039A3008F080E008950F931F93E3
:102C4000CF93DF93EC018B0180917A038A30B8F443
:102C5000B801CE010E94A916C82F811122C080910F
:102C60007A038F3FB9F40E946C2590937803809388
:102C700077038C2FDF91CF911F910F910895809151
:102C80007703909178030E948425843F914000F758
:102C9000C0E0EFCF8F5F80937A038A3020F7C1E0E6
:102CA000E8CF10927A03E5CF0C9466220C94692247
:102CB000EF92FF920F931F93CF93DF937901C82F69
:102CC000880FDD0B41155105A9F08AE08C9FF001BA
:102CD0008D9FF00D1124EB5BFE4F8381948185580D
:102CE0009C4F228130E04217530708F49A01A90152
:102CF0000E94012DCE010E947323892B11F501152D
:102D00001105E9F08AE08C9FF0018D9FF00D1124F0
:102D1000EB5BFE4F458150E00417150708F4A8014E
:102D20008AE08C9FF0018D9FF00D1124EB5BFE4F2C
:102D30006681778165587C4FC7010E94012D81E033
:102D400001C080E0DF91CF911F910F91FF90EF9034
:102D500008950C9404180C9428180F931F93CF9384
:102D6000DF9300D000D0CDB7DEB7609198037091AB
:102D7000990380919A0390919B030E94932511E0FF
:102D8000643671058105910518F10E94E3136E5FA9
:102D90007F4F8F4F9F4F69837A838B839C8310E093
:102DA00000E030E020E044E050E0BE016F5F7F4F84
:102DB00084E00E945816182F882351F00E9478252D
:102DC000609398037093990380939A0390939B0365
:102DD000812F0F900F900F900F90DF91CF911F9147
:102DE0000F9108957F928F929F92AF92BF92CF9250
:102DF000DF92EF92FF920F931F93CF93DF930F9287
:102E0000CDB7DEB7762E4A015901680101E010E026
:102E10009E012F5F3F4F50E040E070E060E00E9475
:102E20005816182F882309F43EC0F401608171817F
:102E3000828193810E9493256436710581059105F5
:102E400058F18701950150E040E070E060E0872D87
:102E50000E945816B82EB701C6010E941D1B11E032
:102E60009981981310E01B2139F00E947825F40114
:102E70006083718382839383812F0F90DF91CF9141
:102E80001F910F91FF90EF90DF90CF90BF90AF9088
:102E90009F908F907F900895B701C6010E941D1BDF
:102EA00099818913CECFA701B601C5010E94012DDA
:102EB000E3CFEF92FF920F931F93CF93DF930F9285
:102EC000CDB7DEB700919A0210919B02095F1F4FA8
:102ED000EE24E394F12C9E012F5F3F4F44E953E031
:102EE00063E082E00E94F216182F882321F0CE01C1
:102EF00001960E94D71F812F0F90DF91CF911F91D4
:102F00000F91FF90EF900895CF92DF92EF92FF9292
:102F10000F931F93CF93DF9300D000D00F92CDB7C4
:102F2000DEB76B0100919A0210919B020F5F1F4F59
:102F300085E0E82EF12C9E012F5F3F4F40E953E0E2
:102F400061E080E00E94F216882349F095E0FE01DE
:102F50003196ABE8B3E001900D929A95E1F795E0D8
:102F6000EBE8F3E0D60101900D929A95E1F70F900E
:102F70000F900F900F900F90DF91CF911F910F91B5
:102F8000FF90EF90DF90CF900895AF92BF92CF92D5
:102F9000DF92EF92FF920F931F93CF93DF937C0109
:102FA0005B016A010E94171601E010E0882311F00E
:102FB0000AE010E0C1E0D0E0F894B501C701F601E5
:102FC00009957894811104C021960C171D075CF4B3
:102FD000DF91CF911F910F91FF90EF90DF90CF90F5
:102FE000BF90AF900895CC9F9001CD9F300D300DD4
:102FF000112490E080E045E34A95F1F70000019646
:1030000082179307C1F7D8CF0F931F93CF93DF9306
:10301000EC018B0144E857E10E94C517882391F029
:1030200049E557E1B801CE010E94C517882351F048
:103030004DEA56E1B801CE01DF91CF911F910F917A
:103040000C94C51780E0DF91CF911F910F910895E7
:103050000F931F93CF93DF930F92CDB7DEB7F89402
:1030600000919A0210919B02C801019625E0FB0194
:10307000DC0101900D922A95E1F765E070E00E9475
:103080001D1BF80180837894F894CE0101960E946C
:10309000CE1F8981F801878361E070E0CE0101963F
:1030A0000E941D1BF80186837894F89460857185D1
:1030B000828593850091870310918803209189036D
:1030C00030918A03601771078207930751F060936C
:1030D0008703709388038093890390938A030E94E7
:1030E000C61378940F90DF91CF911F910F9108959F
:1030F0000E9473270E9415110C947F270E9483273A
:103100000E9424110C949D270E94F6240E945A27A5
:103110000E9403110E9478180E947E180E941111CB
:10312000FBCF8091A20380FF12C060917C0185E0FB
:10313000689FB001112475956795759567956038FE
:103140007105A8F561157105A1F1862F089581FF1C
:1031500009C060917C0185E0689FB00111247595DC
:103160006795EDCF60917C0182FD0AC08091A1033B
:103170008823D1F090917B0160917C01891728F020
:1031800085E0689FB0011124DACF869FB001112439
:1031900085E0869F9001879F300D1124692F70E094
:1031A000C9010E94D12CCBCF65E070E0CECF8FE774
:1031B000089581E008958091A20380FF0CC0609182
:1031C000780170E07595679575956795611571053E
:1031D00049F1862F089581FF06C06091780170E063
:1031E00075956795F3CF6091780182FD0BC0909142
:1031F000A0039923A1F0609177018091780196173F
:1032000038F0682F70E06038710500F38FE708959B
:10321000899FC001112470E00E94D12CF4CF61E09D
:1032200070E0D7CF81E008958D3E31F40E9491186F
:1032300081958093A60308958E3E19F40E949118FB
:10324000F8CF8F3E31F40E94911881958093A503A9
:103250000895803F19F40E949118F8CF893F29F40E
:103260000E94DB188093A70308958A3F21F40E94EF
:10327000DB188195F7CF8B3F31F40E94DB188195E5
:103280008093A80308958C3F19F40E94DB18F8CFAF
:103290009FE0980F983070F4815F990B21E030E047
:1032A00001C0220F8A95EAF78091A403822B8093B4
:1032B000A40308958D3F31F48091A203816080932F
:1032C000A20308958E3F21F48091A2038260F7CF7C
:1032D0008F3FB9F78091A2038460F1CF4091A5039D
:1032E0008D3E59F48091A60387FF0DC01092A6036E
:1032F00041110BC01092A10308C08E3E81F4809151
:10330000A60318169CF3442381F08091A7039091A3
:10331000A803892B09F05AC01092A00308958F3E8C
:1033200049F447FFF0CF1092A5038091A6038111C5
:10333000ECCFE0CF803F19F41416ACF3E4CF9091BA
:10334000A703893F29F41916F4F61092A703DBCFDF
:103350008A3F19F497FFD7CFF8CF9091A8038B3FFE
:1033600029F497FFD0CF1092A803CDCF8C3F19F44A
:103370001916CCF3C8CF9FE0980F983090F4815F76
:10338000990B21E030E0B90102C0660F771F8A95E2
:10339000E2F7CB0180959091A40389238093A40345
:1033A000B2CF8D3F31F48091A2038E7F8093A20330
:1033B000AACF8E3F21F48091A2038D7FF7CF8F3F5C
:1033C00009F0A1CF8091A2038B7FF0CF08950E94D6
:1033D0006C259C019091A5038091A603982B21F068
:1033E00030939F0320939E039091A7038091A8039D
:1033F000982B21F030939D0320939C0383EA93E064
:103400000C944F24EF92FF920F931F93CF93DF936F
:1034100000D000D000D0CDB7DEB786E0E3EAF3E01D
:10342000DE01119601900D928A95E1F7E090A503D7
:10343000F090A6030091A7031091A8031092A50392
:103440001092A6031092A7031092A8038E2D8F2925
:1034500091F080919E0390919F030E948425AC017E
:103460009091A103992309F43FC080917D018417B5
:10347000150608F447C0802F812B91F080919C03A2
:1034800090919D030E948425AC019091A003992303
:1034900009F477C0809179018417150608F47FC07C
:1034A0008091A5039091A603892B9091A703892B66
:1034B0009091A803892B11F00E94E71986E0FE0184
:1034C0003196A3EAB3E001900D928A95E1F7269632
:1034D0000FB6F894DEBF0FBECDBFDF91CF911F9125
:1034E0000F91FF90EF90089520917E018AE0289F30
:1034F000900111242417350708F0BDCF9F5F9093EA
:10350000A10302C09F3FD1F7EE2059F00E9491180D
:103510009FEF1E140CF491E0899F802D112480935D
:10352000A503FF2059F00E9491189FEF1F140CF47F
:1035300091E0899F802D11248093A6033091A503EB
:10354000332309F498CF2091A603222309F493CFC3
:1035500045EB3403C0011124992359F09093A5033E
:1035600045EB240390011124332339F03093A60353
:1035700082CF81E08093A503F3CF81E08093A603FF
:103580007ACF20917A018AE0289F90011124241794
:10359000350708F085CF9F5F9093A00302C09F3F3F
:1035A000D1F7002359F00E94DB189FEF10160CF49E
:1035B00091E0899F802D11248093A703112359F056
:1035C0000E94DB189FEF11160CF491E0899F802D6B
:1035D00011248093A8033091A703332309F460CF0B
:1035E0002091A803222309F45BCF45EB3403C001EB
:1035F0001124992359F09093A70345EB24039001DC
:103600001124332339F03093A8034ACF81E080930B
:10361000A703F3CF81E08093A80342CF86E0E3EADB
:10362000F3E0DF011D928A95E9F71092A103109251
:10363000A0031092A20308950895FC01680F791F5A
:103640008FEF91E36E177F0709F408952191822788
:1036500028E030E087FF06C0880F89272150310914
:10366000C9F7F0CF880FFACFCF92DF92EF92FF9297
:103670000F931F93CF93DF936C017B0164E670E09F
:1036800088E70E940421EC0197FD12C010E000E0E1
:10369000F601E00FF11F849164E670E00E947E2144
:1036A000EC01892B29F40F5F1F4F0E151F0581F7C1
:1036B0000E940122CE01DF91CF911F910F91FF90C7
:1036C000EF90DF90CF9008950895EBE2F4E080E072
:1036D00092E0DF019C011D9221503040E1F7F09310
:1036E0003206E09331068FEF9FEF9093D5038093DE
:1036F000D40308950E94641B0E947F058093D00329
:1037000080FD0FC080E88093CF030E94FE206DE013
:1037100070E083EA92E00E94341B892B21F080E064
:10372000089580E2F0CF8091D00363E070E081FDE6
:1037300026C080EA92E00E94341B892B81F76DE05D
:1037400070E080E992E00E94341B892B41F70E94CF
:103750007825605A75418F4F9F4F60932D06709367
:103760002E0680932F06909330060E94651B81E001
:103770008093D3038093D2031092D10308958DE9EF
:1037800092E0D9CF2091CF0336E0839FC00111246E
:10379000629F800D911D1124811522E0920714F083
:1037A00090E080E0855D9B4F9093320680933106D8
:1037B00008952091310630913206255234404091CF
:1037C000CF03642F70E0C9010E94BD2C481B463016
:1037D00010F4240F311D211582E0380710F030E07D
:1037E00020E0255D3B4F309332062093310608954B
:1037F0001F93CF93DF93162F8A3031F481E0DF914E
:10380000CF911F910C94721C8D3011F480E0F7CF92
:10381000C0913106D091320696E0FE01A9EAB3E0EC
:1038200001900D929A95E1F7803EC8F086E0FE0186
:1038300011928A95E9F711111EC0C0913106D091FD
:10384000320646E050E0BE0189EA93E00E94F42C83
:10385000892BF9F4DF91CF911F910C94D91BF6E0DD
:103860008F9FB001112460557D4F46E050E0CE019E
:103870000E94EB2CE0CFE0913106F09132069F01DF
:103880002A5F3F4F2E173F07C1F2808180958193B9
:10389000F9CFCB52D440CE0125E0969587952A9555
:1038A000E1F721E030E0A90102C0440F551F8A95DD
:1038B000E2F7CA014091D4035091D503842B952B94
:1038C000259645E0D695C7954A95E1F702C0220FA7
:1038D000331FCA95E2F7822B932B9093D5038093E5
:1038E000D403B8CFCF93382FE0913106F091320650
:1038F000EB52F4402091CF03622F70E0CF010E9481
:10390000BD2C281B822F332369F066E00E94B12C66
:10391000C82FC15010F4CF91089560E080E20E945A
:10392000F81BF7CF9F01280F311D2115324018F0E9
:1039300080E0F0E0E0E08E0F9F2F911D855D9B4FB2
:103940009093320680933106E6CFFF920F931F9338
:10395000CF93DF93EC01F62EFC0101900020E9F7F4
:103960008F0101501109C017D10730F0DF91CF91BD
:103970001F910F91FF9008956F2D89910E94F81B60
:10398000F2CF0E94A51C81E00C94721C8091D3039D
:10399000811103C08091D20308950E947825605A56
:1039A00075418F4F9F4F60932D0670932E06809325
:1039B0002F06909330068091D2038111EBCF62E005
:1039C00070E08EE892E00E94341B892B19F781E0A9
:1039D0008093D203DFCF2F923F925F926F927F92BC
:1039E0008F929F92AF92BF92CF92DF92EF92FF920F
:1039F0000F931F93CF93DF938091D303882369F0B4
:103A00002091D4033091D5032115310531F08091F7
:103A1000D10361E070E0882399F0DF91CF911F918D
:103A20000F91FF90EF90DF90CF90BF90AF909F905D
:103A30008F907F906F905F903F902F9008958F5F51
:103A4000082F10E01B01082E02C0220C331C0A9420
:103A5000E2F7A90142215321452B89F39091D0032C
:103A600090FD44C08295880F8076809381019801F3
:103A7000369527953695279520938401815E80930E
:103A800082011092850124E630E047E050E06FE7C4
:103A900071E088E70E94AD21892B09F0BECFA80113
:103AA00025E0440F551F2A95E1F78091D00380FD52
:103AB0002BC0455D5B4F04E610E020E230E060E49F
:103AC00088E70E94D421892B09F0A7CF0E94C61C49
:103AD000E101C095D0958091D4039091D503C8237E
:103AE000D923D093D503C093D40397CF880F880FE1
:103AF000880F8093810110928401895F80938201F5
:103B000083E080938501BFCFEFEAF3E080E2DF013D
:103B10001D928A95E9F7A0EAB2E00CE912E084EA86
:103B2000C82E82E0D82E97E0592E772473948D9179
:103B3000E80129918E01240F352F311D255D3B4F62
:103B4000E82FF0E0E155FC4F90E080E0652C681A2A
:103B5000872C082E01C0880C0A94EAF77901A12C61
:103B6000E701B9907E01B820662D6A196770962E1C
:103B7000062E000C770BDB2D01C0DD0F9A94EAF7BF
:103B80007195619571096770772701C0B6946A9540
:103B9000EAF7BD2A6081962E9B289082A39468E064
:103BA000A612DECF019631968830910579F6CA16B5
:103BB000DB0609F0BCCF04E610E020E230E04FEA7B
:103BC00053E07DCF8091D2039091D303911103C034
:103BD00091E089270895882369F062E070E08CE81D
:103BE00092E00E94341B892B19F08091D203089532
:103BF0001092D2038091D203EBCF0C9489050F93DE
:103C00001F938091D303882389F180912B06909193
:103C10002C060E948425C29760F00E946C25909328
:103C20002C0680932B0660E080E00E94C21B0E945D
:103C3000FD1D0E94EB1C8091D2038823B9F00E94E5
:103C4000782500912D0610912E0620912F06309197
:103C50003006601B710B820B930B6F3F7F4F8F4FB2
:103C60009F4720F41F910F910C94E21D1F910F911B
:103C70000895CF93DF93EC01FB018281882309F43F
:103C800020C1C430FDE5DF07C8F5CB3F9CE5D9076F
:103C900030F49E0122503C452431310598F50E94B4
:103CA00036109093130480931204C031FCE5DF07B3
:103CB00009F4E0C008F061C0C8309CE5D90709F4F8
:103CC000CBC088F5C430FCE5DF0709F4B3C0E8F4E5
:103CD000C2309CE5D90709F4A7C080911204826024
:103CE000C330DC4509F4A3C0809112049091130401
:103CF0000E9444100E94520A80E004C0C236EDE5E2
:103D0000DE0769F2DF91CF910895809112048061FE
:103D1000C630FCE5DF0709F48AC008F48FC0809143
:103D20001204806284C0809112048D7FCC309CE5A7
:103D3000D90709F47CC070F4809112048C60CA30F9
:103D4000FCE5DF0709F473C008F48AC0809112040F
:103D50008E7F6DC080911204877FCE309CE5D9079D
:103D600009F465C0809112048B7FCF30DC4508F4E4
:103D70005EC0809112048F7E5AC0CD3FFCE5DF0704
:103D800009F474C040F5C4319CE5D90709F48AC030
:103D900058F4C231FCE5DF0709F474C008F46EC0C2
:103DA00080911204837F43C0CB3F9CE5D90709F47F
:103DB00049C008F04DC0C531DC4509F095CF809170
:103DC000120482FB992790F921E0922790FB82F957
:103DD00090FB83F92CC0C1308DE5D80709F458C099
:103DE00088F4809113048360CF3FECE5DE0769F12E
:103DF000809113048D7FC115DD4538F18091130446
:103E00008C7F23C0C3308DE5D80709F458C008F46F
:103E100052C0C236DD4509F067CF90911204892F58
:103E20008F7E94FF806103C0809112048160809333
:103E300012045ACF809112048460F9CF8091120449
:103E40008860F5CF809113048160809313044CCF78
:103E5000809113048260F9CF809112048064E7CFCF
:103E60000E94520A809112048068E1CF809113046D
:103E70008E7FEBCF809112048F7DD9CF8091120479
:103E80008F7BD5CF0E94520A809112048F77CFCFBB
:103E900080911304982F909591708E7F892B90FBC1
:103EA00081F9D3CF0E94520A90911204892F97FB77
:103EB00087F98058BCCF81E00E94CA1015CF80E0FE
:103EC000FBCF81E01FCF0C94AB0584988C9A85982A
:103ED0008D9A8FB1829581707D990EC090E0892B6B
:103EE0008093DB039091440181E098279093D7035E
:103EF000891B8093D603089592E0F1CFCF93E09190
:103F0000DB03EE0FEE0FE093DB034FB144FB88279A
:103F100080F94FB145FB222720F945FF02C022E07E
:103F200030E0822BE82BE093DB03C091D703EF70E6
:103F3000F0E0EC55FD4F80819091DA03890F80937A
:103F4000DA0320E0843064F0EC2FF0E0E852FC4F1C
:103F500080818F5F808360E08C2F0E94631F21E04F
:103F60008091DA038D3F64F4EC2FF0E0E852FC4FCF
:103F700080818150808361E08C2F0E94631F21E04B
:103F80008091DA03082E000C990B64E070E00E9427
:103F9000D12C8093DA03822FCF910895E091D7033B
:103FA000F0E0E852FC4F2081FC0120830895FF924D
:103FB0000F931F93CF93DF93D091D6030D2F10E073
:103FC00008521C4FFC01C081F8018081C81BFC2EE7
:103FD00080E01F147CF09C2FC7FD90E0C91BC1112D
:103FE00014C08823E9F0DF91CF911F910F91FF90CA
:103FF0000C94E210FA94F80180818F5F808360E076
:104000008D2F0E94631F81E0E4CFCF5FF801808194
:104010008150808361E08D2F0E94631F81E0DFCF9C
:10402000DF91CF911F910F91FF900895CF93DF9370
:10403000EB0186319C4511F50E944F0F9A8199231F
:1040400099F08A7A91E009F490E09093DC03811171
:1040500009C089E20E942A0F0E94920F80E0DF913E
:10406000CF91089585E3F6CF8091DC03811104C0E0
:1040700089E20E94310FF0CF85E3FBCF81E0EFCFE3
:104080000F931F93CF93DF93C42FD22FFC01828114
:104090008823C9F04093DF030E946C259093DE03D0
:1040A0008093DD0380E28C0F883008F050C0C77029
:1040B00081E001C0880FCA95EAF7DF91CF911F9187
:1040C0000F910C94C5071091DF03141335C0809134
:1040D000DD039091DE030E9484258436910560F50E
:1040E000C0E2CD0F1D17B9F080E2810F883040F497
:1040F000177081E001C0880F1A95EAF70E94CC077B
:10410000C83048F481E09D2F977001C0880F9A95C0
:10411000EAF70E94C507802F0E94BD07C830B8F497
:10412000D77081E001C0880FDA95EAF7DF91CF916F
:104130001F910F910C94CC0780E28C0F883038F4DB
:10414000C77081E001C0880FCA95EAF7EFCFDF9111
:10415000CF911F910F9108950F939C01CB01243FA4
:104160004CE5340759F1A8F4293DFCE53F0701F17E
:104170002A3D4CE53407D1F1283D3C4591F406E257
:1041800021EE41EE68ED7CE50E94402080E00F9139
:104190000895263FFCE53F07E9F0B0F0273F3C4596
:1041A000F9F0FC018281882339F11092DF03EFCF0F
:1041B00007E225EE45EE69ED7CE5E6CF06E221EE6D
:1041C00040EE64EF7CE5E0CF07E225EE44EE65EFDC
:1041D0007CE5DACF06E221EE42EE66EF7CE5D4CF55
:1041E00007E225EE46EE67EF7CE5CECF08E221E060
:1041F00045EE6AED7CE5C8CF81E0C9CF1092B900E9
:104200008CE08093B80008959F92AF92BF92CF92B6
:10421000DF92EF92FF920F931F93CF93DF93B82E0D
:10422000EB010E946C256C01EE24E394F12CC43167
:10423000D10560F025E0E22EF12CCF3FDC0731F014
:10424000CE0164E170E00E94BD2C7B0184EAA82EBF
:1042500094E8992E1092BC00A092BC000E946C259C
:104260008C018091BC0087FF0DC08091B900887FD0
:10427000883039F18091B900887F803111F10FEFDA
:104280001FEF09C00E946C25801B910B8E159F05A6
:1042900040F30EEF1FEFCF3FDC07E1F2C6010E94B3
:1042A00084258C179D07B0F2C801DF91CF911F9133
:1042B0000F91FF90EF90DF90CF90BF90AF909F90C5
:1042C0000895B092BB009092BC000E946C258C01B6
:1042D0008091BC0087FF0AC08091B900887F883137
:1042E00011F0803461F610E000E0DECF0E946C2512
:1042F000801B910B8E159F0558F3CBCF0F931F9307
:10430000CF93DF93EB018093BB0084E88093BC00E4
:104310000E946C258C018091BC0087FF11C0209108
:10432000B900287F81E090E0283211F490E080E02D
:10433000919581959109DF91CF911F910F910895EA
:10434000CF3FDC0741F30E946C25801B910B8C173B
:104350009D0708F38EEF9FEFEECFCF92DF92EF92A3
:10436000FF920F931F93CF93DF936B018A01790123
:10437000B9010E940421E6010C0D1D1DC017D107D3
:1043800061F424E92093BC00DF91CF911F910F913C
:10439000FF90EF90DF90CF90089597FDF2CFB70197
:1043A00089910E947E21EACFCF92DF92EF92FF9215
:1043B0000F931F93CF93DF93C62F6A017901B80142
:1043C0000E94042197FD0CC0B8018C2F0E947E2111
:1043D000E601EC0CFD1CCE15DF0511F097FF0CC0BB
:1043E00024E92093BC00DF91CF911F910F91FF90A2
:1043F000EF90DF90CF900895B80189910E947E21BF
:10440000EACF84E98093BC0008958EE14A9B02C004
:104410008150E1F74A9BFECF08955A9880E28A9531
:10442000F1F75A9A0895FC013BE03A95F1F798E0CC
:1044300020E080E031E040E14A95F1F7880F4A9BA7
:1044400002C08160232742E04A95F1F7000040E175
:104450004A95F1F7915079F790E19A95F1F799B172
:1044600032E03A95F1F7000040E14A95F1F792FB0E
:10447000992790F992272081920F90830895EF92C7
:10448000FF920F931F93CF93DF930F92CDB7DEB7B9
:1044900019828C017C01E60EF11C0E151F0561F4DA
:1044A00081E09981911180E00F90DF91CF911F9170
:1044B0000F91FF90EF9008950E940522CE01019682
:1044C0000E941322F80181938F01E7CF529A5A9AE2
:1044D000089552985A9AEA9AE9E6F0E080818F7C32
:1044E000808308956150770B91E001C0990F6A9520
:1044F000EAF720E031E0911108C0222391F05A9AA6
:1045000080E28A95F1F75A980895492F482339F0A7
:104510005A9A232740E24A95F1F79695ECCF5A989C
:10452000F9CF5A98EDCFFF920F931F93CF93DF935C
:10453000EC018C01060F111DC017D10731F4DF917A
:10454000CF911F910F91FF900895F9900E940D2235
:1045500068E08F2D0E947222EFCF1F920F920FB64C
:104560000F921124EF92FF920F931F932F933F937B
:104570004F935F936F937F938F939F93AF93BF936B
:10458000EF93FF93CF93DF930F92CDB7DEB71982EE
:104590000E940522CE0101960E941322A82FA69503
:1045A000A695A695282F229525709A2F9570290FEC
:1045B000922F937026952695920F98279770898150
:1045C000982B09F075C0A63008F072C080E18A957A
:1045D000F1F75A9A529AB2E0BA95F1F700C05A9898
:1045E000EA2EF12CEAE0AE9FD0011124AB5BBE4F66
:1045F0001896ED91FC9119973097B1F060919A025D
:1046000070919B0216962D913C911797260F371F9C
:1046100013968D919C911497680F791F15964C9164
:10462000159712968C9109958AE08E9DF0018F9DC9
:10463000F00D1124EB5BFE4F6581662351F0209154
:104640009A0230919B0286819781820F931F0E946C
:1046500093220E940D22F0E1FA95F1F75A985298B0
:104660005A9A80E18A95F1F78AE08E9D80018F9DAC
:10467000100D11240B5B1E4FD80112966C911297EE
:10468000662371F120919A0230919B0213968D91CD
:104690009C91820F931F0E943F22D801ED91FC91C3
:1046A000882311F088E001C082E080830E94052207
:1046B0000F90DF91CF91FF91EF91BF91AF919F91BB
:1046C0008F917F916F915F914F913F912F911F91AA
:1046D0000F91FF90EF900F900FBE0F901F901895C5
:1046E000ED91FC91DFCF0F931F93CF93DF93EC01FC
:1046F00006970CF0A9C08AE08C9FF0018D9FF00D09
:104700001124EB5BFE4F80819181892B09F49CC0C1
:10471000F894529A5A9885E08A95F1F700008C2F08
:10472000869585709C2F9570890F982F937086952C
:104730008695890F8E0193E0000F111F9A95E1F77E
:10474000082B0E940D2200C068E0802F0E94722278
:10475000A0E1AA95F1F752985A9A4A9B27C087E0A0
:1047600090E04A9925C08AE08C9F80018D9F100DB2
:1047700011240B5B1E4FF80165816623A1F1209186
:104780009A0230919B0286819781820F931F0E942B
:104790003F22811128C0529A5A9AD801ED91FC917A
:1047A00082E08083789482E090E016C000C0D5CF8C
:1047B0000197B9F4529A5A9A8AE08C9FF0018D9F22
:1047C000F00D1124EB5BFE4F0190F081E02D81E0B4
:1047D0008083789481E090E0DF91CF911F910F91D9
:1047E000089500C0BECF0E940522B0E2BA95F1F74D
:1047F0005A98529AE0E1EA95F1F78AE08C9FF0012D
:104800008D9FF00D1124EB5BFE4F6281662351F00A
:1048100020919A0230919B0283819481820F931F91
:104820000E9493220E940D228AE08C9FF0018D9FAE
:10483000F00D1124EB5BFE4F0190F081E02D108212
:10484000789490E080E0C8CF84E090E0C5CF90936A
:10485000B5028093B40208959093E6038093E50334
:1048600008950E94EC15811103C08091E003089522
:10487000E091E503F091E603309721F00190F0819B
:10488000E02D099480E00895E091E503F091E603BE
:10489000309721F00280F381E02D09940895E09192
:1048A000E503F091E603309739F022E0DC012C9328
:1048B0000480F581E02D099408952091E30330915F
:1048C000E4032817390771F09093E4038093E3031E
:1048D000E091E503F091E603309721F00680F7813F
:1048E000E02D099408952091E1033091E203281707
:1048F000390771F09093E2038093E103E091E503BF
:10490000F091E603309721F00084F185E02D0994C1
:1049100008959C012E5F3F4FAC01485F5F4F80E0E0
:104920002417350709F40895F90191919F019923FE
:10493000B9F38F5FF5CF662349F0FC0132960896F4
:104940002191261729F0E817F907D1F780E008959B
:1049500081E008959C01FC0132969FEF80E0419137
:10496000461751F09F3F19F4411101C0982F8F5FF6
:104970008630A9F79F3F09F40895290F311D97FD4F
:104980003A95F90162830895FC01329608962191C7
:10499000261303C0DF0111971C92E817F907B9F736
:1049A00008950C94AA240C94C424029626E0FC01D9
:1049B00011922A95E9F7089508950C94DC24811149
:1049C00005C081E08093E7030C94DD2482E0FACFF8
:1049D00083E08093E7030C94DD240C94DF2481E0D2
:1049E0008093E7030C94DD240C94EF2408958091C8
:1049F0003B06843031F10E9466061092E80388E19C
:104A000090E020E40FB6F894A895809360000FBE64
:104A10002093600083B7817F846083BF83B7816008
:104A200083BF7894889583B78E7F83BF0FB6F89441
:104A3000A89580916000886180936000109260006A
:104A40000FBE089508950895CF930E9422250E94D5
:104A500062150E942325C0E08C2F0E942B14811127
:104A600005C0CF5FCA30C1F7CF91089581E0FCCF78
:104A70000E94520A0C94D0061F921FB61F92112456
:104A80008F939F93AF93BF938091E803811113C0DD
:104A90008091330690913406A0913506B091360688
:104AA0004196A11DB11D8093330690933406A093C7
:104AB0003506B0933606BF91AF919F918F911F90AD
:104AC0001FBE1F90189582E084BD93E095BD9AEFBC
:104AD00097BD80936E0008952FB7F89480913306A8
:104AE00090913406A0913506B09136062FBF0895F7
:104AF0002FB7F89460913306709134068091350693
:104B0000909136062FBF08959C014FB7F89480917D
:104B1000330690913406A0913506B09136064FBF0A
:104B2000821B930B0895CF92DF92EF92FF922FB7E3
:104B3000F894C0903306D0903406E0903506F0909B
:104B400036062FBFA7019601261B370B480B590BC2
:104B5000CA01B901FF90EF90DF90CF90089578944B
:104B60001F921FB61F9211248F939F93AF93BF93F1
:104B70008091330690913406A0913506B0913606A7
:104B80000196A11DB11D8093330690933406A09326
:104B90003506B0933606BF91AF919F918F911F90CC
:104BA0001FBE1F90189587E797E7909301088093A1
:104BB000000888E19AE00FB6F894A8958093600009
:104BC0000FBE90936000FFCF8091F4030895089585
:104BD0009C0182E08093E9009FEF8091E800915072
:104BE00085FD06C085ED8A95F1F700009111F5CF9E
:104BF0008091E80085FF0CC050E040E066E070E086
:104C0000C9010E940E288091E8008E778093E80009
:104C10000895CF93DF93EC0181E08093E9008FEF5B
:104C20009091E800815095FD06C095ED9A95F1F7B9
:104C300000008111F5CF8091E80085FF14C050E09D
:104C400040E068E070E0CE010E940E288091E8000C
:104C50008E778093E80088E0FE01ACEEB3E001902F
:104C60000D928A95E1F7DF91CF9108958093E90342
:104C70007093EB036093EA0380913B06843001F567
:104C800082E08093E9008FEF9091E800815095FDDC
:104C900006C095ED9A95F1F700008111F5CF80914E
:104CA000E80085FF0DC050E040E063E070E089EE71
:104CB00093E00E940E288091E8008E778093E800B0
:104CC0000895BC0184E00C943626BC0183E00C946A
:104CD000362680913A06811109C00E949E290E94C1
:104CE000FB298091E20084608093E2000895109295
:104CF0003A0608950C94EF246091370681E0611123
:104D000001C080E00C94E82490913B0681E094304F
:104D100009F080E0609137060C94ED2442E061ECEC
:104D200081E00E941A2942E261EC82E00E941A2985
:104D300090913B0681E0943009F080E06091370665
:104D40000C94DF2480913D06833009F460C030F478
:104D50008130C9F1823009F49CC008958A3009F489
:104D600088C08B3009F46EC0893009F04FC0809143
:104D70003C06813209F04AC080914006909141067C
:104D8000029708F043C08091E800877F8093E80095
:104D90008091E80082FF36C09091F3008091F2008C
:104DA000029731F48091F100813011F0863021F4C6
:104DB0008091F1008093F4038091E8008B778093D9
:104DC000E8000C944E2980913C06813AF9F48091D8
:104DD000E800877F8093E80080914006909141062B
:104DE000892B61F468E08CEE93E070E00E945D280E
:104DF0008091E8008B778093E800089560E090E070
:104E000080E0F3CF80913B068111C2CF089580915D
:104E10003C06813AD9F78091400690914106892B52
:104E2000A9F78091E800877F8093E8008091E800EF
:104E300080FFFCCF809192018093F1008091E80087
:104E40008E77BDCF80913C06813201F7809140067C
:104E500090914106892BD1F68091E800877F80935D
:104E6000E8000E944E2980913E06809392010C94A6
:104E7000520A80913C06813249F68091E800877F92
:104E80008093E8000E944E2980913F068093F503AD
:104E9000089580913C06813A09F0B8CF8091E800EE
:104EA000877F8093E8008091E80080FFFCCF8091AD
:104EB000F503C2CF84B7877F84BF0FB6F894A89557
:104EC00080916000886180936000109260000FBE46
:104ED00080E890E00FB6F8948093610090936100B1
:104EE0000FBE0C94F4240E949E290E94FB29E2EE3E
:104EF000F0E080818460808378940C94842C86E830
:104F000091E00C942C2480913B068530A9F480918B
:104F10003B06853011F00C9438250E94F7248091CF
:104F200039068823A1F30E942425882381F30E9457
:104F3000F8270E94520AEBCF089508950C94A027F9
:104F4000292F33272330310519F168F42130310539
:104F500009F444C02230310509F445C090E080E0F6
:104F600030E020E025C02132310549F122323105FF
:104F7000A9F780E490E02EED38E061157105C1F0ED
:104F80008BE790E023E638E06130710589F0E6CFE9
:104F900099278130910581F0009729F00297F1F669
:104FA000E0EFF7E002C0E2E1F8E0849190E09F01D9
:104FB000FA01318320830895E0E0F8E0F6CF89E03C
:104FC00090E028E238E06115710591F389E090E006
:104FD00021E438E06130710559F3C0CF82E190E0FF
:104FE00021E538E0E5CF8BE390E026E138E0E0CF43
:104FF00080E189BD82E189BD09B400FEFDCF8091C9
:10500000D8008F7D8093D8008091E00082608093EB
:10501000E0008091E00081FDFCCF0895AF92BF9247
:10502000CF92DF92FF920F931F93CF93DF936C0188
:10503000EB018A010E946D29F82E811123C0011510
:10504000110539F0F80180819181C81BD90BC80E78
:10505000D91EB12CA12C2097A9F08091E80085FDE4
:1050600022C08091E8008E778093E8000115110539
:10507000A1F0F80180819181A80EB91EB182A082B1
:1050800085E0F82E8F2DDF91CF911F910F91FF902A
:10509000DF90CF90BF90AF9008950E946D29882334
:1050A000D1F2F82EEFCFF60181916F018093F100DC
:1050B0002197FFEFAF1ABF0ACECFFC0180914206C5
:1050C0009091430686179707A0F06115710529F4A2
:1050D0009091E8009E779093E80090E0611571054B
:1050E00051F4911108C08091E80082FF34C080E043
:1050F0000895BC01F2CF80913B068823C1F1853031
:10510000C1F18091E80083FD30C08091E80082FD0C
:10511000EACF8091E80080FFE1CF8091F3002091F9
:10512000F200382F6115710519F02830310558F05B
:1051300091E02830310509F090E02091E8002E77C9
:105140002093E800CBCF81918093F10061507109E9
:105150002F5F3F4FE7CF80913B06882341F085309A
:1051600041F08091E80083FFBECF81E0089582E0A6
:10517000089583E00895FC018091420690914306D2
:1051800086179707A0F06115710529F48091E80052
:105190008E778093E80090E06115710551F49111CC
:1051A00008C08091E80082FF35C080E00895BC010E
:1051B000F2CF80913B068823C9F18530C9F18091F7
:1051C000E80083FD31C08091E80082FDEACF809144
:1051D000E80080FFE1CF8091F3002091F200382FAA
:1051E0006115710519F02830310558F091E028302B
:1051F000310509F090E08091E8008E778093E80017
:10520000CBCF84918093F1003196615071092F5F6B
:105210003F4FE6CF80913B06882341F0853041F037
:105220008091E80083FFBDCF81E0089582E008957A
:1052300083E00895982F973028F08F708093E900CD
:1052400081E008959093E900242F762F50E098177D
:1052500031F07091EC002091ED005091F00021FDB3
:1052600002C09F5FE8CF3091EB003E7F3093EB00B0
:105270003091ED003D7F3093ED003091EB003160D7
:105280003093EB007093EC002093ED005093F0000E
:105290002091EE0027FDE5CF80E0089580913C0647
:1052A00087FF13C08091E80082FF06C08091E8006C
:1052B0008B778093E80004C080913B068111F2CF88
:1052C000089580913B068823D9F38091E80080FF00
:1052D000F8CF8091E8008E77ECCF2091E4003091F8
:1052E000E50095E6A9012091EC00822F817020FF56
:1052F00006C08091E80080FF06C080E008952091FC
:10530000E80022FD1AC080913B06882389F0853091
:1053100089F08091EB0085FD0FC02091E400309171
:10532000E50042175307F9F29150E1F684E0089541
:1053300082E0089583E0089581E008950E940C2A98
:105340000E94142AE0EEF0E0808181608083E8ED25
:10535000F0E080818F77808319BCA7EDB0E08C915D
:105360008E7F8C9380818F7E808310923A06089581
:105370000F931F93CF93DF930E940C2A0E94142A4D
:10538000C8EDD0E088818F778883888180688883A2
:1053900088818F7D888319BC10923B061092370656
:1053A000109239061092380600EE10E0F801808164
:1053B0008B7F808388818160888342E060E080E029
:1053C0000E941A29E1EEF0E080818E7F8083E2EE78
:1053D000F0E0808181608083808188608083F80133
:1053E00080818E7F8083888180618883DF91CF91E7
:1053F0001F910F910895E8EDF0E080818F7E80830A
:10540000E7EDF0E080818160808384E082BF81E00D
:1054100080933A060C94B829E8EDF0E080818E7F05
:1054200080831092E20008951092DA001092E10059
:1054300008951F920F920FB60F9211242F933F934E
:105440004F935F936F937F938F939F93AF93BF938C
:10545000EF93FF938091E10082FF0BC08091E20007
:1054600082FF07C08091E1008B7F8093E1000E9462
:10547000832C8091DA0080FF19C08091D80080FFD2
:1054800015C08091DA008E7F8093DA008091D90078
:1054900080FF96C080E189BD82E189BD09B400FE2C
:1054A000FDCF81E080933B060E9469268091E10058
:1054B00080FF19C08091E20080FF15C08091E2005A
:1054C0008E7F8093E2008091E20080618093E20011
:1054D0008091D80080628093D80019BC85E08093C9
:1054E0003B060E947C268091E10084FF2BC08091C6
:1054F000E20084FF27C080E189BD82E189BD89B5D2
:10550000982F917080FFFBCF8091D8008F7D809382
:10551000D8008091E1008F7E8093E1008091E200CD
:105520008F7E8093E2008091E20081608093E200B0
:1055300080913706882309F449C084E080933B06B4
:105540000E9484268091E10083FF29C08091E200BF
:1055500083FF25C08091E100877F8093E10082E096
:1055600080933B06109237068091E1008E7F8093F6
:10557000E1008091E2008E7F8093E2008091E20062
:1055800080618093E20042E060E080E00E941A299E
:105590008091F00088608093F0000E947A26FF914D
:1055A000EF91BF91AF919F918F917F916F915F919B
:1055B0004F913F912F910F900FBE0F901F90189514
:1055C00019BC10923B060E94772670CF8091E300B1
:1055D00087FD93E090933B06B3CF1F920F920FB6D7
:1055E0000F9211242F933F934F935F936F937F9369
:1055F0008F939F93AF93BF93CF93DF93EF93FF93DB
:10560000D091E900DF708091EC00C82FC17080FD5F
:10561000C0E81092E9008091F000877F8093F0004D
:1056200078940E94312B1092E9008091F0008860FC
:105630008093F000CD2BCF70C093E900FF91EF91E4
:10564000DF91CF91BF91AF919F918F917F916F919A
:105650005F914F913F912F910F900FBE0F901F9030
:1056600018951F93CF93DF93CDB7DEB7AA970FB6E8
:10567000F894DEBF0FBECDBF8CE396E02091F10021
:10568000FC012193CF01F6E084349F07B9F70E9413
:10569000A2268091E80083FF1EC180913C06909174
:1056A0003D069A3008F017C1E92FF0E0EB5BFF4CA4
:1056B0000C94E52C803899F0823809F00CC1809167
:1056C00040068F70873008F006C18093E900809112
:1056D000EB0085FB882780F91092E90006C08091D5
:1056E000380690913906911182609091E800977F79
:1056F0009093E8008093F1001092F1008091E8000F
:105700008E77E5C0882309F4D3C0823009F0E3C066
:1057100080913E068111D6C0809140068F702FEF98
:10572000280F263008F0D7C08093E9002091EB00C5
:1057300020FFC8C0933031F48091EB0080628093E9
:10574000EB00C0C09091EB0090619093EB0021E0E2
:1057500030E001C0220F8A95EAF72093EA00109208
:10576000EA008091EB008860EACF8111B4C010910B
:105770003E061F778091E3008078812B8093E300C1
:105780008091E800877F8093E8000E944E298091F5
:10579000E80080FFFCCF8091E30080688093E30005
:1057A00082E0111183E080933B0695C080588230DF
:1057B00008F091C080913E0690913F068C3D23E019
:1057C0009207A1F583E08A838AE289834FB7F89430
:1057D000DE01139620E03EE051E2E32FF0E050932B
:1057E0005700E49120FF03C0E295EF703F5FEF7038
:1057F0008E2F90E0EA30C0F0C7968D939D932F5F77
:10580000243159F74FBF8091E800877F8093E800EB
:105810006AE270E0CE0101960E945D288091E80066
:105820008B778093E80057C0C096E7CF6091400621
:1058300070914106AE014F5F5F4F0E949E27BC01F1
:10584000892B09F448C09091E800977F9093E80075
:1058500089819A810E94BB28E1CF8038E1F580914F
:10586000E800877F8093E800809137068093F100FD
:1058700045CF811130C090913E06923060F5809105
:10588000E800877F8093E800909337060E944E29B6
:1058900080913706882311F084E005C08091E300F1
:1058A00087FDFACF81E080933B060E948E2613C0CD
:1058B00080913E06813079F481E0933009F080E0F8
:1058C000809339061092E9008091E800877F8093E9
:1058D000E8000E944E298091E80083FF0AC0809171
:1058E000E800877F8093E8008091EB0080628093DE
:1058F000EB00AA960FB6F894DEBF0FBECDBFDF91C6
:10590000CF911F9108950895CF9380913B068823EE
:10591000A1F0C091E900CF709091EC00892F8170C7
:1059200090FD80E8C82B1092E9008091E80083FD8B
:105930000E94312BCF70C093E900CF9108950E944F
:105940009E2910923B060895E8EDF0E08081806189
:1059500080838AE18A95F1F700C08091D900817037
:105960000895991B79E004C0991F961708F0961BBB
:10597000881F7A95C9F780950895AA1BBB1B51E132
:1059800007C0AA1FBB1FA617B70710F0A61BB70BAF
:10599000881F991F5A95A9F780959095BC01CD0154
:1059A000089597FB072E16F4009407D077FD09D0D1
:1059B0000E94BD2C07FC05D03EF4909581959F4F29
:1059C0000895709561957F4F0895EE0FFF1F059024
:1059D000F491E02D0994FB01DC0102C005900D92C9
:1059E00041505040D8F70895FB01DC0104C08D916F
:1059F0000190801921F441505040C8F7881B990B41
:105A00000895FB01DC0102C001900D92415050400D
:105A1000D8F70895FB01DC0101900D920020E1F719
:105A20000895AEE0B0E0E7E1FDE20C9400300D89AE
:105A30001E898F89988D26E02C831A83098397FF0E
:105A400002C080E090E801979E838D83AE01455EA1
:105A50005F4F698D7A8DCE0101960E94412D4D8157
:105A60005E8157FD0AC02F813885421753070CF419
:105A70009A01020F131FF80110822E96E4E00C9495
:105A80001C30ABE0B0E0E7E4FDE20C94F22F7C01C7
:105A90003B018A01FC0117821682838181FFB9C113
:105AA0009AE0292ECE0101965C01F7019381F30162
:105AB00093FD859193FF81913F01882309F446C1AD
:105AC000853239F493FD859193FF81913F018532B1
:105AD00029F4B70190E00E94222FE7CF912C412CAE
