:100000000C946B040C94B2040C94B2040C94D01FA6
:100010000C94B2040C94B2040C94B2040C94B20488
:100020000C94B2040C94B2040C940E270C94E227A6
:100030000C9451220C94B2040C94B2040C94B204AB
:100040000C94B2040C94B2040C94B2040C94B20458
:100050000C94B2040C94C4220C94B2040C94B20418
:100060000C94B2040C94B2040C94B2040C94B20438
:100070000C94B2040C94B2040C94B2040C94B20428
:100080000C94B2040C94B2040C94B2040C94B20418
:100090000C94B2040C94B2040C94B2040C94B20408
:1000A0000C94B2040C94B2040C94B20429001E0007
:1000B0001F002000210022002B0014001A0008005D
:1000C00015001700E10004001600070009000A00EF
:1000D000E0001D001B000600190005000000E20002
:1000E000015168002C002F002A002700260025005F
:1000F000240023003400130012000C0018001C0020
:10010000280033000F000E000D000B00E500380042
:10011000370036001000110000004C00E7000251CB
:10012000280001543A003B003C003D003E003F00E7
:1001300035002A005200280001000100E1005000B3
:1001400051004F002D0000003900AC00AE00AB00A4
:100150000000000000000100010001000100690032
:100160002E0030002F004200410040002D005700BB
:1001700001000100010001003502270226022502CC
:1001800000002302310230022F020000000024028E
:100190000000010001002D0201000100010001002A
:1001A000010001000100010035001E001F002000B9
:1001B000210022003A003B003C003D003E003F0091
:1001C000400041004200430044004500000001009F
:1001D00001000351010001000100010001000100C4
:1001E0000100010001002700260025002400230053
:1001F00000004F005200510050000000310030005C
:100200002F002E002D002E02000001000100010031
:100210000100010000001E021F0220022102220232
:1002200000000000000000000000000000000000CE
:1002300000000000000000000000000000000000BE
:1002400000000000000001000100010001000000AA
:1002500000002702260225022402230200000000DB
:10026000000000000000000000000000000000008E
:10027000000000000000000000000000000000007E
:1002800000000100010001000100010000AE00AF0C
:1002900000DA0281FFD9F1DB20A4A62EAF00A0C0B6
:1002A00000A1C800AED580A81FD300408D14200047
:1002B0000000000000003E5B4F5B3E003E6B4F6B5A
:1002C0003E001C3E7C3E1C00183C7E3C18001C5727
:1002D0007D571C001C5E7F5E1C0000183C1800004F
:1002E000FFE7C3E7FF00001824180000FFE7DBE783
:1002F000FF0030483A060E00262979292600407F63
:1003000005050700407F05253F005A3CE73C5A00A1
:100310007F3E1C1C0800081C1C3E7F0014227F220C
:1003200014005F5F005F5F0006097F017F000066C9
:1003300089956A0060606060600094A2FFA29400EA
:1003400008047E04080010207E20100008082A1CE3
:100350000800081C2A0808001E10101010000C1EAF
:100360000C1E0C0030383E383000060E3E0E0600E3
:1003700000000000000000005F0000000007000710
:100380000000147F147F1400242A7F2A12002313F4
:100390000864620036495620500000080703000038
:1003A000001C224100000041221C00002A1C7F1C6E
:1003B0002A0008083E080800008070300000080885
:1003C0000808080000006060000020100804020017
:1003D0003E5149453E0000427F4000007249494974
:1003E00046002141494D33001814127F1000274563
:1003F000454539003C4A494931004121110907006E
:10040000364949493600464949291E000000140072
:1004100000000040340000000008142241001414C1
:1004200014141400004122140800020159090600A6
:100430003E415D594E007C1211127C007F494949B2
:1004400036003E41414122007F4141413E007F490B
:10045000494941007F09090901003E4141517300AA
:100460007F0808087F0000417F4100002040413F95
:1004700001007F08142241007F40404040007F027D
:100480001C027F007F0408107F003E4141413E0076
:100490007F09090906003E4151215E007F091929A3
:1004A000460026494949320003017F0103003F40CD
:1004B00040403F001F2040201F003F4038403F0089
:1004C0006314081463000304780403006159494D60
:1004D0004300007F41414100020408102000004118
:1004E00041417F00040201020400404040404000BE
:1004F0000003070800002054547840007F2844443B
:100500003800384444442800384444287F00385494
:100510005454180000087E0902001824241C780096
:100520007F080404780000447D4000002040403DE6
:1005300000007F102844000000417F4000007C0440
:10054000780478007C080404780038444444380077
:100550007C1824241800182424187C007C08040427
:10056000080048545454240004043F4424003C40F0
:1005700040207C001C2040201C003C4030403C00BF
:100580004428102844004C9090907C004464544CC3
:1005900044000008364100000000770000000041E0
:1005A000360800000201020402003C2623263C001B
:1005B000000000000080808080000000000080E0DB
:1005C00070180C1830E080000010F890103078306F
:1005D00010B8FC3810000000000000F8FCF8000023
:1005E00000000000000000000000001C9C1C000037
:1005F0000000F8FCF80000000000001CFCF8C0003F
:10060000000000000080E0F87C1C000000F0FCFC12
:10061000FC1C1C1C1C1C1C1C1C000000000000C03E
:10062000F0F8381C1C1C1C1C1C3CF8F0E000E0F02E
:10063000F0F0E0ECEEF7F37020007C7C7C7E007E36
:100640007E7E7F7F7F000080C0E07E5B4F5BFEC0D0
:100650000000C000DCD7DEDEDED7DC00C00000001A
:10066000000000000000000000000000000000008A
:1006700000000000000FBCE0818181838382870C31
:10068000183060C000001FFE90B9FFBB91983C1865
:1006900011133F1100000000000000FFFFFF0000E9
:1006A0000000000000000000000000FFFFFF00004D
:1006B0000000FFFFFF0000000000000000030F7FAC
:1006C000F8E080F0FC3F0F0100000000003F3F3FDA
:1006D0001C1C1C1C1C3C78F8F0E08000000000C3CF
:1006E000E7FF7E3C3878787070F8FFDF87000F1FD7
:1006F0003F7F7F7F7F7F3F1E0C001F1F1F3F003FFC
:100700003F3F7F7F7F00307B7F7830202030787FB5
:100710003B0003000F7F0F0F0F7F0F00030000004F
:1007200000000000000000000000000000000000C9
:10073000183C24666341C18180808080808081C1B3
:100740004162386C4CC68181808080808081C14349
:1007500062361C1800000000000000FFFFFFC0C050
:10076000C0C0C0C0C0C0C0800000007FFF7F0000CC
:1007700000007FFFFFC080000000E0E0C0C0C0E0DC
:10078000F97F1F0700000000000000000070F0E08B
:10079000E0C0C0C0C0E0F0F87F3F0F0000000F3F96
:1007A0007FF9E0E0C0C0C0C0C0E0F97F3F1F00009B
:1007B0000000000000000000000000000000000039
:1007C0000000000000000000000000000000000029
:1007D0000000000000000000000000000000000019
:1007E0000000000000000000000000000000000009
:1007F0000E034C0069006C007900350038000000E1
:1008000010036C0069006C00690075006D007300D6
:1008100000000403090409023B00020100A0FA09D8
:10082000040000010301010009211101000122401F
:10083000000705810308000A090401000103000004
:100840000009211101000122320007058203200066
:100850000A1201000200000008D8042DEB0001017B
:1008600002000105010980A101850319012AB700D1
:10087000150126B700950175108100C0050C09010E
:10088000A101850419012AA002150126A0029501E3
:1008900075108100C005010906A101050719E029AD
:1008A000E7150025019508750181029501750881FC
:1008B000010507190029FF150026FF009506750898
:1008C0008100050819012905950575019102950119
:1008D00075039101C00011241FBECFEFDAE0DEBF27
:1008E000CDBF04B603FE27C080912F06909130063D
:1008F000A0913106B09132068730904BA740B04BA3
:10090000D1F410922F0610923006109231061092F8
:10091000320614BE84B7877F84BF0FB6F894A895BB
:1009200080916000886180936000109260000FBE2B
:10093000E0E0F8E3099512E0A0E0B1E0E8E8FAE5CC
:1009400002C005900D92AC3AB107D9F726E0ACEAA7
:10095000B2E001C01D92AF32B207E1F70E94321837
:100960000C941E2D0C9400008091060390910703B7
:10097000A0910803B091090384309105A105B10548
:10098000E1F128F50097A105B10571F167EA71E081
:1009900082309105A105B10549F1BF93AF939F93B3
:1009A0008F9382EC91E09F938F931F9288E18F93B6
:1009B00081EE93E09F938F930E94062A8DB79EB796
:1009C0000A960FB6F8949EBF0FBE8DBF13C0883035
:1009D0009105A105B10529F08E309105A105B1055C
:1009E000E1F664EB71E002C06BE871E081EE93E048
:1009F0000E94FF2981EE93E008956AE971E0F6CF45
:100A000080E091E00895CF93C0E28C33910520F40B
:100A1000FC01EC51FE4FC0811F92CF939F938F93A7
:100A2000FB0180811F928F9381811F928F9383EDB1
:100A300091E09F938F931F9288E18F9385EC92E0D2
:100A40009F938F930E94062A8DB79EB70E960FB67E
:100A5000F8949EBF0FBE8DBF8091AE029091AF0201
:100A6000449761F41092AF021092AE02E0EBF2E014
:100A700080E2819392E0E43CF907D9F78091AE02DD
:100A80009091AF02FC01E055FD4FC0830196909319
:100A9000AF028093AE02CF91089585EC92E0089565
:100AA00080EB92E008950F9303E022E041E00E9482
:100AB000E6050F910895CF93C82F0E949A158111D2
:100AC00001C0C2E08C2FCF9108950E949A1588230F
:100AD00089F00E94B40460E00E94E4190E944D0570
:100AE00060E00E94E4190E94500560E00E94E41951
:100AF00080E008950E94000560E00E94C819F8CFC8
:100B0000FB01228121110E94030581E008958111DA
:100B100007C0662349F089EA0E948A0781E00895A8
:100B20008130E1F76623B9F38AEAF6CF81E00895D0
:100B30000C94800508950C949A051F93CF93DF932E
:100B400000D000D00F92CDB7DEB749835A836B83B4
:100B50003091DD0289819A8131111DC06623B9F07F
:100B60002223A9F00E94BC0B182F682F89819A813B
:100B70000E94650B69817A81812F0F900F900F90F1
:100B80000F900F90DF91CF911F910C9479120E94DA
:100B9000930B182FEFCF0E94BC0B69817A81EDCFA8
:100BA000FC01262F408151816281738184810C94E4
:100BB0009D0581E00895CF93DF93EC0160E00E94F2
:100BC000D005BE01DF91CF910C949B058F929F922F
:100BD000AF92BF92CF92DF92EF92FF920F931F934B
:100BE0006B017C0181E090E0A0E0B0E04C015D0190
:100BF00004C0880C991CAA1CBB1C4A95D2F7B501ED
:100C0000A4014C015D0104C0880C991CAA1CBB1CEA
:100C10002A95D2F7482959296A297B2904C0880FC7
:100C2000991FAA1FBB1F0A95D2F78A019B010C21AD
:100C30001D212E213F21041715072607370789F4A8
:100C40008C299D29AE29BF29BC01CD011F910F918F
:100C5000FF90EF90DF90CF90BF90AF909F908F90DC
:100C6000089580959095A095B0958C219D21AE21F9
:100C7000BF21EACF0E94AF130E94B9060C94D4138F
:100C80000C94D71380E00E94BA060C94051B0895BB
:100C900008950E94100A0E9448062FEF84E39CE00A
:100CA000215080409040E1F700C000000C94E82201
:100CB0000F931F93CF93DF938C0161E00E94D005C7
:100CC000EC01B8010E9498058823A9F1B801CE0172
:100CD0000E94CF1D882379F1B801CE010E945C1BD0
:100CE000882349F1B801CE010E94391D882319F1EA
:100CF000F8018281882361F0CB35FDE5DF0721F122
:100D000070F4C115ECE5DE07A1F0CF3DDC45C9F07C
:100D1000C801DF91CF911F910F910C949605CC35AE
:100D20008DE5D807A1F0CD35DD4591F70E94D20FB2
:100D3000EFCF0E94490680E0DF91CF911F910F9184
:100D400008950E948610F7CF0E94DB0FE1CF0E942A
:100D5000DE0FDECF0C9447060E9454210E94BA0693
:100D60000C94AA0608950C94B20681E008950C94A0
:100D7000B5060895CF93C82F0E94B3068C2FCF914C
:100D80000C94B706CF93DF93CDB7DEB72B970FB692
:100D9000F894DEBF0FBECDBF4F83588769877A872F
:100DA0008B8761110E942D0F1E821D8285E0FE013E
:100DB0003796DE01119601900D928A95E1F78C81AC
:100DC0009D81892B89F449815A816B817C818D8138
:100DD0009E810E944E0E2B960FB6F894DEBF0FBE7A
:100DE000CDBFDF91CF91089589819A8189238F3F6B
:100DF00051F3CE0101960E94D9058111E4CFEBCFCA
:100E0000FC01808191810C94FE0BCF93C82F882325
:100E100009F43FC08CEF8C0F813AA0F46C2F8091C5
:100E20004201909143010E94B021882329F08C2F28
:100E30000E94EF0E0E94500F8C2F0E94E80ECF915F
:100E40000C94500F80E28C0F883048F4C77081E01A
:100E500001C0880FCA95EAF70E94100FF0CFEBE5AA
:100E6000EC0FE33040F4F0E0E25BFD4F808190E076
:100E7000CF910C947221C85AC73158F4EC2FF0E08E
:100E8000EE0FFF1FE05EFD4F80819181CF910C94AA
:100E90008821CF910895882329F19CEF980F913AEA
:100EA00020F40E94EF0E0C94500F90E2980F9830AF
:100EB00050F4877091E001C0990F8A95EAF7892F65
:100EC0000E94160FF0CF9BE5980F933020F490E02E
:100ED00080E00C947221885A873120F490E080E001
:100EE0000C94882108951F93CF93DF93182FEB0163
:100EF0000E940507209731F4812FDF91CF911F9138
:100F00000C944B078FE99FE00197F1F700C00000B8
:100F10002197F0CF70E060E0893311F460E570E074
:100F20000C947307882321F00E94100F0C94500F2B
:100F30000895882321F00E94160F0C94500F0895F5
:100F4000BF92CF92DF92EF92FF920F931F93CF93B6
:100F5000DF936C01D62FC72FFC011281F580F2942C
:100F60009FE0F9220E94060FE82E8823B9F0E12EB7
:100F70001123A1F08C2F807F803421F080E28D0F2F
:100F80008830D0F08091FE0382FD16C082E00E947E
:100F9000A10F0E94060F91E0E82EE926BC2EB29424
:100FA0008FE0B822FBE0FB1508F468C0EB2DF0E001
:100FB000E05EF24D0C94DA29E12CF0CF0C2F0F708B
:100FC000C07F11F00295007F112399F0002359F0A2
:100FD00080E28D0F883010F0D11107C0802F0E9461
:100FE000100F0E94500F8D2F41C0802F0E94200FA4
:100FF000F8CF8D2F0E944B07002309F43FC080E2F9
:101000008D0F883010F0D11104C0802F0E94160F70
:1010100003C0802F0E94260F0E94500F2FC00C2F5C
:101020000F70C07FC03211F00295007FDD2381F088
:10103000D13009F469C0112309F473C0FF2009F409
:1010400069C0F601858180FFCECF8F70858362C035
:101050008091FE0382FF38C0112359F0002329F04C
:10106000802F0E94100F0E94500F80E00E94050701
:1010700005C080E00E944B070111C7CFEB2DE8505F
:10108000FF0B349720F40E9454210E94BA06EE20F0
:1010900009F467C10E94020F80FD63C1F60112824C
:1010A0000E94FC0E0E94C90AC6010E94D2090E9439
:1010B000FC0EDF91CF911F910F91FF90EF90DF9089
:1010C000CF90BF900C94EA0A112389F0F11006C06A
:1010D0000E94330F802B0E949207D0CF21E0F212A2
:1010E000F7CF0E94330F802B0E94390FC7CFF1102A
:1010F00006C00E94460F802F0E949907BFCF31E0A3
:10110000F31609F4BBCFF5CF112331F085E08F152D
:1011100008F4B4CF802FDFCF94E09F1508F4AECF52
:10112000EACFFF2041F3D93349F4FFEF27EE33E054
:10113000F15020403040E1F700C000008D2F0E94A8
:101140004B079CCF8C2F86958695837069F08130F4
:1011500009F094CF8D2F9C2F9370111102C090E055
:1011600080E00E9488218ACF8D2F9C2F93701111CF
:1011700002C090E080E00E94722180CF8C2F8370AB
:1011800009F041C011117ACF4D2F42954695477015
:10119000440F440F0D2F0F7010E030E020E0042EBC
:1011A00004C0000F111F221F331F0A94D2F760E002
:1011B00070E0CB01D4FF0FC06FE070E080E090E002
:1011C00004C0660F771F881F991F4A95D2F7609554
:1011D000709580959095C695C695C370602B712BC0
:1011E000822B932BC23049F058F4C13019F00E9481
:1011F0007D0A44CF0E946B0A41CF0E948F0A3ECFE6
:101200000E94690A3BCF8695112311F08C2F8170C3
:10121000882309F433CF4D2F429546954770440FEC
:10122000440F0D2F0F7010E030E020E0042E04C0BA
:10123000000F111F221F331F0A94D2F760E070E0E5
:10124000CB01D4FF0FC06FE070E080E090E004C0FD
:10125000660F771F881F991F4A95D2F76095709582
:1012600080959095C695C695C370602B712B822B87
:10127000932BC23049F058F4C13019F00E94400B52
:10128000FDCE0E942E0BFACE0E94520BF7CE0E948A
:10129000A30AF4CECF70112329F08C2F0E94C90A23
:1012A0008D2F19CF8D2F0E9499078C2F0E94EA0A4B
:1012B000E5CED23F51F160F4D03FB9F0D13F81F09B
:1012C000112309F449C0F1108ECE8C2F8F7121C0EB
:1012D000D33F11F1D43FA1F78091FE0382FF26C0D6
:1012E0008C2F8F71112311F314C0112349F084E066
:1012F0008F1508F4C3CE8C2F8F710E940D0BBECEBC
:1013000095E09F1508F4BACEF6CF8C2F8F7111118E
:10131000CDCF0E94C90AB2CE112329F08C2F8F7134
:101320000E94B40AABCE0E94AF0AA8CE112349F0A6
:10133000CF718C2F0E94C90A63E08C2F0E94860F08
:101340009DCE81E00E94A10FE1E0EF1508F096CE5E
:1013500082E00E94A10F92CEF110E5CE8C2F8F710A
:10136000A5CFDF91CF911F910F91FF90EF90DF906C
:10137000CF90BF9008950F931F93CF93DF93EC010D
:10138000688179818A810E94080C8C010E94640B1B
:101390000E94680AB801CE01DF91CF911F910F9191
:1013A0000C94A007CF93DF93EC018B819C81892B58
:1013B00029F08881998189238F3F59F4DF91CF915A
:1013C0000895CE010E94BB09CE01DF91CF910C940C
:1013D000DB05CE010E9458068111F3CF0E94060F53
:1013E000882361F38A81882349F38091FE0382FD7B
:1013F000E5CF82E0DF91CF910C94A10F90E080E0E7
:101400000E94722190E080E00E9488210E942D0FAE
:101410000E94300F0C94500F0E94F60E0C94FE099F
:101420000E941D0F0C940C0AE92FE295EF70E25018
:10143000EE3070F4F0E0E45DF24D0C94DA29803F78
:1014400019F020F4883E20F481E00895843FE1F310
:1014500080E00895883EC0F3813FD1F7F5CF93FB3C
:10146000882780F90895FC01808191810E94FE0BFC
:101470000C94140ACF93DF9300D000D00F92CDB715
:10148000DEB70F900F900F900F900F90DF91CF91DC
:101490000895CF93DF9300D000D000D0CDB7DEB752
:1014A00026960FB6F894DEBF0FBECDBFDF91CF9169
:1014B000089508950C94590A0E945A0A60930A03E9
:1014C00070930B0380930C0390930D030C94FE090F
:1014D00008950C945C0A0F931F9300910A031091D6
:1014E0000B0320910C0330910D03602B712B822B89
:1014F000932B1F910F910C945C0A0F931F930091F3
:101500000A0310910B0320910C0330910D0360230B
:101510007123822393231F910F910C945C0A0F93E4
:101520001F9300910A0310910B0320910C0330913B
:101530000D0360277127822793271F910F910C9429
:101540005C0A0C9453050E94A10A609306037093F1
:10155000070380930803909309030C94FE0960E04D
:1015600070E0CB010C94A30A0F931F9341E050E06D
:1015700060E070E08A019B0104C0000F111F221F70
:10158000331F8A95D2F7C901B8011F910F910C94AE
:10159000A30A0F931F9341E050E060E070E004C0A5
:1015A000440F551F661F771F8A95D2F78091060357
:1015B00090910703A0910803B09109038A019B0150
:1015C000082B192B2A2B3B2BC901B8011F910F9116
:1015D0000C94A30A0F931F9341E050E060E070E089
:1015E00004C0440F551F661F771F8A95D2F7CB01A1
:1015F000BA016095709580959095009106031091C1
:10160000070320910803309109036023712382238B
:1016100093231F910F910C94A30A0F931F9341E002
:1016200050E060E070E004C0440F551F661F771F54
:101630008A95D2F78091060390910703A091080341
:10164000B09109038A019B01082719272A273B2704
:10165000C901B8011F910F910C94A30A0F931F9316
:1016600000910603109107032091080330910903AC
:10167000602B712B822B932B1F910F910C94A30A3B
:101680000F931F9300910603109107032091080305
:101690003091090360237123822393231F910F91BB
:1016A0000C94A30A0F931F93009106031091070354
:1016B000209108033091090360277127822793271F
:1016C0001F910F910C94A30A0895E92FEE0FE90FD3
:1016D000EE0F8E0F982F977041E001C0440F9A953E
:1016E000EAF786958695869595E0899FF001112405
:1016F000E252FD4F30E020E070E05191DF011197A0
:10170000CB01022E02C0969587950A94E2F781706C
:1017100081958527842385278C932F5F3F4F253024
:10172000310559F70895E92FEE0FE90FEE0F8E0FEF
:10173000982F977086958695869525E0829FF00173
:101740001124E252FD4F50E040E080E0219130E072
:10175000092E02C0369527950A94E2F721703327A7
:10176000042E01C0220F0A94EAF7822B4F5F5F4FCD
:101770004530510559F70895BF92CF92DF92EF920D
:10178000FF920F931F93CF93DF938C01C0900603BA
:10179000D0900703E0900803F090090380910A03BA
:1017A00090910B03A0910C03B0910D03C82AD92A84
:1017B000EA2AFB2ACFE1D0E0BC2ED701C6010C2ECD
:1017C00004C0B695A795979587950A94D2F780FDA2
:1017D0000EC0219788F7B12C8B2DDF91CF911F91EF
:1017E0000F91FF90EF90DF90CF90BF900895B801D8
:1017F0008C2F0E948D12019761F3EECFCF93DF9370
:10180000EC010E94BC0BBE01DF91CF910C948D12B4
:101810001F93CF93DF93EB019091DD02992331F079
:10182000CB01DF91CF911F910C94FE0B882379F0AF
:10183000CB010E94BC0B182F682FCE010E94650BB4
:10184000BE01812FDF91CF911F910C948D12CB019E
:101850000E94930B182FF4CF1F93CF93DF93C09167
:101860000E0316E080910F038C1304C0DF91CF911B
:101870001F910895D0E01C9FF0011D9FF00D1124D1
:10188000E05FFC4F40815181628173818481958149
:101890000E94490A2196C770E5CF409140035091BC
:1018A00041036091420370914303809144039091FE
:1018B00045030C94490AFF920F931F93CF93DF9334
:1018C00080914503807FD1F4809142038823B1F059
:1018D00080910E0310910F036091400370914103BA
:1018E000A0914303B0914403062F0723C091400108
:1018F000D091410196E0F92E181306C0DF91CF91E7
:101900001F910F91FF90089590E0109711F00F3FF5
:1019100019F401968770F0CFF89E9001F99E300D72
:101920001124F901E05FFC4F41814713F2CF408160
:101930004613EFCF42814111ECCF438154814A1BC2
:101940005B0B4C175D0728F7809145038F70806112
:1019500080934503F901EB5EFC4F80818F708061BD
:10196000808380E493E00E94D209DF91CF911F91A0
:101970000F91FF900C942C0CAF92BF92CF92DF92FC
:10198000EF92FF920F931F93CF93DF93CDB7DEB704
:1019900061970FB6F894DEBF0FBECDBF8C0185E016
:1019A000F801DE011D9601900D928A95E1F7F8018C
:1019B000E28080E4C82E83E0D82E609143037091CA
:1019C00044036115710509F44DC1909140032091C4
:1019D0004103892F82238F3F09F444C14081518103
:1019E000A380B480F0904203F501E61BF70BBF0122
:1019F000E0914001F0914101FF2009F404C1809180
:101A00004503382F307F6E177F0708F0BDC03111B6
:101A100079C0FE2C251323C0941321C0E1101FC0F0
:101A20008F708061809345030E944D0CC6010E9417
:101A3000D20980914503F80185838F2D61960FB6F9
:101A4000F894DEBF0FBECDBFDF91CF911F910F91F4
:101A5000FF90EF90DF90CF90BF90AF900895AB28AC
:101A600029F0842F85238F3F09F015C180E0F82FDE
:101A7000F170DF2E80FF3CC080910E0320910F0398
:101A800036E0821315C04D875E878D859E850E9446
:101A9000FE0B292F22952F702230F0F0243018F5FC
:101AA0009F70F1F0F8019581907FD1F4D12C1EC088
:101AB00090E0389FF001399FF00D1124E05FFC4F5A
:101AC0006181651306C06081641303C062816E1179
:101AD0000FC001968770D5CF9F7011F0882331F326
:101AE000805E883018F3C8010E94D209FD2CA5CF72
:101AF000EE2009F4A2CF80914503816080934503D5
:101B0000F12C9BCF251314C0941312C0E11010C008
:101B1000F8018583C8010E94D20986E0F801A0E49B
:101B2000B3E001900D928A95E1F70E944D0C85CFAC
:101B3000C8010E94330A882319F1EE2009F180912F
:101B40004503803270F02091400330914103388783
:101B50002F831986BB86AA868C87CE0107960E94A2
:101B6000D20986E0F801A0E4B3E001900D928A95D5
:101B7000E1F70E945B0C0E944D0CFF24F3945DCFB3
:101B8000C8010E94D209F9CF311113C07A2DB98A48
:101B9000A88A6E2D89890E943A0A80E493E00E9407
:101BA000D20986E0F60111928A95E9F70E944D0C60
:101BB000A7CF25130FC094130DC0E1100BC0F8017F
:101BC0008583C8010E94D20986E0F60111928A95A8
:101BD000E9F733CFC8010E94330A882389F2EE2047
:101BE00079F280914503803208F4BBCF2091400305
:101BF000309141033A8329831B82BD82AC828E835C
:101C0000CE010196ACCF6E177F07F8F4FE2CEE20C4
:101C100009F4B6CF25130BC0941309C086E0F80170
:101C2000A0E4B3E001900D928A95E1F706CFC801D8
:101C30000E94330A811195CF809145038160809382
:101C40004503C8010E94D209F8CE7A2DB98AA88A24
:101C50006E2D89890E943A0A86E0F60111928A95D2
:101C6000E9F763CFEE2009F48BCFC8010E94330A55
:101C7000F82E882309F484CF86E0F801A0E4B3E0CD
:101C800001900D928A95E1F780E493E00E940007AD
:101C90000E945B0C4ACF81E08E25E9CE1F93CF9343
:101CA000DF93CDB7DEB72C970FB6F894DEBF0FBE2B
:101CB000CDBF4F83588769877A878B879C87CE01F2
:101CC00007960E94BC0C882369F08A859B85892B26
:101CD00039F04F815885842F85238F3F09F071C0DB
:101CE00016E05FC086E0FE013796DE011196019096
:101CF0000D928A95E1F78A859B85892B89F38F81DF
:101D0000988589238F3F61F320910F0330E0C9014B
:101D100001968770992740910E034817190671F4B0
:101D20000E94100A10920F0310920E0386E0E0E466
:101D3000F3E0DF011D928A95E9F7D2CF96E0929FFA
:101D4000D001939FB00D1124A05FBC4FFE013196CE
:101D500001900D929A95E1F780930F030E942C0C4D
:101D6000BFCF819FC0011124805F9C4F0E94BC0C9B
:101D70008823E9F0E0910E031E9FF0011124E05F3B
:101D8000FC4F4081518162817381848195810E94E1
:101D9000490A80910E0390E00196877099278093FD
:101DA0000E0380910E0390910F038913DACF2C96C6
:101DB0000FB6F894DEBF0FBECDBFDF91CF911F915C
:101DC000089569857A858B859C850E94490A88CF0C
:101DD000682F80914201909143010C94E621682F75
:101DE00080914201909143010C94E821809142013D
:101DF000909143010C94EA21809146038595859545
:101E000085950895809146038770089590914603C3
:101E1000977081E009F480E008958091520308955D
:101E200090915203892B809352030895809590914D
:101E300052039823909352030895109252030895E9
:101E400090915103892B809351030895809590912F
:101E500051039823909351030895109251030895CC
:101E600010925003089580914703089508950C94AB
:101E7000360F9091FE0392FD08C09091470398178A
:101E800021F0809347030C94370F08958091470306
:101E9000882329F01092470380E00C94370F0895AF
:101EA000E0914201F0914301809152038083E091DF
:101EB0004201F0914301808190915103892B8083ED
:101EC000E0914201F0914301808190915003892B70
:101ED000808390914703992381F0E0914201F09132
:101EE00043018081892B808380914201909143013D
:101EF0000E949E2181110E94460F80914201909183
:101F000043010C94672108950C94830F9091FE0374
:101F100092FD10C098E0899F90011124622B60937C
:101F200046030E94C90A809146038595859585954B
:101F30000C94840F0C94C90A1092460380E00C9410
:101F4000840F909146038095892380934603282F20
:101F5000277091F4282F082E000C330B92171306CC
:101F600059F09091FE0392FD07C085958595859562
:101F70000E94EA0A0C949C0F08959091FE0392FB34
:101F8000222720F9281769F080FB92F99093FE032D
:101F90008091FD039091FE030E94021082E00C9458
:101FA000A10F08958091FE0382FB882780F991E0BC
:101FB00089270C94BD0F81E00C94BD0F80E00C9438
:101FC000BD0F90E080E00E94AD2C21E0893E9E4F45
:101FD00009F020E0822F089582E090E00C94A52C77
:101FE00083E090E00C94A52CCF9384E090E00E94D5
:101FF000A52CC82F82E290E00E94A52C982F8C2F50
:10200000CF910895CF93C92F682F84E090E00E946C
:10201000B32C6C2F82E290E0CF910C94B32CAB01E7
:10202000BC018FE090E00C94C52CAB01BC0183E1B6
:1020300090E00C94C52C60E070E0CB010C9415107E
:1020400060E070E0CB010E940F100C941B1069EE51
:102050007EEF90E080E00E94D12C60E082E090E092
:102060000E94B32C60E083E090E00E94B32C1092B9
:102070000A0310920B0310920C0310920D0360E000
:1020800084E090E00E94B32C60E082E290E00E9445
:10209000B32C60E085E090E00E94B32C60E086E025
:1020A00090E00E94B32C6FEF87E090E00E94B32C89
:1020B00040E050E0BA0188E090E00E94C52C60E06A
:1020C0008DE090E00E94B32C40E050E0BA0188E13E
:1020D00090E00E94C52C60E087E190E00E94B32C64
:1020E00040E050E0BA018CE190E00E94C52C70E025
:1020F00060E080E290E00E94D12C40E050E0BA0124
:1021000088E190E00E94C52C0C9420100C942710BC
:10211000682F8EE090E00C94B32C0E948D22609387
:1021200066037093670380936803909369036093D9
:10213000620370936303809364039093650308952F
:102140000E948D22609366037093670380936803F7
:102150009093690360935E0370935F0380936003C1
:1021600090936103089585B7806885BF85B78068BF
:1021700085BF0895089508950C94BA1008950C949D
:10218000BE100E94B3108CEA93E10E944A210E9483
:10219000BB100C94BC100C949A15089508950E94DD
:1021A000CD100C94CE100E9478220E946B130E94D6
:1021B00082140E943F1880E00E949D180E94881C93
:1021C0000C94BF109F92AF92BF92CF92DF92EF928A
:1021D000FF920F931F93CF93DF93CDB7DEB72A976C
:1021E0000FB6F894DEBF0FBECDBF0E941015C82EEB
:1021F00081110E948D1084E5A82E83E0B82E10E096
:1022000000E0902E802F0E94D913E82EF501F19066
:102210005F01F81609F45AC080916A0381FD0E949B
:10222000DF138F2D8E25D12CFF24F394982F9F211F
:1022300009F447C00E94CB10882399F0DE829F8268
:10224000EF2081E009F480E088870E94812281608C
:10225000782F9A8789874E815F8168858A850E9459
:10226000C206F801EC5AFC4F8081F826F0820E94E9
:10227000A11C182F81110E94A0100E94221BC110C6
:1022800001C011110E94E9190E9454219091530339
:10229000891799F10E945421809353032A960FB60F
:1022A000F894DEBF0FBECDBFDF91CF911F910F918C
:1022B000FF90EF90DF90CF90BF90AF909F900C94E5
:1022C000BA06D394FF0CF6E0DF12B0CF0F5F1F4FBA
:1022D0000A30110509F095CF8FEF89838A831B821D
:1022E0000E9481228160782F9D838C8349815A814D
:1022F0006B818D810E94C206BACF2A960FB6F894E0
:10230000DEBF0FBECDBFDF91CF911F910F91FF9028
:10231000EF90DF90CF90BF90AF909F900895CF93B4
:10232000DF930E949112EC01811522E59207E8F5F6
:10233000811531E5930708F0ACC0883E910510F592
:10234000803E910570F5883A910570F4853A9105C3
:1023500008F078C08130910521F1009711F10497C0
:1023600000F5D0E0C0E01DC08F3B9105D0F7C85A02
:10237000D0E0CC0FDD1FCF5ADD4F0990D881C02DA2
:10238000D4640FC0811540E5940708F066C0C115FC
:1023900080E4D80708F05EC0CE019A9581159F4170
:1023A00000F7CE01DF91CF910895811536E59307AF
:1023B00018F5811545E5940708F083C0C11584E53B
:1023C000D80708F079C09C2F969596959E012370AA
:1023D0003327C115D34508F461C0C1E0D0E002C085
:1023E000CC0FDD1F2A95E2F730E2939FC001112444
:1023F000C82BD92BDA68D5CFC1158AE5D80778F470
:10240000C11599E5D90708F066C0C11528E5D207BE
:1024100008F4A7CFDC2FCC27C06FD06AC2CFCE0183
:1024200090568115904208F09CCF8D2F8F710E949D
:10243000281390E0982F882788279F719C012C2BC8
:10244000E90147C0C55AD0E0C158DD4FC881D0E08E
:10245000D064A7CFDF70D06AA4CFE4E096958795CB
:10246000EA95E1F783702C2F26952695237040E29C
:10247000249F90011124382B8C2F8370C1E0D0E071
:1024800002C0CC0FDD1F8A95E2F7C22BD32BDC688C
:1024900088CFD82FCC27C16FD06A83CFC1E0D0E0DE
:1024A00002C0CC0FDD1F2A95E2F720E2929FC00107
:1024B0001124C82BD92BEBCFDC2FCC27C46FD06ACB
:1024C00070CF0E942813C82FD0E0DC2FCC27CC2758
:1024D000DF71D06266CF8C2F8F700E94281334E09A
:1024E000D695C7953A95E1F7CF709C2FEC01D0694E
:1024F00058CF972F70E026E0929F600D711D112438
:10250000FB019CE3899FE00DF11D1124EE0FFF1FDD
:10251000E455FF4F8591949108950E9479120C948F
:102520008F1182389105B1F1B0F48133910509F42E
:1025300075C048F48932910509F469C08A32910561
:1025400009F473C008958533910509F459C089339E
:10255000910501F10895833E9105A9F138F4803E7B
:102560009105F9F0823E910549F10895863E910565
:10257000A9F1873E9105C9F1843E910519F5209195
:10258000FE0321FF1FC08091FD0384FD14C087EE70
:1025900090E008952091FD032370A1F080EE90E07B
:1025A00008952091FD0320FD47C03091FE0330FFC8
:1025B00009C024FF44C090E080E004C02091FD03E6
:1025C00022FDF7CF08952091FD0322FD3BC03091FD
:1025D000FE0330FDE3CF24FFF5CFEDCF2091FD03C7
:1025E00023FFF0CF24FDE7CFD2CF2091FD0323FDC1
:1025F0002CC03091FE0331FFEECF84EE90E00895C1
:102600002091FD0325FFDECF89E290E0089520911F
:10261000FD0325FFD7CF85E390E008952091FD03CA
:1026200026FFD0CF8AE290E008952091FD0326FF97
:10263000C9CF81E390E0089589E390E0089583EEA7
:1026400090E0089582EE90E0089586EE90E008957F
:102650009091FD0392FF06C0282F28712830F9F4CD
:10266000877F846093FF06C0282F28712831F1F4FA
:10267000877E84612091FE0320FF06C0382F3871C9
:102680003830D9F4877F816021FF06C0282F287158
:102690002831D1F4877E816194FD877E0895282FAB
:1026A00024712430F9F68B7F8860DCCF282F2471C9
:1026B000243101F78B7E8861DDCF382F31713130C5
:1026C00019F78E7F8860E0CF282F2171213121F703
:1026D0008E7E8861E1CF1092F9031092FA03109276
:1026E000FB031092FC030895CF92DF92EF92FF92CA
:1026F0006B017C010E949A1581110EC00E948D22EF
:10270000C61AD70AE80AF90AC092F903D092FA0366
:10271000E092FB03F092FC03FF90EF90DF90CF90EC
:1027200008950F931F930E949A15882321F01F91FB
:102730000F910C948D220E948D220091F90310912B
:10274000FA032091FB033091FC03600F711F821F7D
:10275000931F1F910F91089580E0089508950E949E
:10276000E10F811102C00E9486100E94EC0F80933D
:102770006A030E94F40F9093FE038093FD030E946E
:10278000AE130E94F00F682F70E090E080E00E948E
:10279000690A609106037091070380910803909184
:1027A00009030C94A10A08950C94D31308950C9472
:1027B000D613E82FF0E0E75FFB4F8081089508957E
:1027C00080EA8A95F1F7089500C008950C94E0130B
:1027D000F894E82FE295EF70F0E031A1282F2F70E8
:1027E00081E090E001C0880F2A95EAF7982F909534
:1027F000932391A392A1892B82A37894089508959D
:102800000C94FF13CF93DF93C8E8D2E089918F3FF8
:1028100011F00E94E81382E0CD38D807B9F7C2E87A
:10282000D2E089918F3F11F00E94E81382E0C8380E
:10283000D807B9F7DF91CF910895CF92DF92EF9249
:10284000FF920F931F93CF93DF93EC01D62E062FA9
:1028500010E0C80188579D4F7C01FC0180818F3FAB
:1028600009F445C0F894E82FE295EF70F0E091A1EB
:102870008F7021E030E001C0220F8A95EAF7892F9E
:10288000822B81A382A12095282322A378940E94E1
:10289000E413E2E8F2E048E852E031E0C12C219193
:1028A0002F3F71F1A22FA295AF70B0E090968C915E
:1028B00090E02F7002C0959587952A95E2F780FDEC
:1028C0001FC0832FC82A330F4E175F0741F7F70148
:1028D00080818F3F11F00E94E81361E0C11001C0B8
:1028E00060E08D2D0E94E613C00FD11FC882DF91DA
:1028F000CF911F910F91FF90EF90DF90CF900895AF
:1029000080E0E0CF0E94B4158091440180914401A1
:1029100095E0811190E09093140485E0891B8093E9
:1029200013040E9402148AE0E9E0F4E0DF01982F2A
:102930001D929A95E9F7EFEFF3E0DF011D928A957A
:10294000E9F785E00E9463150E943A060C94BE15D3
:10295000EF92FF920F931F93CF93DF9300D000D09D
:102960000F92CDB7DEB70E949A15F82E609114042D
:10297000882309F448C085E0E82E8E010F5F1F4FC1
:10298000F8018E2D11928A95E9F7862F90E0B80113
:10299000875F9B4F0E94CC158823F9F08091130428
:1029A00090E045E050E0B801875F9B4F0E94E92925
:1029B00021E020936B03892BD1F4F12C0E94400677
:1029C0008F2D0F900F900F900F900F90DF91CF9160
:1029D0001F910F91FF90EF90089580916B038823D2
:1029E00061F3F8011192EA94E9F710926B03A09158
:1029F0001304B0E0A75FBB4F85E0F80101900D9292
:102A00008A95E1F7DBCF70E0675F7B4F809113041D
:102A100090E0875F9B4F0E9459160E940014D0CF10
:102A2000EF92FF920F931F93CF93DF93CDB7DEB753
:102A30002A970FB6F894DEBF0FBECDBF8E010F5F91
:102A40001F4F8AE0F80111928A95E9F7F12C6F2D5A
:102A5000C8010E941D14F394F5E0FF12F8CF4AE07C
:102A600050E0B8018FEF93E00E94E9297C0121E05A
:102A7000892B09F420E0E114F10441F08AE0F80127
:102A8000AFEFB3E001900D928A95E1F760911404E5
:102A900070E0675F7B4F45E08FEF93E00E94641525
:102AA00081E090E0EF2811F40E94A8142A960FB656
:102AB000F894DEBF0FBECDBFDF91CF911F910F9174
:102AC000FF90EF9008950895FF920F931F93CF9377
:102AD000DF93F82E092F162FD72FC42F222349F06A
:102AE00081E080936E030E94812290936D03809316
:102AF0006C0380916E038823A1F080916C03909108
:102B00006D030E949922059760F0EF2DF02FA12F01
:102B1000BD2FCE0FDF2FD11DEC17FD0741F4109212
:102B20006E03DF91CF911F910F91FF9008958191D6
:102B30008D93F2CF80917103811107C00E94992972
:102B4000882351F081E08093710381E090917103BB
:102B5000913009F080E0089582E0809371030E9433
:102B60009429F3CF0C949A150E94B21580934401D6
:102B70000E949A1581110C94021608950E949A15CC
:102B8000811102C00C940416089581E090917203A3
:102B90009A3008F080E008950F931F93CF93DF934E
:102BA000EC018B01809172038A30B8F4B801CE0138
:102BB0000E945716C82F811122C0809172038F3F47
:102BC000B9F40E9481229093700380936F038C2F3D
:102BD000DF91CF911F910F91089580916F03909194
:102BE00070030E949922843F914000F7C0E0EFCF2C
:102BF0008F5F809372038A3020F7C1E0E8CF109294
:102C00007203E5CF0C94891F0C948C1FEF92FF92F6
:102C10000F931F93CF93DF937901C82F880FDD0B9C
:102C200041155105A9F08AE08C9FF0018D9FF00DB0
:102C30001124EB5BFE4F838194818D589C4F228140
:102C400030E04217530708F49A01A9010E94F629BF
:102C5000CE010E949620892B11F501151105E9F08E
:102C60008AE08C9FF0018D9FF00D1124EB5BFE4FED
:102C7000458150E00417150708F4A8018AE08C9FED
:102C8000F0018D9FF00D1124EB5BFE4F6681778183
:102C90006D587C4FC7010E94F62981E001C080E099
:102CA000DF91CF911F910F91FF90EF9008950C94B9
:102CB000B2170C94D6170F931F93CF93DF9300D0C6
:102CC00000D0CDB7DEB760919003709191038091F1
:102CD0009203909193030E94A82211E0643671053B
:102CE0008105910518F10E9491136E5F7F4F8F4F00
:102CF0009F4F69837A838B839C8310E000E030E0F0
:102D000020E044E050E0BE016F5F7F4F84E00E940E
:102D10000616182F882351F00E948D22609390038D
:102D2000709391038093920390939303812F0F905C
:102D30000F900F900F90DF91CF911F910F910895F9
:102D40007F928F929F92AF92BF92CF92DF92EF923B
:102D5000FF920F931F93CF93DF930F92CDB7DEB700
:102D6000762E4A015901680101E010E09E012F5FB3
:102D70003F4F50E040E070E060E00E940616182FE0
:102D8000882309F43EC0F4016081718182819381BE
:102D90000E94A822643671058105910558F18701CA
:102DA000950150E040E070E060E0872D0E9406163B
:102DB000B82EB701C6010E94401811E099819813FE
:102DC00010E01B2139F00E948D22F4016083718391
:102DD00082839383812F0F90DF91CF911F910F9169
:102DE000FF90EF90DF90CF90BF90AF909F908F902B
:102DF0007F900895B701C6010E94401899818913F8
:102E0000CECFA701B601C5010E94F629E3CFEF920C
:102E1000FF920F931F93CF93DF930F92CDB7DEB73F
:102E20000091920210919302095F1F4FEE24E394E8
:102E3000F12C9E012F5F3F4F4CE853E063E082E0AE
:102E40000E94A016182F882321F0CE0101960E941F
:102E5000FA1C812F0F90DF91CF911F910F91FF905E
:102E6000EF900895CF92DF92EF92FF920F931F930E
:102E7000CF93DF9300D000D00F92CDB7DEB76B01B8
:102E800000919202109193020F5F1F4F85E0E82E90
:102E9000F12C9E012F5F3F4F48E853E061E080E056
:102EA0000E94A016882349F095E0FE013196A3E820
:102EB000B3E001900D929A95E1F795E0E3E8F3E035
:102EC000D60101900D929A95E1F70F900F900F9017
:102ED0000F900F90DF91CF911F910F91FF90EF9086
:102EE000DF90CF900895AF92BF92CF92DF92EF9292
:102EF000FF920F931F93CF93DF937C015B016A01D5
:102F00000E94C51501E010E0882311F00AE010E0EE
:102F1000C1E0D0E0F894B501C701F60109957894B5
:102F2000811104C021960C171D075CF4DF91CF912D
:102F30001F910F91FF90EF90DF90CF90BF90AF90D7
:102F40000895CC9F9001CD9F300D300D112490E05D
:102F500080E045E34A95F1F7000001968217930758
:102F6000C1F7D8CF0F931F93CF93DF93EC018B0161
:102F700042E357E10E947317882391F047E057E13D
:102F8000B801CE010E947317882351F04BE556E13A
:102F9000B801CE01DF91CF911F910F910C9473175F
:102FA00080E0DF91CF911F910F9108950F931F93B0
:102FB000CF93DF930F92CDB7DEB7F89400919202D2
:102FC00010919302C801019625E0FB01DC010190FC
:102FD0000D922A95E1F765E070E00E944018F80133
:102FE00080837894F894CE0101960E94F11C898127
:102FF000F801878361E070E0CE0101960E944018DD
:10300000F80186837894F89460857185828593852C
:1030100000917F03109180032091810330918203FE
:10302000601771078207930751F060937F037093D5
:10303000800380938103909382030E947413789499
:103040000F90DF91CF911F910F9108950E946824F6
:103050000E94D3100C9474240E9478240E94E210E1
:103060000C9492240E940B220E944F240E94C110B3
:103070000E9426180E942C180E94CF10FBCF0895A2
:10308000FC01680F791F8FEF91E36E177F0709F43A
:1030900008952191822728E030E087FF06C0880F3D
:1030A000892721503109C9F7F0CF880FFACFCF9285
:1030B000DF92EF92FF920F931F93CF93DF936C01F8
:1030C0007B0164E670E088E70E94271EEC0197FD13
:1030D00012C010E000E0F601E00FF11F849164E6F9
:1030E00070E00E94A11EEC01892B29F40F5F1F4F95
:1030F0000E151F0581F70E94241FCE01DF91CF918D
:103100001F910F91FF90EF90DF90CF900895089559
:10311000E6E1F4E080E092E0DF019C011D922150A5
:103120003040E1F7F0931D06E0931C068FEF9FEF10
:103130009093C0038093BF0308950E9487180E9454
:103140005B058093BB0380FD0FC080E88093BA03CA
:103150000E94211E6DE070E083EA92E00E94571801
:10316000892B21F080E0089580E2F0CF8091BB03AD
:1031700063E070E081FD26C080EA92E00E9457186B
:10318000892B81F76DE070E080E992E00E9457188A
:10319000892B41F70E948D22605A75418F4F9F4FB6
:1031A000609318067093190680931A0690931B0675
:1031B0000E94881881E08093BE038093BD03109223
:1031C000BC0308958DE992E0D9CF2091BA0336E08F
:1031D000839FC0011124629F800D911D11248115D0
:1031E00022E0920714F090E080E08A5E9B4F90937B
:1031F0001D0680931C06089520911C0630911D0623
:10320000205134404091BA03642F70E0C9010E94FC
:10321000B229481B463010F4240F311D211582E0DD
:10322000380710F030E020E02A5E3B4F30931D0657
:1032300020931C0608951F93CF93DF93162F8A3097
:1032400031F481E0DF91CF911F910C9495198D306D
:1032500011F480E0F7CFC0911C06D0911D0696E0D6
:10326000FE01A4E9B3E001900D929A95E1F7803E4A
:10327000C8F086E0FE0111928A95E9F711111EC08F
:10328000C0911C06D0911D0646E050E0BE0184E9C5
:1032900093E00E94E929892BF9F4DF91CF911F91E6
:1032A0000C94FC18F6E08F9FB001112460557D4FFF
:1032B00046E050E0CE010E94E029E0CFE0911C06FC
:1032C000F0911D069F012A5F3F4F2E173F07C1F265
:1032D000808180958193F9CFC651D440CE0125E0FD
:1032E000969587952A95E1F721E030E0A90102C083
:1032F000440F551F8A95E2F7CA014091BF035091D0
:10330000C003842B952B259645E0D695C7954A9505
:10331000E1F702C0220F331FCA95E2F7822B932BED
:103320009093C0038093BF03B8CFCF93382FE09121
:103330001C06F0911D06E651F4402091BA03622F5D
:1033400070E0CF010E94B229281B822F332369F03D
:1033500066E00E94A629C82FC15010F4CF910895AD
:1033600060E080E20E941B19F7CF9F01280F311DFA
:103370002115324018F080E0F0E0E0E08E0F9F2F42
:10338000911D8A5E9B4F90931D0680931C06E6CF8D
:10339000FF920F931F93CF93DF93EC01F62EFC0166
:1033A00001900020E9F78F0101501109C017D107E2
:1033B00030F0DF91CF911F910F91FF9008956F2D05
:1033C00089910E941B19F2CF0E94C81981E00C94C8
:1033D00095198091BE03811103C08091BD030895AA
:1033E0000E948D22605A75418F4F9F4F609318063F
:1033F0007093190680931A0690931B068091BD0363
:103400008111EBCF62E070E08EE892E00E945718E5
:10341000892B19F781E08093BD03DFCF2F923F9274
:103420005F926F927F928F929F92AF92BF92CF9254
:10343000DF92EF92FF920F931F93CF93DF938091D0
:10344000BE03882369F02091BF033091C00321158A
:10345000310531F08091BC0361E070E0882399F080
:10346000DF91CF911F910F91FF90EF90DF90CF9060
:10347000BF90AF909F908F907F906F905F903F90A4
:103480002F9008958F5F082F10E01B01082E02C0B7
:10349000220C331C0A94E2F7A90142215321452B47
:1034A00089F39091BB0390FD44C08295880F80768C
:1034B0008093790198013695279536952795209325
:1034C0007C01815E80937A0110927D0124E630E0D8
:1034D00047E050E067E771E088E70E94D01E892B43
:1034E00009F0BECFA80125E0440F551F2A95E1F74A
:1034F0008091BB0380FD2BC04A5E5B4F04E610E069
:1035000020E230E060E488E70E94F71E892B09F092
:10351000A7CF0E94E919E101C095D0958091BF0322
:103520009091C003C823D923D093C003C093BF0395
:1035300097CF880F880F880F8093790110927C01B4
:10354000895F80937A0183E080937D01BFCFEAE9B0
:10355000F3E080E2DF011D928A95E9F7A8E9B2E085
:1035600004E912E08CE9C82E82E0D82E97E0592EAB
:10357000772473948D91E80129918E01240F352FC2
:10358000311D2A5E3B4FE82FF0E0E656FC4F90E0FD
:1035900080E0652C681A872C082E01C0880C0A94DC
:1035A000EAF77901A12CE701B9907E01B820662DD8
:1035B0006A196770962E062E000C770BDB2D01C062
:1035C000DD0F9A94EAF77195619571096770772715
:1035D00001C0B6946A95EAF7BD2A6081962E9B28B1
:1035E0009082A39468E0A612DECF019631968830CF
:1035F000910579F6CA16DB0609F0BCCF04E610E0A7
:1036000020E230E04AE953E07DCF8091BD03909104
:10361000BE03911103C091E089270895882369F0C2
:1036200062E070E08CE892E00E945718892B19F054
:103630008091BD0308951092BD038091BD03EBCF2F
:103640000C9465050F931F938091BE03882389F125
:1036500080911606909117060E949922C29760F0F9
:103660000E948122909317068093160660E080E006
:103670000E94E5180E94201B0E940E1A8091BD0333
:103680008823B9F00E948D22009118061091190626
:1036900020911A0630911B06601B710B820B930B55
:1036A0006F3F7F4F8F4F9F4720F41F910F910C94D6
:1036B000051B1F910F910895CF93DF93EC01FB0140
:1036C0008281882309F420C1C430FDE5DF07C8F5F5
:1036D000CB3F9CE5D90730F49E0122503C45243174
:1036E000310598F50E94F40F9093FE038093FD033B
:1036F000C031FCE5DF0709F4E0C008F061C0C83064
:103700009CE5D90709F4CBC088F5C430FCE5DF0798
:1037100009F4B3C0E8F4C2309CE5D90709F4A7C0A6
:103720008091FD038260C330DC4509F4A3C0809121
:10373000FD039091FE030E9402100E94100A80E097
:1037400004C0C236EDE5DE0769F2DF91CF9108953E
:103750008091FD038061C630FCE5DF0709F48AC073
:1037600008F48FC08091FD03806284C08091FD03C6
:103770008D7FCC309CE5D90709F47CC070F4809132
:10378000FD038C60CA30FCE5DF0709F473C008F460
:103790008AC08091FD038E7F6DC08091FD03877F7D
:1037A000CE309CE5D90709F465C08091FD038B7F7D
:1037B000CF30DC4508F45EC08091FD038F7E5AC097
:1037C000CD3FFCE5DF0709F474C040F5C4319CE54A
:1037D000D90709F48AC058F4C231FCE5DF0709F4BF
:1037E00074C008F46EC08091FD03837F43C0CB3F5B
:1037F0009CE5D90709F449C008F04DC0C531DC4546
:1038000009F095CF8091FD0382FB992790F921E083
:10381000922790FB82F990FB83F92CC0C1308DE593
:10382000D80709F458C088F48091FE038360CF3F25
:10383000ECE5DE0769F18091FE038D7FC115DD4562
:1038400038F18091FE038C7F23C0C3308DE5D8070B
:1038500009F458C008F452C0C236DD4509F067CFFC
:103860009091FD03892F8F7E94FF806103C080912A
:10387000FD0381608093FD035ACF8091FD03846036
:10388000F9CF8091FD038860F5CF8091FE038160C0
:103890008093FE034CCF8091FE038260F9CF80912C
:1038A000FD038064E7CF0E94100A8091FD038068C9
:1038B000E1CF8091FE038E7FEBCF8091FD038F7D62
:1038C000D9CF8091FD038F7BD5CF0E94100A8091C4
:1038D000FD038F77CFCF8091FE03982F9095917045
:1038E0008E7F892B90FB81F9D3CF0E94100A909193
:1038F000FD03892F97FB87F98058BCCF81E00E9498
:10390000881015CF80E0FBCF81E01FCF0C94870596
:1039100084988C9A85988D9A8FB1829581707D99C3
:103920000EC090E0892B8093C6039091440181E002
:1039300098279093C203891B8093C103089592E056
:10394000F1CFCF93E091C603EE0FEE0FE093C603E5
:103950004FB144FB882780F94FB145FB222720F95E
:1039600045FF02C022E030E0822BE82BE093C60343
:10397000C091C203EF70F0E0E456FD4F808190915A
:10398000C503890F8093C50320E0843064F0EC2FD9
:10399000F0E0ED53FC4F80818F5F808360E08C2FDF
:1039A0000E94861C21E08091C5038D3F64F4EC2FBA
:1039B000F0E0ED53FC4F80818150808361E08C2FDB
:1039C0000E94861C21E08091C503082E000C990BF3
:1039D00064E070E00E94C6298093C503822FCF91D6
:1039E0000895E091C203F0E0ED53FC4F2081FC010B
:1039F00020830895FF920F931F93CF93DF93D0916D
:103A0000C1030D2F10E00D531C4FFC01C081F801C4
:103A10008081C81BFC2E80E01F147CF09C2FC7FD0A
:103A200090E0C91BC11114C08823E9F0DF91CF9148
:103A30001F910F91FF900C94A010FA94F8018081CF
:103A40008F5F808360E08D2F0E94861C81E0E4CF31
:103A5000CF5FF80180818150808361E08D2F0E94CB
:103A6000861C81E0DFCFDF91CF911F910F91FF90F6
:103A70000895CF93DF93EB0186319C4511F50E94A9
:103A80000D0F9A81992399F08A7A91E009F490E0D8
:103A90009093C703811109C089E20E94E80E0E9439
:103AA000500F80E0DF91CF91089585E3F6CF8091AC
:103AB000C703811104C089E20E94EF0EF0CF85E3B5
:103AC000FBCF81E0EFCF0F931F93CF93DF93C42FF2
:103AD000D22FFC0182818823C9F04093CA030E943F
:103AE00081229093C9038093C80380E28C0F8830B1
:103AF00008F050C0C77081E001C0880FCA95EAF78E
:103B0000DF91CF911F910F910C9492071091CA03EE
:103B1000141335C08091C8039091C9030E94992263
:103B20008436910560F5C0E2CD0F1D17B9F080E233
:103B3000810F883040F4177081E001C0880F1A951A
:103B4000EAF70E949907C83048F481E09D2F9770EA
:103B500001C0880F9A95EAF70E949207802F0E9471
:103B60008A07C830B8F4D77081E001C0880FDA95B1
:103B7000EAF7DF91CF911F910F910C94990780E2A2
:103B80008C0F883038F4C77081E001C0880FCA9567
:103B9000EAF7EFCFDF91CF911F910F9108950F9327
:103BA0009C01CB01243F4CE5340759F1A8F4293D91
:103BB000FCE53F0701F12A3D4CE53407D1F1283DF2
:103BC0003C4591F406E221EE41EE68ED7CE50E9471
:103BD000631D80E00F910895263FFCE53F07E9F063
:103BE000B0F0273F3C45F9F0FC018281882339F190
:103BF0001092CA03EFCF07E225EE45EE69ED7CE5B2
:103C0000E6CF06E221EE40EE64EF7CE5E0CF07E28E
:103C100025EE44EE65EF7CE5DACF06E221EE42EEDA
:103C200066EF7CE5D4CF07E225EE46EE67EF7CE554
:103C3000CECF08E221E045EE6AED7CE5C8CF81E019
:103C4000C9CF1092B9008CE08093B80008959F927C
:103C5000AF92BF92CF92DF92EF92FF920F931F939A
:103C6000CF93DF93B82EEB010E9481226C01EE24EA
:103C7000E394F12CC431D10560F025E0E22EF12C63
:103C8000CF3FDC0731F0CE0164E170E00E94B22941
:103C90007B0184EAA82E94E8992E1092BC00A09291
:103CA000BC000E9481228C018091BC0087FF0DC066
:103CB0008091B900887F883039F18091B900887F80
:103CC000803111F10FEF1FEF09C00E948122801B8C
:103CD000910B8E159F0540F30EEF1FEFCF3FDC07D2
:103CE000E1F2C6010E9499228C179D07B0F2C8012B
:103CF000DF91CF911F910F91FF90EF90DF90CF90C8
:103D0000BF90AF909F900895B092BB009092BC007E
:103D10000E9481228C018091BC0087FF0AC08091A3
:103D2000B900887F883111F0803461F610E000E03E
:103D3000DECF0E948122801B910B8E159F0558F3C8
:103D4000CBCF0F931F93CF93DF93EB018093BB00F7
:103D500084E88093BC000E9481228C018091BC0089
:103D600087FF11C02091B900287F81E090E02832C0
:103D700011F490E080E0919581959109DF91CF91C8
:103D80001F910F910895CF3FDC0741F30E948122DC
:103D9000801B910B8C179D0708F38EEF9FEFEECFE2
:103DA000CF92DF92EF92FF920F931F93CF93DF9307
:103DB0006B018A017901B9010E94271EE6010C0DF1
:103DC0001D1DC017D10761F424E92093BC00DF91C9
:103DD000CF911F910F91FF90EF90DF90CF900895BA
:103DE00097FDF2CFB70189910E94A11EEACFCF9231
:103DF000DF92EF92FF920F931F93CF93DF93C62F23
:103E00006A017901B8010E94271E97FD0CC0B80114
:103E10008C2F0E94A11EE601EC0CFD1CCE15DF05C7
:103E200011F097FF0CC024E92093BC00DF91CF91E3
:103E30001F910F91FF90EF90DF90CF900895B80100
:103E400089910E94A11EEACF84E98093BC00089565
:103E50008EE14A9B02C08150E1F74A9BFECF089554
:103E60005A9880E28A95F1F75A9A0895FC013BE04E
:103E70003A95F1F798E020E080E031E040E14A95A2
:103E8000F1F7880F4A9B02C08160232742E04A95E0
:103E9000F1F7000040E14A95F1F7915079F790E190
:103EA0009A95F1F799B132E03A95F1F7000040E1C7
:103EB0004A95F1F792FB992790F992272081920F6A
:103EC00090830895EF92FF920F931F93CF93DF9308
:103ED0000F92CDB7DEB719828C017C01E60EF11C82
:103EE0000E151F0561F481E09981911180E00F901A
:103EF000DF91CF911F910F91FF90EF9008950E9455
:103F0000281FCE0101960E94361FF80181938F0170
:103F1000E7CF529A5A9A089552985A9AEA9AE9E63D
:103F2000F0E080818F7C808308956150770B91E071
:103F300001C0990F6A95EAF720E031E0911108C0BD
:103F4000222391F05A9A80E28A95F1F75A980895BF
:103F5000492F482339F05A9A232740E24A95F1F72E
:103F60009695ECCF5A98F9CF5A98EDCFFF920F93D0
:103F70001F93CF93DF93EC018C01060F111DC01727
:103F8000D10731F4DF91CF911F910F91FF900895E8
:103F9000F9900E94301F68E08F2D0E94951FEFCF8F
:103FA0001F920F920FB60F921124EF92FF920F9370
:103FB0001F932F933F934F935F936F937F938F93B1
:103FC0009F93AF93BF93EF93FF93CF93DF930F92A2
:103FD000CDB7DEB719820E94281FCE0101960E943C
:103FE000361FA82FA695A695A695282F2295257051
:103FF0009A2F9570290F922F937026952695920FE0
:10400000982797708981982B09F075C0A63008F021
:1040100072C080E18A95F1F75A9A529AB2E0BA9545
:10402000F1F700C05A98EA2EF12CEAE0AE9FD001D9
:104030001124AB5BBE4F1896ED91FC911997309708
:10404000B1F0609192027091930216962D913C917D
:104050001797260F371F13968D919C911497680F11
:10406000791F15964C91159712968C9109958AE0B7
:104070008E9DF0018F9DF00D1124EB5BFE4F65814D
:10408000662351F0209192023091930286819781AC
:10409000820F931F0E94B61F0E94301FF0E1FA9515
:1040A000F1F75A9852985A9A80E18A95F1F78AE086
:1040B0008E9D80018F9D100D11240B5B1E4FD8012A
:1040C00012966C911297662371F1209192023091B1
:1040D000930213968D919C91820F931F0E94621FF1
:1040E000D801ED91FC91882311F088E001C082E0B5
:1040F00080830E94281F0F90DF91CF91FF91EF9155
:10410000BF91AF919F918F917F916F915F914F91EF
:104110003F912F911F910F91FF90EF900F900FBE45
:104120000F901F901895ED91FC91DFCF0F931F9387
:10413000CF93DF93EC0106970CF0A9C08AE08C9F27
:10414000F0018D9FF00D1124EB5BFE4F808191817A
:10415000892B09F49CC0F894529A5A9885E08A9564
:10416000F1F700008C2F869585709C2F9570890F34
:10417000982F937086958695890F8E0193E0000F96
:10418000111F9A95E1F7082B0E94301F00C068E0CC
:10419000802F0E94951FA0E1AA95F1F752985A9A94
:1041A0004A9B27C087E090E04A9925C08AE08C9F0F
:1041B00080018D9F100D11240B5B1E4FF80165814E
:1041C0006623A1F12091920230919302868197811A
:1041D000820F931F0E94621F811128C0529A5A9A1F
:1041E000D801ED91FC9182E08083789482E090E0A8
:1041F00016C000C0D5CF0197B9F4529A5A9A8AE0F6
:104200008C9FF0018D9FF00D1124EB5BFE4F019010
:10421000F081E02D81E08083789481E090E0DF916F
:10422000CF911F910F91089500C0BECF0E94281F0B
:10423000B0E2BA95F1F75A98529AE0E1EA95F1F7AF
:104240008AE08C9FF0018D9FF00D1124EB5BFE4FF7
:104250006281662351F02091920230919302838112
:104260009481820F931F0E94B61F0E94301F8AE024
:104270008C9FF0018D9FF00D1124EB5BFE4F0190A0
:10428000F081E02D1082789490E080E0C8CF84E047
:1042900090E0C5CF9093AD028093AC0208959093C7
:1042A000D1038093D00308950E949A15811103C011
:1042B0008091CB030895E091D003F091D103309722
:1042C00021F00190F081E02D099480E00895E091C3
:1042D000D003F091D103309721F00280F381E02DDB
:1042E000099408952091CE033091CF032817390700
:1042F00071F09093CF038093CE03E091D003F091BF
:10430000D103309721F00680F781E02D09940895BC
:104310002091CC033091CD032817390771F0909389
:10432000CD038093CC03E091D003F091D10330977B
:1043300021F00084F185E02D099408959C012E5F01
:104340003F4FAC01485F5F4F80E02417350709F409
:104350000895F90191919F019923B9F38F5FF5CFEA
:10436000662349F0FC01329608962191261729F020
:10437000E817F907D1F780E0089581E008959C01DE
:10438000FC0132969FEF80E04191461751F09F3F2C
:1043900019F4411101C0982F8F5F8630A9F79F3F14
:1043A00009F40895290F311D97FD3A95F9016283AB
:1043B0000895FC01329608962191261303C0DF016F
:1043C00011971C92E817F907B9F708950C94BF21CB
:1043D0000C94D921029626E0FC0111922A95E9F766
:1043E000089508950C94F121811105C081E0809316
:1043F000D2030C94F22182E0FACF83E08093D203BF
:104400000C94F2210C94F42181E08093D2030C945B
:10441000F2210C940422089580912606843031F113
:104420000E9442061092D30388E190E020E40FB688
:10443000F894A895809360000FBE2093600083B726
:10444000817F846083BF83B7816083BF78948895C0
:1044500083B78E7F83BF0FB6F894A89580916000D4
:10446000886180936000109260000FBE08950895E7
:104470000895CF930E9437220E9410150E9438227F
:10448000C0E08C2F0E94D913811105C0CF5FCA30C4
:10449000C1F7CF91089581E0FCCF0E94100A0C94DF
:1044A000AC061F921FB61F9211248F939F93AF9358
:1044B000BF938091D303811113C080911E06909108
:1044C0001F06A0912006B09121064196A11DB11DA5
:1044D00080931E0690931F06A0932006B09321069A
:1044E000BF91AF919F918F911F901FBE1F90189504
:1044F00082E084BD93E095BD9AEF97BD80936E00F6
:1045000008952FB7F89480911E0690911F06A091F0
:104510002006B09121062FBF08952FB7F89460911F
:104520001E0670911F0680912006909121062FBFD4
:1045300008959C014FB7F89480911E0690911F0634
:10454000A0912006B09121064FBF821B930B0895C6
:10455000CF92DF92EF92FF922FB7F894C0901E0691
:10456000D0901F06E0902006F09021062FBFA701F3
:104570009601261B370B480B590BCA01B901FF9056
:10458000EF90DF90CF90089578941F921FB61F92FE
:1045900011248F939F93AF93BF9380911E069091A8
:1045A0001F06A0912006B09121060196A11DB11D04
:1045B00080931E0690931F06A0932006B0932106B9
:1045C000BF91AF919F918F911F901FBE1F90189523
:1045D00087E797E7909301088093000888E19AE0C5
:1045E0000FB6F894A895809360000FBE909360007A
:1045F000FFCF8091DF0308950895CF93DF93EC01FF
:1046000081E08093E9008FEF9091E800815095FD63
:1046100006C095ED9A95F1F700008111F5CF8091D4
:10462000E80085FF14C050E040E068E070E0CE0193
:104630000E9403258091E8008E778093E80088E04F
:10464000FE01A7EDB3E001900D928A95E1F7DF91AD
:10465000CF9108958093D4037093D6036093D503CC
:1046600080912606843001F582E08093E9008FEF87
:104670009091E800815095FD06C095ED9A95F1F76F
:1046800000008111F5CF8091E80085FF0DC050E05A
:1046900040E063E070E084ED93E00E9403258091A8
:1046A000E8008E778093E8000895BC0184E00C94C4
:1046B0002A23BC0183E00C942A23089580912506C7
:1046C000811109C00E9493260E94F0268091E20089
:1046D00084608093E20008951092250608950C945A
:1046E00004226091220681E0611101C080E00C94F7
:1046F000FD219091260681E0943009F080E06091E0
:1047000022060C94022242E061EC81E00E940F2616
:1047100042E261EC82E00E940F269091260681E041
:10472000943009F080E0609122060C94F42180918D
:104730002806833009F460C030F48130C9F182303A
:1047400009F49CC008958A3009F488C08B3009F4BC
:104750006EC0893009F04FC080912706813209F080
:104760004AC080912B0690912C06029708F043C016
:104770008091E800877F8093E8008091E80082FFC5
:1047800036C09091F3008091F200029731F480914D
:10479000F100813011F0863021F48091F100809396
:1047A000DF038091E8008B778093E8000C94432628
:1047B00080912706813AF9F48091E800877F809301
:1047C000E80080912B0690912C06892B61F468E01B
:1047D00087ED93E070E00E9452258091E8008B778E
:1047E0008093E800089560E090E080E0F3CF80914E
:1047F00026068111C2CF089580912706813AD9F704
:1048000080912B0690912C06892BA9F78091E800C6
:10481000877F8093E8008091E80080FFFCCF809143
:104820008A018093F1008091E8008E77BDCF80915E
:104830002706813201F780912B0690912C06892B57
:10484000D1F68091E800877F8093E8000E9443269C
:104850008091290680938A010C94100A8091270682
:10486000813249F68091E800877F8093E8000E94BA
:10487000432680912A068093E003089580912706BD
:10488000813A09F0B8CF8091E800877F8093E800F3
:104890008091E80080FFFCCF8091E003C2CF84B715
:1048A000877F84BF0FB6F894A895809160008861D7
:1048B00080936000109260000FBE80E890E00FB619
:1048C000F89480936100909361000FBE0C940922CC
:1048D0000E9493260E94F026E2EEF0E08081846040
:1048E000808378940C9479298EE791E00C944F2181
:1048F000809126068530A9F480912606853011F036
:104900000C944D220E940C22809124068823A1F34E
:104910000E943922882381F30E94ED240E94100A0C
:10492000EBCF089508950C949524292F3327233035
:10493000310519F168F42130310509F444C0223001
:10494000310509F445C090E080E030E020E025C06A
:104950002132310549F122323105A9F780E490E096
:1049600025E938E061157105C1F082E390E023E6A6
:1049700038E06130710589F0E6CF992781309105E3
:1049800081F0009729F00297F1F6E0EFF7E002C01E
:10499000E2E1F8E0849190E09F01FA013183208305
:1049A0000895E0E0F8E0F6CF89E090E028E238E012
:1049B0006115710591F389E090E021E438E0613000
:1049C000710559F3C0CF82E190E021E538E0E5CFF1
:1049D0008BE390E026E138E0E0CF80E189BD82E121
:1049E00089BD09B400FEFDCF8091D8008F7D8093F2
:1049F000D8008091E00082608093E0008091E00028
:104A000081FDFCCF0895AF92BF92CF92DF92FF92CB
:104A10000F931F93CF93DF936C01EB018A010E94E8
:104A20006226F82E811123C00115110539F0F80115
:104A300080819181C81BD90BC80ED91EB12CA12C25
:104A40002097A9F08091E80085FD22C08091E800C0
:104A50008E778093E80001151105A1F0F80180819F
:104A60009181A80EB91EB182A08285E0F82E8F2D0B
:104A7000DF91CF911F910F91FF90DF90CF90BF906A
:104A8000AF9008950E9462268823D1F2F82EEFCFCE
:104A9000F60181916F018093F1002197FFEFAF1A2A
:104AA000BF0ACECFFC0180912D0690912E0686176D
:104AB0009707A0F06115710529F49091E8009E77A1
:104AC0009093E80090E06115710551F4911108C0D0
:104AD0008091E80082FF34C080E00895BC01F2CFED
:104AE000809126068823C1F18530C1F18091E800CC
:104AF00083FD30C08091E80082FDEACF8091E8001C
:104B000080FFE1CF8091F3002091F200382F6115F2
:104B1000710519F02830310558F091E02830310541
:104B200009F090E02091E8002E772093E800CBCFA9
:104B300081918093F100615071092F5F3F4FE7CF62
:104B400080912606882341F0853041F08091E8006D
:104B500083FFBECF81E0089582E0089583E0089549
:104B6000FC0180912D0690912E0686179707A0F0E4
:104B70006115710529F48091E8008E778093E80033
:104B800090E06115710551F4911108C08091E80021
:104B900082FF35C080E00895BC01F2CF80912606E7
:104BA0008823C9F18530C9F18091E80083FD31C0C7
:104BB0008091E80082FDEACF8091E80080FFE1CF9C
:104BC0008091F3002091F200382F6115710519F0E2
:104BD0002830310558F091E02830310509F090E097
:104BE0008091E8008E778093E800CBCF849180930A
:104BF000F1003196615071092F5F3F4FE6CF8091F0
:104C00002606882341F0853041F08091E80083FF3B
:104C1000BDCF81E0089582E0089583E00895982F44
:104C2000973028F08F708093E90081E00895909389
:104C3000E900242F762F50E0981731F07091EC00A6
:104C40002091ED005091F00021FD02C09F5FE8CF60
:104C50003091EB003E7F3093EB003091ED003D7FD3
:104C60003093ED003091EB0031603093EB007093A6
:104C7000EC002093ED005093F0002091EE0027FD12
:104C8000E5CF80E008958091270687FF13C08091CB
:104C9000E80082FF06C08091E8008B778093E800EF
:104CA00004C0809126068111F2CF089580912606D6
:104CB0008823D9F38091E80080FFF8CF8091E80045
:104CC0008E77ECCF2091E4003091E50095E6A901C4
:104CD0002091EC00822F817020FF06C08091E800B7
:104CE00080FF06C080E008952091E80022FD1AC0F0
:104CF00080912606882389F0853089F08091EB0029
:104D000085FD0FC02091E4003091E5004217530764
:104D1000F9F29150E1F684E0089582E0089583E08D
:104D2000089581E008950E9401270E940927E0EE7E
:104D3000F0E0808181608083E8EDF0E080818F7712
:104D4000808319BCA7EDB0E08C918E7F8C9380811D
:104D50008F7E80831092250608950F931F93CF9323
:104D6000DF930E9401270E940927C8EDD0E08881C7
:104D70008F77888388818068888388818F7D888306
:104D800019BC109226061092220610922406109248
:104D9000230600EE10E0F80180818B7F80838881FC
:104DA0008160888342E060E080E00E940F26E1EEAF
:104DB000F0E080818E7F8083E2EEF0E08081816090
:104DC0008083808188608083F80180818E7F8083EA
:104DD000888180618883DF91CF911F910F91089521
:104DE000E8EDF0E080818F7E8083E7EDF0E0808168
:104DF0008160808384E082BF81E0809325060C94EB
:104E0000AD26E8EDF0E080818E7F80831092E20095
:104E100008951092DA001092E10008951F920F9207
:104E20000FB60F9211242F933F934F935F936F937D
:104E30007F938F939F93AF93BF93EF93FF93809153
:104E4000E10082FF0BC08091E20082FF07C08091E9
:104E5000E1008B7F8093E1000E9478298091DA0045
:104E600080FF19C08091D80080FF15C08091DA00C2
:104E70008E7F8093DA008091D90080FF96C080E118
:104E800089BD82E189BD09B400FEFDCF81E0809338
:104E900026060E945E238091E10080FF19C0809168
:104EA000E20080FF15C08091E2008E7F8093E200D7
:104EB0008091E20080618093E2008091D80080625E
:104EC0008093D80019BC85E0809326060E94712348
:104ED0008091E10084FF2BC08091E20084FF27C015
:104EE00080E189BD82E189BD89B5982F917080FFED
:104EF000FBCF8091D8008F7D8093D8008091E10016
:104F00008F7E8093E1008091E2008F7E8093E200AB
:104F10008091E20081608093E200809122068823E4
:104F200009F449C084E0809326060E947923809189
:104F3000E10083FF29C08091E20083FF25C08091BA
:104F4000E100877F8093E10082E080932606109243
:104F500022068091E1008E7F8093E1008091E20043
:104F60008E7F8093E2008091E20080618093E20076
:104F700042E060E080E00E940F268091F0008860AF
:104F80008093F0000E946F23FF91EF91BF91AF914A
:104F90009F918F917F916F915F914F913F912F9151
:104FA0000F900FBE0F901F90189519BC10922606F7
:104FB0000E946C2370CF8091E30087FD93E0909373
:104FC0002606B3CF1F920F920FB60F9211242F9384
:104FD0003F934F935F936F937F938F939F93AF9381
:104FE000BF93CF93DF93EF93FF93D091E900DF70EE
:104FF0008091EC00C82FC17080FDC0E81092E900DC
:105000008091F000877F8093F00078940E9426289A
:105010001092E9008091F00088608093F000CD2B21
:10502000CF70C093E900FF91EF91DF91CF91BF91D5
:10503000AF919F918F917F916F915F914F913F9130
:105040002F910F900FBE0F901F9018951F93CF9325
:10505000DF93CDB7DEB7AA970FB6F894DEBF0FBEC9
:10506000CDBF87E296E02091F100FC012193CF01B2
:10507000F6E08F329F07B9F70E9497238091E800EE
:1050800083FF1EC180912706909128069A3008F070
:1050900017C1E92FF0E0E65CF24D0C94DA29803874
:1050A00099F0823809F00CC180912B068F708730FF
:1050B00008F006C18093E9008091EB0085FB88270A
:1050C00080F91092E90006C0809123069091240691
:1050D000911182609091E800977F9093E80080930F
:1050E000F1001092F1008091E8008E77E5C08823EE
:1050F00009F4D3C0823009F0E3C080912906811100
:10510000D6C080912B068F702FEF280F263008F025
:10511000D7C08093E9002091EB0020FFC8C09330F6
:1051200031F48091EB0080628093EB00C0C09091DD
:10513000EB0090619093EB0021E030E001C0220F82
:105140008A95EAF72093EA001092EA008091EB003A
:105150008860EACF8111B4C0109129061F77809131
:10516000E3008078812B8093E3008091E800877FC3
:105170008093E8000E9443268091E80080FFFCCFE6
:105180008091E30080688093E30082E0111183E066
:105190008093260695C08058823008F091C0809197
:1051A000290690912A068C3D23E09207A1F583E021
:1051B0008A838AE289834FB7F894DE01139620E050
:1051C0003EE051E2E32FF0E050935700E49120FFDE
:1051D00003C0E295EF703F5FEF708E2F90E0EA30F2
:1051E000C0F0C7968D939D932F5F243159F74FBF21
:1051F0008091E800877F8093E8006AE270E0CE014A
:1052000001960E9452258091E8008B778093E800F8
:1052100057C0C096E7CF60912B0670912C06AE0167
:105220004F5F5F4F0E949324BC01892B09F448C053
:105230009091E800977F9093E80089819A810E947D
:10524000B025E1CF8038E1F58091E800877F809339
:10525000E800809122068093F10045CF811130C093
:1052600090912906923060F58091E800877F8093C5
:10527000E800909322060E9443268091220688230C
:1052800011F084E005C08091E30087FDFACF81E052
:10529000809326060E94832313C0809129068130C3
:1052A00079F481E0933009F080E080932406109235
:1052B000E9008091E800877F8093E8000E94432600
:1052C0008091E80083FF0AC08091E800877F809387
:1052D000E8008091EB0080628093EB00AA960FB605
:1052E000F894DEBF0FBECDBFDF91CF911F9108951F
:1052F0000895CF93809126068823A1F0C091E900FC
:10530000CF709091EC00892F817090FD80E8C82BC0
:105310001092E9008091E80083FD0E942628CF705A
:10532000C093E900CF9108950E949326109226061B
:105330000895E8EDF0E08081806180838AE18A95BC
:10534000F1F700C08091D90081700895991B79E030
:1053500004C0991F961708F0961B881F7A95C9F705
:1053600080950895AA1BBB1B51E107C0AA1FBB1F54
:10537000A617B70710F0A61BB70B881F991F5A95E1
:10538000A9F780959095BC01CD01089597FB072E54
:1053900016F4009407D077FD09D00E94B22907FCCB
:1053A00005D03EF4909581959F4F08957095619535
:1053B0007F4F0895EE0FFF1F0590F491E02D0994A3
:1053C000FB01DC0102C005900D9241505040D8F71E
:1053D0000895FB01DC0104C08D910190801921F436
:1053E00041505040C8F7881B990B0895FB01DC0120
:1053F00002C001900D9241505040D8F70895FB0132
:10540000DC0101900D920020E1F70895AEE0B0E0DC
:10541000ECE0FAE20C94F52C0D891E898F89988DA9
:1054200026E02C831A83098397FF02C080E090E86E
:1054300001979E838D83AE01455E5F4F698D7A8DA6
:10544000CE0101960E94362A4D815E8157FD0AC029
:105450002F813885421753070CF49A01020F131F4E
:10546000F80110822E96E4E00C94112DABE0B0E030
:10547000ECE3FAE20C94E72C7C013B018A01FC018D
:1054800017821682838181FFB9C19AE0292ECE014D
:1054900001965C01F7019381F30193FD859193FFE0
:1054A00081913F01882309F446C1853239F493FD87
:1054B000859193FF81913F01853229F4B70190E0F6
:1054C0000E94172CE7CF912C412C512CFFE1F515B0
:1054D00038F08B3209F188F4803201F1833221F106
:1054E00057FC3AC020ED280F2A3040F556FE1FC069
:1054F000929C200D1124922E06C08D3291F08033A3
:1055000079F7689450F8F30193FD859193FF8191A9
:105510003F018111DBCF20C0689451F8689452F8A4
:10552000F2CF689453F8EFCF689454F8ECCF429CD4
:10553000200D1124422E689455F8E5CF8E3229F4BF
:1055400056FCF9C0689456F8DECF8C3619F468948E
:1055500057F8D9CF8836B9F2982F9F7D955493305C
:10556000C0F08336A1F18337C1F1833509F05BC008
:10557000F801C190D1908F01692D70E056FC02C0F6
:105580006FEF7FEFC6010E94012C4C01689457F821
:105590000AC00C5F1F4F2FE3298388248394912C2A
:1055A0006501E89457F853FC04C04814190409F045
:1055B00018F5342C8114910431F5332009F46ACFA5
:1055C000B70180E290E00E94172C3A94F6CFF801E0
:1055D000808189830E5F1F4FE0CFF801C190D19089
:1055E0008F01692D70E056FC02C06FEF7FEFC6019E
:1055F0000E940C2C4C01D5CFB70180E290E00E94B4
:10560000172C4A94D2CFF60157FC859157FE819111
:105610006F01B70190E00E94172C31103A94F1E02D
:105620008F1A9108C7CF843619F0893609F074C0F3
:10563000F80157FE6AC061917191819191918F013A
:10564000252D2F76D22E97FF09C0909580957095C5
:1056500061957F4F8F4F9F4F6894D7F82AE030E0D5
:10566000A5010E94472CC82ECA188C2C5D2CD6FE92
:105670000CC0E89450F8C91440F4D4FE05C0D2FC24
:1056800003C0FD2DFE7E5F2E892C54FE8FC0FE01CF
:10569000EC0DF11D8081803309F081C0252D297E1C
:1056A000522E852D8870382E53FC8FC050FE89C035
:1056B0009C2C841418F44C0C942C981854FE8BC019
:1056C000B70180E390E00E94172C52FE09C088E7E2
:1056D00090E051FE02C088E590E0B7010E94172CCF
:1056E000C91408F484C0CA94D12C9FEFC91AD90AEE
:1056F000CA0CDB1CF60182916F01B70190E00E9499
:10570000172CAC14BD04B1F758CF61917191072EDD
:10571000000C880B990B93CFD52CE894D4F82AE091
:1057200030E0853739F1952D997FD92E8F3601F1EB
:1057300048F48835A9F0F701868197812B96E2E13C
:105740000C94032D803749F08837A9F7D4FE02C0A6
:105750006894D2F820E130E00DC06894D4F8F6CF18
:1057600054FE03C0E92FE660DE2E20E132E002C0E5
:1057700028E030E0F801D7FE0DC061917191819170
:1057800091918F01A5010E94472CC82ECA18E89458
:10579000D7F86BCF6191719190E080E0F2CF52FC2D
:1057A00002C083947ECF839483947BCF852D8678AB
:1057B00009F477CFF6CFB70180E290E00E94172C72
:1057C00083948414C0F3312C79CF342C381884148A
:1057D00008F474CFF8CF852D867809F481CF8BE259
:1057E00051FE80E257FC8DE2B70190E077CFB70120
:1057F00080E390E00E94172C9A9472CF8FEF9FEF76
:105800009DCFFC010590615070400110D8F7809544
:1058100090958E0F9F1F0895FC016150704001907C
:105820000110D8F7809590958E0F9F1F08950F93C4
:105830001F93CF93DF93182F092FEB018B8181FDED
:1058400009C01FEF0FEF812F902FDF91CF911F9194
:105850000F91089582FF14C02E813F818C819D811C
:10586000281739073CF4E881F981CF010196998323
:10587000888310838E819F8101969F838E83E3CFDF
:10588000E885F985812F0995892BA1F3DACFFA01F3
:10589000AA27283051F1203181F1E8946F936E7F6F
:1058A0006E5F7F4F8F4F9F4FAF4FB1E03ED0B4E060
:1058B0003CD0670F781F891F9A1FA11D680F791FA1
:1058C0008A1F911DA11D6A0F711D811D911DA11DB2
:1058D00020D009F468943F912AE0269F11243019C2
:1058E000305D3193DEF6CF010895462F4770405D5D
:1058F0004193B3E00FD0C9F7F6CF462F4F70405D0C
:105900004A3318F0495D31FD4052419302D0A9F766
:10591000EACFB4E0A6959795879577956795BA9560
:10592000C9F700976105710508959B01AC010A2E26
:1059300006945795479537952795BA95C9F7620FFD
:10594000731F841F951FA01D0895F999FECF92BD66
:1059500081BDF89A992780B50895A8E1B0E042E0AA
:1059600050E00C94D92C262FF999FECF92BD81BD21
:10597000F89A019700B4021639F01FBA20BD0FB68D
:10598000F894FA9AF99A0FBE08950396272F0E9469
:10599000B42C0E94B32C252F0E94B42C242F0C94DD
:1059A000B42C0196272F0E94B42C0C94B32CDC014C
:1059B000CB01FC01F999FECF06C0F2BDE1BDF89A1A
:1059C000319600B40D9241505040B8F708952F928F
:1059D0003F924F925F926F927F928F929F92AF927F
:1059E000BF92CF92DF92EF92FF920F931F93CF93CC
:1059F000DF93CDB7DEB7CA1BDB0B0FB6F894DEBF63
:105A00000FBECDBF09942A88398848885F846E8488
:105A10007D848C849B84AA84B984C884DF80EE80D2
:105A2000FD800C811B81AA81B981CE0FD11D0FB6DB
:105A3000F894DEBF0FBECDBFED010895F894FFCFFF
:105A4000DE07DE070F080F08A2083E083E083E08E2
:105A5000BE084A09590959091F0A1F0A280A280AB3
:105A60002A0A280A280A280A1F0A1F0A2F0A280AAF
:105A7000280A2F0A4F287728602977286029AA2822
:085A8000CB28602922292E2900
:105A8800808182838485868788898A8B8C8D8E8F96
:105A98009091929394A0A1A2A3A4A5A6A7A8A9AA0D
:105AA800ABACADAEAFB0B1B2B3B4C0C1C2C3C4C584
:105AB800C6C7C8C9CACBCCCDCECFD0D1D2D3D400DB
:105AC80064004803011504000000010000000015EF
