:100000000C94CB010C9412020C9412020C94171B4A
:100010000C9412020C9412020C9412020C94120210
:100020000C9412020C9412020C9455220C94292365
:100030000C94981D0C9412020C9412020C9412024F
:100040000C9412020C9412020C9412020C941202E0
:100050000C9412020C940B1E0C9412020C941202BB
:100060000C9412020C9412020C9412020C941202C0
:100070000C9412020C9412020C9412020C941202B0
:100080000C9412020C9412020C9412020C941202A0
:100090000C9412020C9412020C9412020C94120290
:1000A0000C9412020C9412020C94120229421E00AB
:1000B0001F002000210022002B0014001A0008005D
:1000C00015001700E10004001600070009000A00EF
:1000D000E0001D001B000600190005000000E20002
:1000E000015168002C0069002A0027002600250025
:1000F000240023003300130012000C0018001C0021
:10010000280034000F000E000D000B00E500380041
:10011000370036001000110000000154E7000251C2
:1001200028004C003A003B003C003D003E003F00F0
:1001300035002A00520028000100AC00E100500008
:1001400051004F002D00AE0039001D011B010601BA
:100150001901AB0000001D040100010001006A004C
:100160002E0030002F004200410040002D005700BB
:1001700001000100010001003502270226022502CC
:1001800001000100310230022F02010001000100D4
:100190000000010001002D0201006B0001000601BA
:1001A0001901010001000100000000000000000032
:1001B000000000000000000000000000000000003F
:1001C000000000000000000000000000000001002E
:1001D00001000351010001000100010001000100C4
:1001E000010001000000000000000000000000000D
:1001F00000000000000000000000000000000000FF
:1002000000000000000000000000000000000000EE
:100210000100000000001E021F0220022102220233
:1002200000000000000000000000000000000000CE
:1002300000000000000000000000000000000000BE
:1002400000000000000001000100010001000000AA
:1002500000002702260225022402230200000000DB
:10026000000000000000000000000000000000008E
:10027000000000000000000000000000000000007E
:1002800000000100010001000100010000AE00AF0C
:1002900000DA0281FFD9F1DB20A4A62EAF00A0C0B6
:1002A00000A1C800AED580A81FD300408D14200047
:1002B0000E034C0069006C00790035003800000026
:1002C00010036C0069006C00690075006D0073001C
:1002D00000000403090409023B00020100A0FA091E
:1002E0000400000103010100092111010001224065
:1002F000000705810308000A09040100010300004A
:1003000000092111010001223200070582032000AB
:100310000A1201000200000008D8042DEB000101C0
:1003200002000105010980A101850319012AB70016
:10033000150126B700950175108100C0050C090153
:10034000A101850419012AA002150126A002950128
:1003500075108100C005010906A101050719E029F2
:10036000E715002501950875018102950175088141
:10037000010507190029FF150026FF0095067508DD
:10038000810005081901290595057501910295015E
:1003900075039101C00011241FBECFEFDAE0DEBF6C
:1003A000CDBF04B603FE27C080910E0590910F05C6
:1003B000A0911005B09111058730904BA740B04B2C
:1003C000D1F410920E0510920F05109210051092A4
:1003D000110514BE84B7877F84BF0FB6F894A89523
:1003E00080916000886180936000109260000FBE71
:1003F000E0E0F8E3099511E0A0E0B1E0E2E3FBE41E
:1004000002C005900D92A83DB107D9F725E0A8EDEF
:10041000B1E001C01D92AE30B207E1F70E94601456
:100420000C9473250C94000081E0089581E00895F8
:100430000C94160208950C941A021F93CF93DF9325
:1004400000D000D00F92CDB7DEB749835A836B83BB
:100450003091DA0189819A8131111DC06623B9F08A
:100460002223A9F00E94EA07182F682F89819A8118
:100470000E94930769817A81812F0F900F900F90CE
:100480000F900F90DF91CF911F910C94A70E0E94B7
:10049000C107182FEFCF0E94EA0769817A81EDCF5B
:1004A000FC01262F408151816281738184810C94EB
:1004B0001D0281E00895CF93DF93EC0160E00E947C
:1004C0005002BE01DF91CF910C941B020E94DD0F00
:1004D0000E94E5020C9402100C94051080E00E942A
:1004E000E6020C944816089508950E943C060E9466
:1004F00074022FEF84E39CE0215080409040E1F7AC
:1005000000C000000C942F1E0F931F93CF93DF9316
:100510008C0161E00E945002EC01B8010E941802B7
:100520008823A9F1B801CE010E941619882379F118
:10053000B801CE010E94A116882349F1B801CE016D
:100540000E948018882319F1F8018281882361F0C4
:10055000CB35FDE5DF0721F170F4C115ECE5DE07D1
:10056000A1F0CF3DDC45C9F0C801DF91CF911F91CB
:100570000F910C941402CC358DE5D807A1F0CD3540
:10058000DD4591F70E94000CEFCF0E94750280E0DC
:10059000DF91CF911F910F9108950E94B40CF7CF76
:1005A0000E94090CE1CF0E940C0CDECF0C94730268
:1005B0000E949B1C0E94E6020C94D60208950C94A3
:1005C000DE0281E008950C94E1020895CF93C82FD4
:1005D0000E94DF028C2FCF910C94E302CF93DF9324
:1005E000CDB7DEB72B970FB6F894DEBF0FBECDBFE9
:1005F0004F83588769877A878B8761110E945B0BCD
:100600001E821D8285E0FE013796DE011196019063
:100610000D928A95E1F78C819D81892B89F449811E
:100620005A816B817C818D819E810E947C0A2B96F0
:100630000FB6F894DEBF0FBECDBFDF91CF91089506
:1006400089819A8189238F3F51F3CE0101960E94BF
:1006500059028111E4CFEBCFFC01808191810C9490
:100660002C08CF93C82F882309F43FC08CEF8C0F40
:10067000813AA0F46C2F80910201909103010E94B5
:10068000F71C882329F08C2F0E941D0B0E947E0BE3
:100690008C2F0E94160BCF910C947E0B80E28C0F56
:1006A000883048F4C77081E001C0880FCA95EAF726
:1006B0000E943E0BF0CFEBE5EC0FE33040F4F0E0AE
:1006C000E758FE4F808190E0CF910C94B91CC85A36
:1006D000C73158F4EC2FF0E0EE0FFF1FE55BFE4F43
:1006E00080819181CF910C94CF1CCF910895882364
:1006F00029F19CEF980F913A20F40E941D0B0C9465
:100700007E0B90E2980F983050F4877091E001C012
:10071000990F8A95EAF7892F0E94440BF0CF9BE549
:10072000980F933020F490E080E00C94B91C885A24
:10073000873120F490E080E00C94CF1C08951F9343
:10074000CF93DF93182FEB010E943103209731F4F0
:10075000812FDF91CF911F910C9477038FE99FE058
:100760000197F1F700C000002197F0CF70E060E042
:10077000893311F460E570E00C949F03882321F025
:100780000E943E0B0C947E0B0895882321F00E945A
:10079000440B0C947E0B0895BF92CF92DF92EF92A0
:1007A000FF920F931F93CF93DF936C01D62FC72F28
:1007B000FC011281F580F2949FE0F9220E94340B33
:1007C000E82E8823B9F0E12E1123A1F08C2F807F31
:1007D000803421F080E28D0F8830D0F08091DD02EE
:1007E00082FD16C082E00E94CF0B0E94340B91E084
:1007F000E82EE926BC2EB2948FE0B822FBE0FB1570
:1008000008F468C0EB2DF0E0EB58FA4D0C94152578
:10081000E12CF0CF0C2F0F70C07F11F00295007FFC
:10082000112399F0002359F080E28D0F883010F0E9
:10083000D11107C0802F0E943E0B0E947E0B8D2F8E
:1008400041C0802F0E944E0BF8CF8D2F0E9477035E
:10085000002309F43FC080E28D0F883010F0D111E1
:1008600004C0802F0E94440B03C0802F0E94540BB1
:100870000E947E0B2FC00C2F0F70C07FC03211F072
:100880000295007FDD2381F0D13009F469C0112386
:1008900009F473C0FF2009F469C0F601858180FF67
:1008A000CECF8F70858362C08091DD0282FF38C019
:1008B000112359F0002329F0802F0E943E0B0E9443
:1008C0007E0B80E00E94310305C080E00E94770328
:1008D0000111C7CFEB2DE850FF0B349720F40E9495
:1008E0009B1C0E94E602EE2009F467C10E94300BB7
:1008F00080FD63C1F60112820E942A0B0E94F70656
:10090000C6010E94FE050E942A0BDF91CF911F9124
:100910000F91FF90EF90DF90CF90BF900C9418074D
:10092000112389F0F11006C00E94610B802B0E94F8
:10093000BE03D0CF21E0F212F7CF0E94610B802BD3
:100940000E94670BC7CFF11006C00E94740B802F66
:100950000E94C503BFCF31E0F31609F4BBCFF5CF3A
:10096000112331F085E08F1508F4B4CF802FDFCF4D
:1009700094E09F1508F4AECFEACFFF2041F3D933BE
:1009800049F4FFEF27EE33E0F15020403040E1F72B
:1009900000C000008D2F0E9477039CCF8C2F86957E
:1009A0008695837069F0813009F094CF8D2F9C2F4C
:1009B0009370111102C090E080E00E94CF1C8ACF9A
:1009C0008D2F9C2F9370111102C090E080E00E9447
:1009D000B91C80CF8C2F837009F041C011117ACFE0
:1009E0004D2F429546954770440F440F0D2F0F70C1
:1009F00010E030E020E0042E04C0000F111F221F81
:100A0000331F0A94D2F760E070E0CB01D4FF0FC02F
:100A10006FE070E080E090E004C0660F771F881FF1
:100A2000991F4A95D2F76095709580959095C695D7
:100A3000C695C370602B712B822B932BC23049F06B
:100A400058F4C13019F00E94A90644CF0E949706BD
:100A500041CF0E94BB063ECF0E9495063BCF8695B4
:100A6000112311F08C2F8170882309F433CF4D2F7F
:100A7000429546954770440F440F0D2F0F7010E0BC
:100A800030E020E0042E04C0000F111F221F331F8E
:100A90000A94D2F760E070E0CB01D4FF0FC06FE0A2
:100AA00070E080E090E004C0660F771F881F991FF8
:100AB0004A95D2F76095709580959095C695C695A4
:100AC000C370602B712B822B932BC23049F058F4EA
:100AD000C13019F00E946E07FDCE0E945C07FACE6D
:100AE0000E948007F7CE0E94D106F4CECF7011236A
:100AF00029F08C2F0E94F7068D2F19CF8D2F0E9481
:100B0000C5038C2F0E941807E5CED23F51F160F447
:100B1000D03FB9F0D13F81F0112309F449C0F11061
:100B20008ECE8C2F8F7121C0D33F11F1D43FA1F70E
:100B30008091DD0282FF26C08C2F8F71112311F36B
:100B400014C0112349F084E08F1508F4C3CE8C2F14
:100B50008F710E943B07BECE95E09F1508F4BACE78
:100B6000F6CF8C2F8F711111CDCF0E94F706B2CE28
:100B7000112329F08C2F8F710E94E206ABCE0E94C8
:100B8000DD06A8CE112349F0CF718C2F0E94F70605
:100B900063E08C2F0E94B40B9DCE81E00E94CF0BAE
:100BA000E1E0EF1508F096CE82E00E94CF0B92CEE6
:100BB000F110E5CE8C2F8F71A5CFDF91CF911F91D2
:100BC0000F91FF90EF90DF90CF90BF9008950F931B
:100BD0001F93CF93DF93EC01688179818A810E9412
:100BE00036088C010E9492070E949406B801CE013B
:100BF000DF91CF911F910F910C94CC03CF93DF9392
:100C0000EC018B819C81892B29F088819981892332
:100C10008F3F59F4DF91CF910895CE010E94E705EF
:100C2000CE01DF91CF910C945B02CE010E94840231
:100C30008111F3CF0E94340B882361F38A818823CA
:100C400049F38091DD0282FDE5CF82E0DF91CF9113
:100C50000C94CF0B90E080E00E94B91C90E080E003
:100C60000E94CF1C0E945B0B0E945E0B0C947E0BBB
:100C70000E94240B0C942A060E944B0B0C943806FD
:100C8000E92FE295EF70E250EE3070F4F0E0EF57AC
:100C9000FA4D0C941525803F19F020F4883E20F47D
:100CA00081E00895843FE1F380E00895883EC0F339
:100CB000813FD1F7F5CF93FB882780F90895FC0198
:100CC000808191810E942C080C944006CF93DF9381
:100CD00000D000D00F92CDB7DEB70F900F900F90DD
:100CE0000F900F90DF91CF910895CF93DF9300D0B5
:100CF00000D000D0CDB7DEB726960FB6F894DEBF91
:100D00000FBECDBFDF91CF91089508950C94850655
:100D10000E9486066093070270930802809309027E
:100D200090930A020C942A0608950C9488060F9357
:100D30001F9300910702109108022091090230913F
:100D40000A02602B712B822B932B1F910F910C9415
:100D500088060F931F9300910702109108022091BB
:100D6000090230910A0260237123822393231F9189
:100D70000F910C9488060F931F9300910702109116
:100D800008022091090230910A0260277127822708
:100D900093271F910F910C9488060C9485060C9450
:100DA000CD060E94CF0660930302709304028093E5
:100DB0000502909306020C942A0660E070E0CB01D5
:100DC0000C94D1060F931F9341E050E060E070E077
:100DD0008A019B0104C0000F111F221F331F8A9537
:100DE000D2F7C901B8011F910F910C94D1060F934E
:100DF0001F9341E050E060E070E004C0440F551FD5
:100E0000661F771F8A95D2F78091030290910402A2
:100E1000A0910502B09106028A019B01082B192BB3
:100E20002A2B3B2BC901B8011F910F910C94D106BD
:100E30000F931F9341E050E060E070E004C0440F66
:100E4000551F661F771F8A95D2F7CB01BA016095AF
:100E50007095809590950091030210910402209165
:100E600005023091060260237123822393231F9190
:100E70000F910C94D1060F931F9341E050E060E076
:100E800070E004C0440F551F661F771F8A95D2F784
:100E90008091030290910402A0910502B091060294
:100EA0008A019B01082719272A273B27C901B80176
:100EB0001F910F910C94D1060F931F930091030281
:100EC000109104022091050230910602602B712BD3
:100ED000822B932B1F910F910C94D1060F931F938C
:100EE0000091030210910402209105023091060244
:100EF00060237123822393231F910F910C94D106B9
:100F00000F931F9300910302109104022091050298
:100F10003091060260277127822793271F910F9136
:100F20000C94D1060895E92FEE0FE90FEE0F8E0F06
:100F3000982F977041E001C0440F9A95EAF7869583
:100F40008695869595E0899FF0011124E552FE4F24
:100F500030E020E070E05191DF011197CB01022ECB
:100F600002C0969587950A94E2F78170819585274E
:100F7000842385278C932F5F3F4F2530310559F708
:100F80000895E92FEE0FE90FEE0F8E0F982F97704F
:100F900086958695869525E0829FF0011124E5527D
:100FA000FE4F50E040E080E0219130E0092E02C089
:100FB000369527950A94E2F721703327042E01C055
:100FC000220F0A94EAF7822B4F5F5F4F453051059D
:100FD00059F70895BF92CF92DF92EF92FF920F934D
:100FE0001F93CF93DF938C01C0900302D090040233
:100FF000E0900502F09006028091070290910802AD
:10100000A0910902B0910A02C82AD92AEA2AFB2A29
:10101000CFE1D0E0BC2ED701C6010C2E04C0B6959E
:10102000A795979587950A94D2F780FD0EC02197D2
:1010300088F7B12C8B2DDF91CF911F910F91FF90ED
:10104000EF90DF90CF90BF900895B8018C2F0E9451
:10105000BB0E019761F3EECFCF93DF93EC010E94BB
:10106000EA07BE01DF91CF910C94BB0E1F93CF9383
:10107000DF93EB019091DA01992331F0CB01DF91FD
:10108000CF911F910C942C08882379F0CB010E94FA
:10109000EA07182F682FCE010E949307BE01812F07
:1010A000DF91CF911F910C94BB0ECB010E94C10721
:1010B000182FF4CF1F93CF93DF93C0910B0216E04C
:1010C00080910C028C1304C0DF91CF911F91089581
:1010D000D0E01C9FF0011D9FF00D1124E35FFD4F38
:1010E0004081518162817381848195810E9475065E
:1010F0002196C770E5CF40913D0250913E0260912C
:101100003F027091400280914102909142020C9402
:101110007506FF920F931F93CF93DF938091420246
:10112000807FD1F480913F028823B1F080910B023F
:1011300010910C0260913D0270913E02A09140021C
:10114000B0914102062F0723C0910001D091010107
:1011500096E0F92E181306C0DF91CF911F910F91E1
:10116000FF90089590E0109711F00F3F19F4019649
:101170008770F0CFF89E9001F99E300D1124F9018F
:10118000E35FFD4F41814713F2CF40814613EFCF1C
:1011900042814111ECCF438154814A1B5B0B4C17B8
:1011A0005D0728F7809142028F7080618093420230
:1011B000F901EE5EFD4F80818F70806180838DE349
:1011C00092E00E94FE05DF91CF911F910F91FF9059
:1011D0000C945A08AF92BF92CF92DF92EF92FF9297
:1011E0000F931F93CF93DF93CDB7DEB761970FB601
:1011F000F894DEBF0FBECDBF8C0185E0F801DE01A3
:101200001D9601900D928A95E1F7F801E2808DE339
:10121000C82E82E0D82E6091400270914102611583
:10122000710509F44DC190913D0220913E02892F34
:1012300082238F3F09F444C140815181A380B4804F
:10124000F0903F02F501E61BF70BBF01E0910001B2
:10125000F0910101FF2009F404C180914202382F6E
:10126000307F6E177F0708F0BDC0311179C0FE2CAA
:10127000251323C0941321C0E1101FC08F7080611B
:10128000809342020E947B08C6010E94FE05809165
:101290004202F80185838F2D61960FB6F894DEBF68
:1012A0000FBECDBFDF91CF911F910F91FF90EF90B7
:1012B000DF90CF90BF90AF900895AB2829F0842F96
:1012C00085238F3F09F015C180E0F82FF170DF2EE4
:1012D00080FF3CC080910B0220910C0236E082130B
:1012E00015C04D875E878D859E850E942C08292F0D
:1012F00022952F702230F0F0243018F59F70F1F015
:10130000F8019581907FD1F4D12C1EC090E0389FD8
:10131000F001399FF00D1124E35FFD4F61816513EA
:1013200006C06081641303C062816E110FC0019614
:101330008770D5CF9F7011F0882331F3805E88309D
:1013400018F3C8010E94FE05FD2CA5CFEE2009F47C
:10135000A2CF80914202816080934202F12C9BCF08
:10136000251314C0941312C0E11010C0F801858336
:10137000C8010E94FE0586E0F801ADE3B2E00190ED
:101380000D928A95E1F70E947B0885CFC8010E94E3
:101390005F06882319F1EE2009F180914202803224
:1013A00070F020913D0230913E0238872F831986DC
:1013B000BB86AA868C87CE0107960E94FE0586E032
:1013C000F801ADE3B2E001900D928A95E1F70E9439
:1013D00089080E947B08FF24F3945DCFC8010E9416
:1013E000FE05F9CF311113C07A2DB98AA88A6E2D66
:1013F00089890E9466068DE392E00E94FE0586E0E0
:10140000F60111928A95E9F70E947B08A7CF251370
:101410000FC094130DC0E1100BC0F8018583C80103
:101420000E94FE0586E0F60111928A95E9F733CF16
:10143000C8010E945F06882389F2EE2079F280912C
:101440004202803208F4BBCF20913D0230913E022F
:101450003A8329831B82BD82AC828E83CE010196A2
:10146000ACCF6E177F07F8F4FE2CEE2009F4B6CF50
:1014700025130BC0941309C086E0F801ADE3B2E078
:1014800001900D928A95E1F706CFC8010E945F0690
:10149000811195CF80914202816080934202C80100
:1014A0000E94FE05F8CE7A2DB98AA88A6E2D898908
:1014B0000E94660686E0F60111928A95E9F763CFED
:1014C000EE2009F48BCFC8010E945F06F82E882316
:1014D00009F484CF86E0F801ADE3B2E001900D920B
:1014E0008A95E1F78DE392E00E942C030E9489081F
:1014F0004ACF81E08E25E9CE1F93CF93DF93CDB7FE
:10150000DEB72C970FB6F894DEBF0FBECDBF4F836A
:10151000588769877A878B879C87CE0107960E94B8
:10152000EA08882369F08A859B85892B39F04F81E9
:101530005885842F85238F3F09F071C016E05FC066
:1015400086E0FE013796DE01119601900D928A9594
:10155000E1F78A859B85892B89F38F81988589237B
:101560008F3F61F320910C0230E0C9010196877032
:10157000992740910B024817190671F40E943C0606
:1015800010920C0210920B0286E0EDE3F2E0DF0114
:101590001D928A95E9F7D2CF96E0929FD001939F52
:1015A000B00D1124A35FBD4FFE01319601900D9245
:1015B0009A95E1F780930C020E945A08BFCF819F51
:1015C000C0011124835F9D4F0E94EA088823E9F03F
:1015D000E0910B021E9FF0011124E35FFD4F40815B
:1015E000518162817381848195810E947506809109
:1015F0000B0290E001968770992780930B028091EF
:101600000B0290910C028913DACF2C960FB6F89446
:10161000DEBF0FBECDBFDF91CF911F9108956985C9
:101620007A858B859C850E94750688CF682F80916E
:101630000201909103010C942D1D682F80910201ED
:10164000909103010C942F1D809102019091030150
:101650000C94311D8091430285958595859508955B
:10166000809143028770089590914302977081E0C2
:1016700009F480E0089580914F02089590914F02FF
:10168000892B80934F020895809590914F02982363
:1016900090934F02089510924F02089590914E0238
:1016A000892B80934E020895809590914E02982345
:1016B00090934E02089510924E02089510924D029A
:1016C000089580914402089508950C94640B9091BC
:1016D000DD0292FD08C090914402981721F080939A
:1016E00044020C94650B089580914402882329F0EC
:1016F0001092440280E00C94650B0895E091020181
:10170000F091030180914F028083E0910201F091FA
:101710000301808190914E02892B8083E091020128
:10172000F0910301808190914D02892B80839091EB
:101730004402992381F0E0910201F091030180813C
:10174000892B808380910201909103010E94E51C06
:1017500081110E94740B80910201909103010C94FD
:10176000AE1C08950C94B10B9091DD0292FD10C057
:1017700098E0899F90011124622B609343020E949C
:10178000F706809143028595859585950C94B20B5B
:101790000C94F7061092430280E00C94B20B9091E7
:1017A00043028095892380934302282F277091F468
:1017B000282F082E000C330B9217130659F0909126
:1017C000DD0292FD07C08595859585950E941807D5
:1017D0000C94CA0B08959091DD0292FB222720F908
:1017E000281769F080FB92F99093DD028091DC026A
:1017F0009091DD020E94300C82E00C94CF0B089592
:101800008091DD0282FB882780F991E089270C9482
:10181000EB0B81E00C94EB0B80E00C94EB0B90E075
:1018200080E00E94392521E0893E9E4F09F020E0AA
:10183000822F089582E090E00C94312583E090E0BF
:101840000C943125CF9384E090E00E943125C82F7D
:1018500082E290E00E943125982F8C2FCF9108953D
:10186000CF93C92F682F84E090E00E943F256C2F12
:1018700082E290E0CF910C943F25AB01BC018FE058
:1018800090E00C945125AB01BC0183E190E00C94F5
:10189000512560E070E0CB010C94430C60E070E0F7
:1018A000CB010E943D0C0C94490C69EE7EEF90E058
:1018B00080E00E945D2560E082E090E00E943F258C
:1018C00060E083E090E00E943F25109207021092B2
:1018D00008021092090210920A0260E084E090E08F
:1018E0000E943F2560E082E290E00E943F2560E098
:1018F00085E090E00E943F2560E086E090E00E9455
:101900003F256FEF87E090E00E943F2540E050E0E8
:10191000BA0188E090E00E94512560E08DE090E0FF
:101920000E943F2540E050E0BA0188E190E00E942B
:10193000512560E087E190E00E943F2540E050E0C3
:10194000BA018CE190E00E94512570E060E080E2F5
:1019500090E00E945D2540E050E0BA0188E190E00F
:101960000E9451250C944E0C0C94550C682F8EE05F
:1019700090E00C943F250E94D41D60936302709305
:101980006402809365029093660260935F02709395
:101990006002809361029093620208950E94D41DB8
:1019A0006093630270936402809365029093660271
:1019B00060935B0270935C0280935D0290935E0281
:1019C000089585B7806885BF85B7806885BF08950D
:1019D000089508950C94E80C08950C94EC0C0E9462
:1019E000E10C8AED9FE00E94911C0E94E90C0C948E
:1019F000EA0C0C94C811089508950E94FB0C0C94F5
:101A0000FC0C0E94BF1D0E94990F0E94B0100E9402
:101A10006D1480E00E94CD140E94CF170C94ED0C41
:101A20009F92AF92BF92CF92DF92EF92FF920F936D
:101A30001F93CF93DF93CDB7DEB72A970FB6F894F5
:101A4000DEBF0FBECDBF0E943E11C82E81110E9485
:101A5000BB0C81E5A82E82E0B82E10E000E0902EAD
:101A6000802F0E940710E82EF501F1905F01F81613
:101A700009F45AC08091670281FD0E940D108F2DDC
:101A80008E25D12CFF24F394982F9F2109F447C071
:101A90000E94F90C882399F0DE829F82EF2081E07A
:101AA00009F480E088870E94C81D8160782F9A879A
:101AB00089874E815F8168858A850E94EE02F801E0
:101AC000EF5AFD4F8081F826F0820E94E817182F08
:101AD00081110E94CE0C0E946716C11001C0111125
:101AE0000E942C150E949B1C90915002891799F11D
:101AF0000E949B1C809350022A960FB6F894DEBF7A
:101B00000FBECDBFDF91CF911F910F91FF90EF904E
:101B1000DF90CF90BF90AF909F900C94E602D3944B
:101B2000FF0CF6E0DF12B0CF0F5F1F4F0A30110538
:101B300009F095CF8FEF89838A831B820E94C81D8D
:101B40008160782F9D838C8349815A816B818D813F
:101B50000E94EE02BACF2A960FB6F894DEBF0FBEEF
:101B6000CDBFDF91CF911F910F91FF90EF90DF904C
:101B7000CF90BF90AF909F900895CF93DF930E9436
:101B8000BF0EEC01811522E59207E8F5811531E5DC
:101B9000930708F0ACC0883E910510F5803E910592
:101BA00070F5883A910570F4853A910508F078C08F
:101BB0008130910521F1009711F1049700F5D0E0F3
:101BC000C0E01DC08F3B9105D0F7C85AD0E0CC0FC4
:101BD000DD1FC458DE4F0990D881C02DD4640FC0DA
:101BE000811540E5940708F066C0C11580E4D80768
:101BF00008F05EC0CE019A9581159F4100F7CE0195
:101C0000DF91CF910895811536E5930718F5811579
:101C100045E5940708F083C0C11584E5D80708F0AE
:101C200079C09C2F969596959E0123703327C115F8
:101C3000D34508F461C0C1E0D0E002C0CC0FDD1F85
:101C40002A95E2F730E2939FC0011124C82BD92BCB
:101C5000DA68D5CFC1158AE5D80778F4C11599E5BA
:101C6000D90708F066C0C11528E5D20708F4A7CF48
:101C7000DC2FCC27C06FD06AC2CFCE019056811521
:101C8000904208F09CCF8D2F8F710E94560F90E0EC
:101C9000982F882788279F719C012C2BE90147C02A
:101CA000C55AD0E0C655DE4FC881D0E0D064A7CF7A
:101CB000DF70D06AA4CFE4E096958795EA95E1F7C6
:101CC00083702C2F26952695237040E2249F900147
:101CD0001124382B8C2F8370C1E0D0E002C0CC0FD0
:101CE000DD1F8A95E2F7C22BD32BDC6888CFD82F73
:101CF000CC27C16FD06A83CFC1E0D0E002C0CC0F47
:101D0000DD1F2A95E2F720E2929FC0011124C82B23
:101D1000D92BEBCFDC2FCC27C46FD06A70CF0E94B9
:101D2000560FC82FD0E0DC2FCC27CC27DF71D06234
:101D300066CF8C2F8F700E94560F34E0D695C795D2
:101D40003A95E1F7CF709C2FEC01D06958CF972FCF
:101D500070E026E0929F600D711D1124FB019CE351
:101D6000899FE00DF11D1124EE0FFF1FE455FF4F79
:101D70008591949108950E94A70E0C94BD0D823810
:101D80009105B1F1B0F48133910509F475C048F4BF
:101D90008932910509F469C08A32910509F473C04A
:101DA00008958533910509F459C08933910501F1EE
:101DB0000895833E9105A9F138F4803E9105F9F02C
:101DC000823E910549F10895863E9105A9F1873E2D
:101DD0009105C9F1843E910519F52091DD0221FF9D
:101DE0001FC08091DC0284FD14C087EE90E008954E
:101DF0002091DC022370A1F080EE90E00895209104
:101E0000DC0220FD47C03091DD0230FF09C024FF15
:101E100044C090E080E004C02091DC0222FDF7CFB6
:101E200008952091DC0222FD3BC03091DD0230FD9F
:101E3000E3CF24FFF5CFEDCF2091DC0223FFF0CFDD
:101E400024FDE7CFD2CF2091DC0223FD2CC03091BE
:101E5000DD0231FFEECF84EE90E008952091DC02A8
:101E600025FFDECF89E290E008952091DC0225FF76
:101E7000D7CF85E390E008952091DC0226FFD0CFF4
:101E80008AE290E008952091DC0226FFC9CF81E329
:101E900090E0089589E390E0089583EE90E008953E
:101EA00082EE90E0089586EE90E008959091DC0235
:101EB00092FF06C0282F28712830F9F4877F8460AC
:101EC00093FF06C0282F28712831F1F4877E8461A2
:101ED0002091DD0220FF06C0382F38713830D9F448
:101EE000877F816021FF06C0282F28712831D1F417
:101EF000877E816194FD877E0895282F2471243088
:101F0000F9F68B7F8860DCCF282F2471243101F70C
:101F10008B7E8861DDCF382F3171313019F78E7F9C
:101F20008860E0CF282F2171213121F78E7E8861D2
:101F3000E1CF1092D8021092D9021092DA021092D8
:101F4000DB020895CF92DF92EF92FF926B017C014A
:101F50000E94C81181110EC00E94D41DC61AD70A52
:101F6000E80AF90AC092D802D092D902E092DA02C5
:101F7000F092DB02FF90EF90DF90CF9008950F93E7
:101F80001F930E94C811882321F01F910F910C9478
:101F9000D41D0E94D41D0091D8021091D902209125
:101FA000DA023091DB02600F711F821F931F1F91B5
:101FB0000F91089580E0089508950E940F0C8111FB
:101FC00002C00E94B40C0E941A0C809367020E9407
:101FD000220C9093DD028093DC020E94DC0F0E94B1
:101FE0001E0C682F70E090E080E00E9495066091E2
:101FF00003027091040280910502909106020C94F4
:10200000CF0608950C94011008950C940410E82F45
:10201000F0E0E851FD4F80810895089580EA8A95A7
:10202000F1F7089500C008950C940E10F894E82F6D
:10203000E295EF70F0E031A1282F2F7081E090E061
:1020400001C0880F2A95EAF7982F9095932391A3C2
:1020500092A1892B82A37894089508950C942D1051
:10206000CF93DF93C3EBD1E089918F3F11F00E94B2
:10207000161081E0C83BD807B9F7CDEAD1E08991C5
:102080008F3F11F00E94161081E0C33BD807B9F7CB
:10209000DF91CF910895CF92DF92EF92FF920F934D
:1020A0001F93CF93DF93EC01D62E062F10E0C801CB
:1020B0008D549E4F7C01FC0180818F3F09F445C007
:1020C000F894E82FE295EF70F0E091A18F7021E095
:1020D00030E001C0220F8A95EAF7892F822B81A375
:1020E00082A12095282322A378940E941210EDEA61
:1020F000F1E043EB51E031E0C12C21912F3F71F130
:10210000A22FA295AF70B0E090968C9190E02F70C6
:1021100002C0959587952A95E2F780FD1FC0832F11
:10212000C82A330F4E175F0741F7F70180818F3FB1
:1021300011F00E94161061E0C11001C060E08D2D09
:102140000E941410C00FD11FC882DF91CF911F9140
:102150000F91FF90EF90DF90CF90089580E0E0CF57
:102160000E94E211809104018091040195E08111A7
:1021700090E09093F30285E0891B8093F2020E9425
:1021800030108AE0E8EEF2E0DF01982F1D929A9578
:10219000E9F7EEEDF2E0DF011D928A95E9F785E0BF
:1021A0000E9491110E9466020C94EC11EF92FF9232
:1021B0000F931F93CF93DF9300D000D00F92CDB732
:1021C000DEB70E94C811F82E6091F302882309F44B
:1021D00048C085E0E82E8E010F5F1F4FF8018E2D5D
:1021E00011928A95E9F7862F90E0B80188519D4FAA
:1021F0000E94FA118823F9F08091F20290E045E004
:1022000050E0B80188519D4F0E941B2521E020938A
:102210006802892BD1F4F12C0E946C028F2D0F9053
:102220000F900F900F900F90DF91CF911F910F9112
:10223000FF90EF90089580916802882361F3F80180
:102240001192EA94E9F710926802A091F202B0E0CC
:10225000A851BD4F85E0F80101900D928A95E1F7F4
:10226000DBCF70E068517D4F8091F20290E08851A1
:102270009D4F0E9487120E942E10D0CFEF92FF92A6
:102280000F931F93CF93DF93CDB7DEB72A970FB687
:10229000F894DEBF0FBECDBF8E010F5F1F4F8AE0E7
:1022A000F80111928A95E9F7F12C6F2DC8010E946F
:1022B0004B10F394F5E0FF12F8CF4AE050E0B8017C
:1022C0008EED92E00E941B257C0121E0892B09F410
:1022D00020E0E114F10441F08AE0F801AEEDB2E053
:1022E00001900D928A95E1F76091F30270E06851D8
:1022F0007D4F45E08EED92E00E94921181E090E0EA
:10230000EF2811F40E94D6102A960FB6F894DEBF7B
:102310000FBECDBFDF91CF911F910F91FF90EF9036
:1023200008950895FF920F931F93CF93DF93F82E94
:10233000092F162FD72FC42F222349F081E0809335
:102340006B020E94C81D90936A028093690280917B
:102350006B028823A1F08091690290916A020E9429
:10236000E01D059760F0EF2DF02FA12FBD2FCE0FB0
:10237000DF2FD11DEC17FD0741F410926B02DF91A6
:10238000CF911F910F91FF90089581918D93F2CF7E
:1023900080916E02811107C00E94E024882351F0D1
:1023A00081E080936E0281E090916E02913009F09D
:1023B00080E0089582E080936E020E94DB24F3CFD8
:1023C0000C94C8110E94E011809304010E94C8116E
:1023D00081110C94301208950E94C811811102C01D
:1023E0000C943212089581E090916F029A3008F0B7
:1023F00080E008950F931F93CF93DF93EC018B013F
:1024000080916F028A30B8F4B801CE010E94851223
:10241000C82F811122C080916F028F3FB9F40E94B2
:10242000C81D90936D0280936C028C2FDF91CF9129
:102430001F910F91089580916C0290916D020E94FE
:10244000E01D843F914000F7C0E0EFCF8F5F8093A5
:102450006F028A3020F7C1E0E8CF10926F02E5CF1B
:102460000C94D01A0C94D31AEF92FF920F931F93EF
:10247000CF93DF937901C82F880FDD0B41155105EC
:10248000A9F08AE08C9FF0018D9FF00D1124EB5F85
:10249000FE4F8381948180599D4F228130E0421705
:1024A000530708F49A01A9010E942825CE010E9431
:1024B000DD1B892B11F501151105E9F08AE08C9FD0
:1024C000F0018D9FF00D1124EB5FFE4F458150E030
:1024D0000417150708F4A8018AE08C9FF0018D9F6E
:1024E000F00D1124EB5FFE4F6681778160597D4FBF
:1024F000C7010E94282581E001C080E0DF91CF91D3
:102500001F910F91FF90EF9008950C94E0130C949D
:1025100004140F931F93CF93DF9300D000D0CDB757
:10252000DEB760918D0270918E0280918F02909142
:1025300090020E94EF1D11E064367105810591053E
:1025400018F10E94BF0F6E5F7F4F8F4F9F4F6983BF
:102550007A838B839C8310E000E030E020E044E04D
:1025600050E0BE016F5F7F4F84E00E943412182F4D
:10257000882351F00E94D41D60938D0270938E02C7
:1025800080938F0290939002812F0F900F900F9065
:102590000F90DF91CF911F910F9108957F928F92AD
:1025A0009F92AF92BF92CF92DF92EF92FF920F93E2
:1025B0001F93CF93DF930F92CDB7DEB7762E4A01EC
:1025C0005901680101E010E09E012F5F3F4F50E08C
:1025D00040E070E060E00E943412182F882309F474
:1025E0003EC0F40160817181828193810E94EF1D60
:1025F000643671058105910558F18701950150E018
:1026000040E070E060E0872D0E943412B82EB701E0
:10261000C6010E946E1411E09981981310E01B21ED
:1026200039F00E94D41DF401608371838283938307
:10263000812F0F90DF91CF911F910F91FF90EF901D
:10264000DF90CF90BF90AF909F908F907F90089534
:10265000B701C6010E946E1499818913CECFA701DC
:10266000B601C5010E942825E3CFEF92FF920F9398
:102670001F93CF93DF930F92CDB7DEB70091BD01CB
:102680001091BE01095F1F4FEE24E394F12C9E01CF
:102690002F5F3F4F49E852E063E082E00E94CE1294
:1026A000182F882321F0CE0101960E944118812F16
:1026B0000F90DF91CF911F910F91FF90EF900895B0
:1026C000CF92DF92EF92FF920F931F93CF93DF93FE
:1026D00000D000D00F92CDB7DEB76B010091BD01E5
:1026E0001091BE010F5F1F4F85E0E82EF12C9E0177
:1026F0002F5F3F4F45E852E061E080E00E94CE123C
:10270000882349F095E0FE013196A0E8B2E00190FF
:102710000D929A95E1F795E0E0E8F2E0D60101909C
:102720000D929A95E1F70F900F900F900F900F90E8
:10273000DF91CF911F910F91FF90EF90DF90CF909D
:102740000895AF92BF92CF92DF92EF92FF920F93D4
:102750001F93CF93DF937C015B016A010E94F31109
:1027600001E010E0882311F00AE010E0C1E0D0E0C1
:10277000F894B501C701F60109957894811104C058
:1027800021960C171D075CF4DF91CF911F910F91DB
:10279000FF90EF90DF90CF90BF90AF900895CC9FC7
:1027A0009001CD9F300D300D112490E080E045E385
:1027B0004A95F1F70000019682179307C1F7D8CF29
:1027C0000F931F93CF93DF93EC018B0140E653E10E
:1027D0000E94A113882391F045E353E1B801CE0193
:1027E0000E94A113882351F049E852E1B801CE01BB
:1027F000DF91CF911F910F910C94A11380E0DF9195
:10280000CF911F910F9108950F931F93CF93DF9353
:102810000F92CDB7DEB7F8940091BD011091BE01C3
:10282000C801019625E0FB01DC0101900D922A957B
:10283000E1F765E070E00E946E14F80180837894FF
:10284000F894CE0101960E9438188981F801878397
:1028500061E070E0CE0101960E946E14F80186835B
:102860007894F894608571858285938500917C02C7
:1028700010917D0220917E0230917F0260177107D6
:102880008207930751F060937C0270937D028093DE
:102890007E0290937F020E94A20F78940F90DF91A6
:1028A000CF911F910F9108950E94AF1F0E94010DBB
:1028B0000C94BB1F0E94BF1F0E94100D0C94D91FC7
:1028C0000E94521D0E94961F0E94EF0C0E945414F9
:1028D0000E945A140E94FD0CFBCF0895FC01680F62
:1028E000791F8FEF91E36E177F0709F40895219107
:1028F000822728E030E087FF06C0880F8927215013
:102900003109C9F7F0CF880FFACFCF92DF92EF925B
:10291000FF920F931F93CF93DF936C017B0164E6CB
:1029200070E088E70E946E19EC0197FD12C010E07C
:1029300000E0F601E00FF11F849164E670E00E9470
:10294000E819EC01892B29F40F5F1F4F0E151F05A5
:1029500081F70E946B1ACE01DF91CF911F910F91E9
:10296000FF90EF90DF90CF90089508950C94B514E8
:10297000E5EFF2E080E092E0DF019C011D92215042
:102980003040E1F7F093FC04E093FB048FEF9FEFFE
:102990009093B7028093B60208950E94B5140E94E6
:1029A000B6148093B20280FD0FC080E88093B1021C
:1029B0000E9468196DE070E083EA92E00E9485143D
:1029C000892B21F080E0089580E2F0CF8091B2025F
:1029D00063E070E081FD26C080EA92E00E948514E9
:1029E000892B81F76DE070E080E992E00E94851408
:1029F000892B41F70E94D41D605A75418F4F9F4F1C
:102A00006093F7047093F8048093F9049093FA04A8
:102A10000E94B81481E08093B5028093B4021092B2
:102A2000B30208958DE992E0D9CF2091B10236E04A
:102A3000839FC0011124629F800D911D1124811577
:102A400022E0920714F090E080E08B509D4F90932D
:102A5000FC048093FB0408958091B502811103C0AA
:102A60008091B40208950E94D41D605A75418F4F21
:102A70009F4F6093F7047093F8048093F904909348
:102A8000FA048091B4028111EBCF62E070E08EE82D
:102A900092E00E948514892B19F781E08093B4029B
:102AA000DFCF2F923F925F926F927F928F929F9291
:102AB000AF92BF92CF92DF92EF92FF920F931F934C
:102AC000CF93DF938091B502882369F02091B602FD
:102AD0003091B7022115310531F08091B30261E0E8
:102AE00070E0882399F0DF91CF911F910F91FF90B3
:102AF000EF90DF90CF90BF90AF909F908F907F909E
:102B00006F905F903F902F9008958F5F082F10E097
:102B10001B01082E02C0220C331C0A94E2F7A90103
:102B200042215321452B89F39091B20290FD44C07C
:102B30008295880F80768093390198013695279584
:102B40003695279520933C01815E80933A0110923F
:102B50003D0124E630E047E050E067E371E088E7BC
:102B60000E94171A892B09F0BECFA80125E0440F57
:102B7000551F2A95E1F78091B20280FD2BC04B5082
:102B80005D4F04E610E020E230E060E488E70E9458
:102B90003E1A892B09F0A7CF0E942C15E101C095A0
:102BA000D0958091B6029091B702C823D923D093D3
:102BB000B702C093B60297CF880F880F880F809313
:102BC000390110923C01895F80933A0183E0809340
:102BD0003D01BFCFE1E9F2E080E2DF011D928A957D
:102BE000E9F7A3ECB1E00FEB11E087ECC82E81E030
:102BF000D82E97E0592E772473948D91E80129916E
:102C00008E01240F352F311D2B503D4FE82FF0E062
:102C1000EF56FD4F90E080E0652C681A872C082E57
:102C200001C0880C0A94EAF77901A12CE701B99058
:102C30007E01B820662D6A196770962E062E000C4C
:102C4000770BDB2D01C0DD0F9A94EAF77195619542
:102C500071096770772701C0B6946A95EAF7BD2AB3
:102C60006081962E9B289082A39468E0A612DECF06
:102C7000019631968830910579F6CA16DB0609F07F
:102C8000BCCF04E610E020E230E041E952E07DCF25
:102C90008091B4029091B502911103C091E089270F
:102CA0000895882369F062E070E08CE892E00E9469
:102CB0008514892B19F08091B40208951092B40202
:102CC0008091B402EBCF81E008950C9463160F93CA
:102CD0001F938091B502882389F18091F50490912A
:102CE000F6040E94E01DC29760F00E94C81D9093F8
:102CF000F6048093F50460E080E00E9415150E94C0
:102D000065160E9451158091B4028823B9F00E9483
:102D1000D41D0091F7041091F8042091F90430912A
:102D2000FA04601B710B820B930B6F3F7F4F8F4F29
:102D30009F4720F41F910F910C9448161F910F91FB
:102D40000895CF93DF93EC01FB018281882309F47E
:102D500020C1C430FDE5DF07C8F5CB3F9CE5D907AE
:102D600030F49E0122503C452431310598F50E94F3
:102D7000220C9093DD028093DC02C031FCE5DF077A
:102D800009F4E0C008F061C0C8309CE5D90709F437
:102D9000CBC088F5C430FCE5DF0709F4B3C0E8F424
:102DA000C2309CE5D90709F4A7C08091DC0282609B
:102DB000C330DC4509F4A3C08091DC029091DD02B0
:102DC0000E94300C0E943C0680E004C0C236EDE553
:102DD000DE0769F2DF91CF9108958091DC02806176
:102DE000C630FCE5DF0709F48AC008F48FC0809183
:102DF000DC02806284C08091DC028D7FCC309CE557
:102E0000D90709F47CC070F48091DC028C60CA3070
:102E1000FCE5DF0709F473C008F48AC08091DC0286
:102E20008E7F6DC08091DC02877FCE309CE5D90714
:102E300009F465C08091DC028B7FCF30DC4508F45B
:102E40005EC08091DC028F7E5AC0CD3FFCE5DF077B
:102E500009F474C040F5C4319CE5D90709F48AC06F
:102E600058F4C231FCE5DF0709F474C008F46EC001
:102E70008091DC02837F43C0CB3F9CE5D90709F4F6
:102E800049C008F04DC0C531DC4509F095CF8091AF
:102E9000DC0282FB992790F921E0922790FB82F9CE
:102EA00090FB83F92CC0C1308DE5D80709F458C0D8
:102EB00088F48091DD028360CF3FECE5DE0769F1A5
:102EC0008091DD028D7FC115DD4538F18091DD02F5
:102ED0008C7F23C0C3308DE5D80709F458C008F4AF
:102EE00052C0C236DD4509F067CF9091DC02892FD0
:102EF0008F7E94FF806103C08091DC0281608093AB
:102F0000DC025ACF8091DC028460F9CF8091DC0230
:102F10008860F5CF8091DD0281608093DD024CCF27
:102F20008091DD028260F9CF8091DC028064E7CF7E
:102F30000E943C068091DC028068E1CF8091DD0236
:102F40008E7FEBCF8091DC028F7DD9CF8091DC0228
:102F50008F7BD5CF0E943C068091DC028F77CFCF4C
:102F60008091DD02982F909591708E7F892B90FB38
:102F700081F9D3CF0E943C069091DC02892F97FB08
:102F800087F98058BCCF81E00E94B60C15CF80E055
:102F9000FBCF81E01FCF81E008950C94CB1784987C
:102FA0008C9A85988D9A8FB1829581707D990EC08B
:102FB00090E0892B8093BD029091040181E09827D5
:102FC0009093B902891B8093B802089592E0F1CFE3
:102FD000CF93E091BD02EE0FEE0FE093BD024FB133
:102FE00044FB882780F94FB145FB222720F945FF94
:102FF00002C022E030E0822BE82BE093BD02C091BA
:10300000B902EF70F0E0E953FE4F80819091BC026D
:10301000890F8093BC0220E0843064F0EC2FF0E054
:10302000E654FD4F80818F5F808360E08C2F0E948B
:10303000CD1721E08091BC028D3F64F4EC2FF0E0CD
:10304000E654FD4F80818150808361E08C2F0E9487
:10305000CD1721E08091BC02082E000C990B64E092
:1030600070E00E9401258093BC02822FCF910895C9
:10307000E091B902F0E0E654FD4F2081FC0120838D
:103080000895FF920F931F93CF93DF93D091B802CF
:103090000D2F10E006541D4FFC01C081F801808106
:1030A000C81BFC2E80E01F147CF09C2FC7FD90E015
:1030B000C91BC11114C08823E9F0DF91CF911F9182
:1030C0000F91FF900C94CE0CFA94F80180818F5FE1
:1030D000808360E08D2F0E94CD1781E0E4CFCF5F29
:1030E000F80180818150808361E08D2F0E94CD178F
:1030F00081E0DFCFDF91CF911F910F91FF90089575
:10310000CF93DF93EB0186319C4511F50E943B0B79
:103110009A81992399F08A7A91E009F490E090934A
:10312000BE02811109C089E20E94160B0E947E0B2B
:1031300080E0DF91CF91089585E3F6CF8091BE02C4
:10314000811104C089E20E941D0BF0CF85E3FBCF03
:1031500081E0EFCF0F931F93CF93DF93C42FD22F34
:10316000FC0182818823C9F04093C1020E94C81DDE
:103170009093C0028093BF0280E28C0F883008F0E9
:1031800050C0C77081E001C0880FCA95EAF7DF918F
:10319000CF911F910F910C94BE031091C102141393
:1031A00035C08091BF029091C0020E94E01D84361C
:1031B000910560F5C0E2CD0F1D17B9F080E2810FD7
:1031C000883040F4177081E001C0880F1A95EAF743
:1031D0000E94C503C83048F481E09D2F977001C05C
:1031E000880F9A95EAF70E94BE03802F0E94B603CB
:1031F000C830B8F4D77081E001C0880FDA95EAF7DB
:10320000DF91CF911F910F910C94C50380E28C0F39
:10321000883038F4C77081E001C0880FCA95EAF79A
:10322000EFCFDF91CF911F910F9108950F939C01E4
:10323000CB01243F4CE5340759F1A8F4293DFCE5C6
:103240003F0701F12A3D4CE53407D1F1283D3C45CB
:1032500091F406E221EE41EE68ED7CE50E94AA18A9
:1032600080E00F910895263FFCE53F07E9F0B0F0BC
:10327000273F3C45F9F0FC018281882339F1109207
:10328000C102EFCF07E225EE45EE69ED7CE5E6CF22
:1032900006E221EE40EE64EF7CE5E0CF07E225EEAA
:1032A00044EE65EF7CE5DACF06E221EE42EE66EF12
:1032B0007CE5D4CF07E225EE46EE67EF7CE5CECF86
:1032C00008E221E045EE6AED7CE5C8CF81E0C9CF98
:1032D0001092B9008CE08093B80008959F92AF924D
:1032E000BF92CF92DF92EF92FF920F931F93CF93F3
:1032F000DF93B82EEB010E94C81D6C01EE24E3940D
:10330000F12CC431D10560F025E0E22EF12CCF3F45
:10331000DC0731F0CE0164E170E00E94ED247B0116
:1033200084EAA82E94E8992E1092BC00A092BC00CA
:103330000E94C81D8C018091BC0087FF0DC0809148
:10334000B900887F883039F18091B900887F803159
:1033500011F10FEF1FEF09C00E94C81D801B910BD8
:103360008E159F0540F30EEF1FEFCF3FDC07E1F214
:10337000C6010E94E01D8C179D07B0F2C801DF91C5
:10338000CF911F910F91FF90EF90DF90CF90BF9062
:10339000AF909F900895B092BB009092BC000E94A5
:1033A000C81D8C018091BC0087FF0AC08091B900C4
:1033B000887F883111F0803461F610E000E0DECFC4
:1033C0000E94C81D801B910B8E159F0558F3CBCF13
:1033D0000F931F93CF93DF93EB018093BB0084E89F
:1033E0008093BC000E94C81D8C018091BC0087FFA7
:1033F00011C02091B900287F81E090E0283211F4BB
:1034000090E080E0919581959109DF91CF911F9196
:103410000F910895CF3FDC0741F30E94C81D801B28
:10342000910B8C179D0708F38EEF9FEFEECFCF9295
:10343000DF92EF92FF920F931F93CF93DF936B0175
:103440008A017901B9010E946E19E6010C0D1D1D5A
:10345000C017D10761F424E92093BC00DF91CF911C
:103460001F910F91FF90EF90DF90CF90089597FDFF
:10347000F2CFB70189910E94E819EACFCF92DF928B
:10348000EF92FF920F931F93CF93DF93C62F6A01A2
:103490007901B8010E946E1997FD0CC0B8018C2FFC
:1034A0000E94E819E601EC0CFD1CCE15DF0511F0B9
:1034B00097FF0CC024E92093BC00DF91CF911F91AE
:1034C0000F91FF90EF90DF90CF900895B801899110
:1034D0000E94E819EACF84E98093BC0008958EE148
:1034E0004A9B02C08150E1F74A9BFECF08955A984B
:1034F00080E28A95F1F75A9A0895FC013BE03A95EB
:10350000F1F798E020E080E031E040E14A95F1F702
:10351000880F4A9B02C08160232742E04A95F1F759
:10352000000040E14A95F1F7915079F790E19A95C2
:10353000F1F799B132E03A95F1F7000040E14A9590
:10354000F1F792FB992790F992272081920F9083AF
:103550000895EF92FF920F931F93CF93DF930F92F3
:10356000CDB7DEB719828C017C01E60EF11C0E1579
:103570001F0561F481E09981911180E00F90DF9146
:10358000CF911F910F91FF90EF9008950E946F1AB5
:10359000CE0101960E947D1AF80181938F01E7CF39
:1035A000529A5A9A089552985A9AEA9AE9E6F0E09D
:1035B00080818F7C808308956150770B91E001C0FA
:1035C000990F6A95EAF720E031E0911108C02223B3
:1035D00091F05A9A80E28A95F1F75A980895492F06
:1035E000482339F05A9A232740E24A95F1F79695F5
:1035F000ECCF5A98F9CF5A98EDCFFF920F931F93C3
:10360000CF93DF93EC018C01060F111DC017D1077A
:1036100031F4DF91CF911F910F91FF900895F990B0
:103620000E94771A68E08F2D0E94DC1AEFCF1F925C
:103630000F920FB60F921124EF92FF920F931F93E8
:103640002F933F934F935F936F937F938F939F93AA
:10365000AF93BF93EF93FF93CF93DF930F92CDB7C9
:10366000DEB719820E946F1ACE0101960E947D1A60
:10367000A82FA695A695A695282F229525709A2F56
:103680009570290F922F937026952695920F982763
:1036900097708981982B09F075C0A63008F072C028
:1036A00080E18A95F1F75A9A529AB2E0BA95F1F709
:1036B00000C05A98EA2EF12CEAE0AE9FD001112406
:1036C000AB5FBE4F1896ED91FC9119973097B1F012
:1036D0006091BD017091BE0116962D913C91179796
:1036E000260F371F13968D919C911497680F791FA1
:1036F00015964C91159712968C9109958AE08E9D9E
:10370000F0018F9DF00D1124EB5FFE4F6581662364
:1037100051F02091BD013091BE0186819781820FC9
:10372000931F0E94FD1A0E94771AF0E1FA95F1F7B3
:103730005A9852985A9A80E18A95F1F78AE08E9DBC
:1037400080018F9D100D11240B5F1E4FD801129622
:103750006C911297662371F12091BD013091BE01E9
:1037600013968D919C91820F931F0E94A91AD801E4
:10377000ED91FC91882311F088E001C082E0808304
:103780000E946F1A0F90DF91CF91FF91EF91BF913F
:10379000AF919F918F917F916F915F914F913F91E9
:1037A0002F911F910F91FF90EF900F900FBE0F90F0
:1037B0001F901895ED91FC91DFCF0F931F93CF933E
:1037C000DF93EC0106970CF0A9C08AE08C9FF00112
:1037D0008D9FF00D1124EB5FFE4F80819181892B2D
:1037E00009F49CC0F894529A5A9885E08A95F1F7AA
:1037F00000008C2F869585709C2F9570890F982FCF
:10380000937086958695890F8E0193E0000F111FA6
:103810009A95E1F7082B0E94771A00C068E0802F84
:103820000E94DC1AA0E1AA95F1F752985A9A4A9B95
:1038300027C087E090E04A9925C08AE08C9F8001EC
:103840008D9F100D11240B5F1E4FF80165816623BB
:10385000A1F12091BD013091BE0186819781820F37
:10386000931F0E94A91A811128C0529A5A9AD8010E
:10387000ED91FC9182E08083789482E090E016C024
:1038800000C0D5CF0197B9F4529A5A9A8AE08C9F1A
:10389000F0018D9FF00D1124EB5FFE4F0190F08140
:1038A000E02D81E08083789481E090E0DF91CF91FA
:1038B0001F910F91089500C0BECF0E946F1AB0E211
:1038C000BA95F1F75A98529AE0E1EA95F1F78AE051
:1038D0008C9FF0018D9FF00D1124EB5FFE4F6281F4
:1038E000662351F02091BD013091BE018381948106
:1038F000820F931F0E94FD1A0E94771A8AE08C9F04
:10390000F0018D9FF00D1124EB5FFE4F0190F081CF
:10391000E02D1082789490E080E0C8CF84E090E0C1
:10392000C5CF9093D9018093D80108959093C80290
:103930008093C70208950E94C811811103C080912D
:10394000C2020895E091C702F091C802309721F0B9
:103950000190F081E02D099480E00895E091C70284
:10396000F091C802309721F00280F381E02D099494
:1039700008952091C5023091C6022817390771F0C9
:103980009093C6028093C502E091C702F091C802ED
:10399000309721F00680F781E02D09940895209159
:1039A000C3023091C4022817390771F09093C40202
:1039B0008093C302E091C702F091C802309721F0D2
:1039C0000084F185E02D099408959C012E5F3F4FFE
:1039D000AC01485F5F4F80E02417350709F4089574
:1039E000F90191919F019923B9F38F5FF5CF662378
:1039F00049F0FC01329608962191261729F0E81724
:103A0000F907D1F780E0089581E008959C01FC0159
:103A100032969FEF80E04191461751F09F3F19F495
:103A2000411101C0982F8F5F8630A9F79F3F09F49D
:103A30000895290F311D97FD3A95F9016283089584
:103A4000FC01329608962191261303C0DF011197DD
:103A50001C92E817F907B9F708950C94061D0C9409
:103A6000201D029626E0FC0111922A95E9F708959F
:103A700008950C94381D811105C081E08093C9021E
:103A80000C94391D82E0FACF83E08093C9020C9434
:103A9000391D0C943B1D81E08093C9020C94391DA3
:103AA0000C944B1D089580910505843031F10E94DE
:103AB0006E021092CA0288E190E020E40FB6F894FA
:103AC000A895809360000FBE2093600083B7817F2C
:103AD000846083BF83B7816083BF7894889583B700
:103AE0008E7F83BF0FB6F894A8958091600088619F
:103AF00080936000109260000FBE089508950895AD
:103B0000CF930E947E1D0E943E110E947F1DC0E047
:103B10008C2F0E940710811105C0CF5FCA30C1F7FA
:103B2000CF91089581E0FCCF0E943C060C94D8020E
:103B30001F921FB61F9211248F939F93AF93BF9331
:103B40008091CA02811113C08091FD049091FE04FE
:103B5000A091FF04B09100054196A11DB11D809375
:103B6000FD049093FE04A093FF04B0930005BF9161
:103B7000AF919F918F911F901FBE1F90189582E06B
:103B800084BD93E095BD9AEF97BD80936E00089534
:103B90002FB7F8948091FD049091FE04A091FF044A
:103BA000B09100052FBF08952FB7F8946091FD04E0
:103BB0007091FE048091FF04909100052FBF08953D
:103BC0009C014FB7F8948091FD049091FE04A09160
:103BD000FF04B09100054FBF821B930B0895CF9255
:103BE000DF92EF92FF922FB7F894C090FD04D0902F
:103BF000FE04E090FF04F09000052FBFA70196019E
:103C0000261B370B480B590BCA01B901FF90EF90E7
:103C1000DF90CF90089578941F921FB61F921124C1
:103C20008F939F93AF93BF938091FD049091FE0477
:103C3000A091FF04B09100050196A11DB11D8093D4
:103C4000FD049093FE04A093FF04B0930005BF9180
:103C5000AF919F918F911F901FBE1F90189587E77E
:103C600097E7909301088093000888E19AE00FB6E7
:103C7000F894A895809360000FBE90936000FFCFEA
:103C80008091D60208950895CF93DF93EC0181E0EF
:103C90008093E9008FEF9091E800815095FD06C078
:103CA00095ED9A95F1F700008111F5CF8091E8002C
:103CB00085FF14C050E040E068E070E0CE010E9453
:103CC0004A208091E8008E778093E80088E0FE012A
:103CD000AEECB2E001900D928A95E1F7DF91CF91C1
:103CE00008958093CB027093CD026093CC028091B3
:103CF0000505843001F582E08093E9008FEF909113
:103D0000E800815095FD06C095ED9A95F1F7000009
:103D10008111F5CF8091E80085FF0DC050E040E0B3
:103D200063E070E08BEC92E00E944A208091E80012
:103D30008E778093E8000895BC0184E00C94711E96
:103D4000BC0183E00C94711E0895809104058111DB
:103D500009C00E94DA210E9437228091E20084602B
:103D60008093E20008951092040508950C944B1D71
:103D70006091010581E0611101C080E00C94441D57
:103D80009091050581E0943009F080E06091010593
:103D90000C94491D42E061EC81E00E94562142E210
:103DA00061EC82E00E9456219091050581E09430FB
:103DB00009F080E0609101050C943B1D809107059E
:103DC000833009F460C030F48130C9F1823009F4E5
:103DD0009CC008958A3009F488C08B3009F46EC005
:103DE000893009F04FC080910605813209F04AC040
:103DF00080910A0590910B05029708F043C08091CD
:103E0000E800877F8093E8008091E80082FF36C059
:103E10009091F3008091F200029731F48091F100CB
:103E2000813011F0863021F48091F1008093D60228
:103E30008091E8008B778093E8000C948A21809130
:103E40000605813AF9F48091E800877F8093E800C5
:103E500080910A0590910B05892B61F468E08EEC46
:103E600092E070E00E9499208091E8008B77809327
:103E7000E800089560E090E080E0F3CF80910505D0
:103E80008111C2CF089580910605813AD9F78091BA
:103E90000A0590910B05892BA9F78091E800877F8F
:103EA0008093E8008091E80080FFFCCF80914A0178
:103EB0008093F1008091E8008E77BDCF8091060558
:103EC000813201F780910A0590910B05892BD1F67B
:103ED0008091E800877F8093E8000E948A2180918A
:103EE000080580934A010C943C06809106058132B6
:103EF00049F68091E800877F8093E8000E948A213C
:103F0000809109058093D702089580910605813A32
:103F100009F0B8CF8091E800877F8093E800809116
:103F2000E80080FFFCCF8091D702C2CF84B7877FA3
:103F300084BF0FB6F894A895809160008861809343
:103F40006000109260000FBE80E890E00FB6F89419
:103F500080936100909361000FBE0C94501D0E94ED
:103F6000DA210E943722E2EEF0E0808184608083D3
:103F700078940C94C0248EE391E00C94961C80916C
:103F800005058530A9F480910505853011F00C9464
:103F9000941D0E94531D809103058823A1F30E9464
:103FA000801D882381F30E9434200E943C06EBCFC1
:103FB000089508950C94DC1F292F332723303105F1
:103FC00019F168F42130310509F444C0223031057B
:103FD00009F445C090E080E030E020E025C02132C7
:103FE000310549F122323105A9F780E490E025E559
:103FF00033E061157105C1F082E390E023E233E024
:104000006130710589F0E6CF99278130910581F003
:10401000009729F00297F1F6E0EBF2E002C0E2ED42
:10402000F2E0849190E09F01FA01318320830895AA
:10403000E0ECF2E0F6CF89E090E028EE32E06115A6
:10404000710591F389E090E021E033E06130710582
:1040500059F3C0CF82E190E021E133E0E5CF8BE37B
:1040600090E026ED32E0E0CF80E189BD82E189BDBC
:1040700009B400FEFDCF8091D8008F7D8093D800D9
:104080008091E00082608093E0008091E00081FDFB
:10409000FCCF0895AF92BF92CF92DF92FF920F9321
:1040A0001F93CF93DF936C01EB018A010E94A9213A
:1040B000F82E811123C00115110539F0F801808116
:1040C0009181C81BD90BC80ED91EB12CA12C2097E9
:1040D000A9F08091E80085FD22C08091E8008E77EC
:1040E0008093E80001151105A1F0F801808191810C
:1040F000A80EB91EB182A08285E0F82E8F2DDF9127
:10410000CF911F910F91FF90DF90CF90BF90AF9014
:1041100008950E94A9218823D1F2F82EEFCFF6014D
:1041200081916F018093F1002197FFEFAF1ABF0AD1
:10413000CECFFC0180910C0590910D058617970755
:10414000A0F06115710529F49091E8009E77909395
:10415000E80090E06115710551F4911108C080915B
:10416000E80082FF34C080E00895BC01F2CF809166
:1041700005058823C1F18530C1F18091E80083FDF8
:1041800030C08091E80082FDEACF8091E80080FF96
:10419000E1CF8091F3002091F200382F6115710575
:1041A00019F02830310558F091E02830310509F038
:1041B00090E02091E8002E772093E800CBCF81910A
:1041C0008093F100615071092F5F3F4FE7CF8091DD
:1041D0000505882341F0853041F08091E80083FF98
:1041E000BECF81E0089582E0089583E00895FC0148
:1041F00080910C0590910D0586179707A0F0611529
:10420000710529F48091E8008E778093E80090E0B2
:104210006115710551F4911108C08091E80082FF89
:1042200035C080E00895BC01F2CF80910505882358
:10423000C9F18530C9F18091E80083FD31C08091DA
:10424000E80082FDEACF8091E80080FFE1CF809115
:10425000F3002091F200382F6115710519F0283014
:10426000310558F091E02830310509F090E0809157
:10427000E8008E778093E800CBCF84918093F100A3
:104280003196615071092F5F3F4FE6CF8091050550
:10429000882341F0853041F08091E80083FFBDCF55
:1042A00081E0089582E0089583E00895982F973083
:1042B00028F08F708093E90081E008959093E900E1
:1042C000242F762F50E0981731F07091EC00209158
:1042D000ED005091F00021FD02C09F5FE8CF3091CA
:1042E000EB003E7F3093EB003091ED003D7F30934B
:1042F000ED003091EB0031603093EB007093EC00F7
:104300002093ED005093F0002091EE0027FDE5CFC3
:1043100080E008958091060587FF13C08091E80032
:1043200082FF06C08091E8008B778093E80004C08C
:10433000809105058111F2CF0895809105058823AC
:10434000D9F38091E80080FFF8CF8091E8008E7764
:10435000ECCF2091E4003091E50095E6A901209191
:10436000EC00822F817020FF06C08091E80080FF62
:1043700006C080E008952091E80022FD1AC08091D7
:104380000505882389F0853089F08091EB0085FD53
:104390000FC02091E4003091E50042175307F9F275
:1043A0009150E1F684E0089582E0089583E0089555
:1043B00081E008950E9448220E945022E0EEF0E041
:1043C000808181608083E8EDF0E080818F77808359
:1043D00019BCA7EDB0E08C918E7F8C9380818F7E8D
:1043E00080831092040508950F931F93CF93DF935A
:1043F0000E9448220E945022C8EDD0E088818F7729
:10440000888388818068888388818F7D888319BCB0
:1044100010920505109201051092030510920205F5
:1044200000EE10E0F80180818B7F808388818160BD
:10443000888342E060E080E00E945621E1EEF0E0F7
:1044400080818E7F8083E2EEF0E0808181608083D6
:10445000808188608083F80180818E7F808388815D
:1044600080618883DF91CF911F910F910895E8EDCE
:10447000F0E080818F7E8083E7EDF0E080818160D5
:10448000808384E082BF81E0809304050C94F42152
:10449000E8EDF0E080818E7F80831092E200089545
:1044A0001092DA001092E10008951F920F920FB659
:1044B0000F9211242F933F934F935F936F937F93AA
:1044C0008F939F93AF93BF93EF93FF938091E100FE
:1044D00082FF0BC08091E20082FF07C08091E10063
:1044E0008B7F8093E1000E94BF248091DA0080FFDF
:1044F00019C08091D80080FF15C08091DA008E7FAE
:104500008093DA008091D90080FF96C080E189BD58
:1045100082E189BD09B400FEFDCF81E080930505ED
:104520000E94A51E8091E10080FF19C08091E200E9
:1045300080FF15C08091E2008E7F8093E200809121
:10454000E20080618093E2008091D80080628093D5
:10455000D80019BC85E0809305050E94B81E8091A3
:10456000E10084FF2BC08091E20084FF27C080E13E
:1045700089BD82E189BD89B5982F917080FFFBCFFD
:104580008091D8008F7D8093D8008091E1008F7E4C
:104590008093E1008091E2008F7E8093E200809121
:1045A000E20081608093E20080910105882309F494
:1045B00049C084E0809305050E94C01E8091E100FF
:1045C00083FF29C08091E20083FF25C08091E10034
:1045D000877F8093E10082E08093050510920105BA
:1045E0008091E1008E7F8093E1008091E2008E7FD8
:1045F0008093E2008091E20080618093E20042E0DB
:1046000060E080E00E9456218091F00088608093F5
:10461000F0000E94B61EFF91EF91BF91AF919F9164
:104620008F917F916F915F914F913F912F910F905B
:104630000FBE0F901F90189519BC109205050E948F
:10464000B31E70CF8091E30087FD93E09093050542
:10465000B3CF1F920F920FB60F9211242F933F9357
:104660004F935F936F937F938F939F93AF93BF937A
:10467000CF93DF93EF93FF93D091E900DF708091A8
:10468000EC00C82FC17080FDC0E81092E900809155
:10469000F000877F8093F00078940E946D23109241
:1046A000E9008091F00088608093F000CD2BCF70FE
:1046B000C093E900FF91EF91DF91CF91BF91AF914E
:1046C0009F918F917F916F915F914F913F912F912A
:1046D0000F900FBE0F901F9018951F93CF93DF93ED
:1046E000CDB7DEB7AA970FB6F894DEBF0FBECDBF29
:1046F00086E095E02091F100FC012193CF01F5E0E7
:104700008E309F07B9F70E94DE1E8091E80083FF7C
:104710001EC180910605909107059A3008F017C1D7
:10472000E92FF0E0E157FA4D0C941525803899F007
:10473000823809F00CC180910A058F70873008F02B
:1047400006C18093E9008091EB0085FB882780F902
:104750001092E90006C08091020590910305911125
:1047600082609091E800977F9093E8008093F10039
:104770001092F1008091E8008E77E5C0882309F45B
:10478000D3C0823009F0E3C0809108058111D6C002
:1047900080910A058F702FEF280F263008F0D7C0C0
:1047A0008093E9002091EB0020FFC8C0933031F4E2
:1047B0008091EB0080628093EB00C0C09091EB0091
:1047C00090619093EB0021E030E001C0220F8A95C8
:1047D000EAF72093EA001092EA008091EB008860EB
:1047E000EACF8111B4C0109108051F778091E300D2
:1047F0008078812B8093E3008091E800877F80930D
:10480000E8000E948A218091E80080FFFCCF80911F
:10481000E30080688093E30082E0111183E08093DD
:10482000050595C08058823008F091C08091080538
:10483000909109058C3D23E09207A1F583E08A83DE
:104840008AE289834FB7F894DE01139620E03EE0B8
:1048500051E2E32FF0E050935700E49120FF03C0B2
:10486000E295EF703F5FEF708E2F90E0EA30C0F07E
:10487000C7968D939D932F5F243159F74FBF809139
:10488000E800877F8093E8006AE270E0CE0101963D
:104890000E9499208091E8008B778093E80057C0B0
:1048A000C096E7CF60910A0570910B05AE014F5F8E
:1048B0005F4F0E94DA1FBC01892B09F448C0909118
:1048C000E800977F9093E80089819A810E94F72001
:1048D000E1CF8038E1F58091E800877F8093E800A0
:1048E000809101058093F10045CF811130C09091F6
:1048F0000805923060F58091E800877F8093E8009A
:10490000909301050E948A2180910105882311F06E
:1049100084E005C08091E30087FDFACF81E08093B9
:1049200005050E94CA1E13C080910805813079F4E4
:1049300081E0933009F080E0809303051092E90054
:104940008091E800877F8093E8000E948A2180910F
:10495000E80083FF0AC08091E800877F8093E80029
:104960008091EB0080628093EB00AA960FB6F894DA
:10497000DEBF0FBECDBFDF91CF911F910895089587
:10498000CF93809105058823A1F0C091E900CF70F5
:104990009091EC00892F817090FD80E8C82B1092D7
:1049A000E9008091E80083FD0E946D23CF70C093E1
:1049B000E900CF9108950E94DA211092050508952B
:1049C000E8EDF0E08081806180838AE18A95F1F7EB
:1049D00000C08091D90081700895AA1BBB1B51E1D2
:1049E00007C0AA1FBB1FA617B70710F0A61BB70B5F
:1049F000881F991F5A95A9F780959095BC01CD0104
:104A0000089597FB072E16F4009407D077FD09D080
:104A10000E94ED2407FC05D03EF4909581959F4FB0
:104A20000895709561957F4F0895EE0FFF1F0590D3
:104A3000F491E02D0994FB01DC0104C08D910190FB
:104A4000801921F441505040C8F7881B990B0895F4
:104A5000FB01DC0102C001900D9241505040D8F79B
:104A60000895F999FECF92BD81BDF89A992780B536
:104A70000895A8E1B0E042E050E00C946525262FAF
:104A8000F999FECF92BD81BDF89A019700B4021644
:104A900039F01FBA20BD0FB6F894FA9AF99A0FBEF2
:104AA00008950396272F0E9440250E943F25252F19
:104AB0000E944025242F0C9440250196272F0E9408
:104AC00040250C943F25DC01CB01FC01F999FECF78
:104AD00006C0F2BDE1BDF89A319600B40D92415086
:104AE0005040B8F70895F894FFCF0A040A043B0435
:104AF0003B04CE046A046A046A04EA047605850568
:104B000085054B064B0654065406560654065406B5
:104B100054064B064B065B06540654065B0696236A
:104B2000BE23A724BE23A724F1231224A72469248B
:024B30007524EA
:104B32006400450201F4020000000100000000F4DC
:104B4200020000000501000000F40200000001065E
:104B5200000000F4020000000107000000F402045B
:104B6200080000000000000021007F220003401E18
:104B7200441EA41EA01E9C1E431E01E200E900EA80
:104B820000B500B600B700CD008301CC008A0192C7
:104B92000194012102230224022502260227022A6D
:104BA20002B300B4006F007000818283E200E9006A
:104BB200EA00B500B600B700CD008301CC008A013F
:104BC20092019401210223022402250226022702D5
:104BD2002A02B300B4006F007000818283F6F731BD
:104BE2003332366697C6343500000000007002008A
:104BF2000810181810080000FF0100010000FFFF54
:084C02000000010001FF0000A9
:00000001FF
